:020000021000EC
:10B000000080002005B2010051B2010053B20100DE
:10B010000000000000000000000000000000000030
:10B0200000000000000000000000000055B2010018
:10B03000000000000000000057B2010059B20100FA
:10B040004DFA01005BB201005DF901005BB2010045
:10B050005BB2010000000000A10502005BB201002C
:10B060005BB201005BB201005BB201005BB20100A8
:10B070005BB201005BB201005BB201005BB2010098
:10B080005BB20100D5CA01005BB201005BB20100F6
:10B0900021CB01005BB20100D5B702005BB2010019
:10B0A0005BB201005BB20100000000000000000084
:10B0B0000000000000000000000000000000000090
:10B0C000314932480A1A02D0072291438D4630494D
:10B0D00030480A1A06D00722914381F309880222D8
:10B0E00082F314882C482D492D4A00F03CF82D4855
:10B0F0002D492E4A00F037F82D482E492E4A00F0EF
:10B1000032F82E482E492F4A00F02DF82E482F49AC
:10B110002F4A00F028F82F482F49304A00F023F832
:10B120002F483049304A00F01EF83048304900229C
:10B1300000F024F82F483049002200F01FF82F4A71
:10B1400090471F481F49884205D00268043003B465
:10B15000904703BCF7E700208646EC46002000211C
:10B16000274A9047FEE7884207D0521A05D0037855
:10B1700001300B700131013AF9D17047884202D099
:10B1800002700130FAE7704700800020007800204C
:10B1900000800020008000208CD10200C0330020FD
:10B1A0001034002078B2010078B201005CC10200C6
:10B1B0008CD10200C0330020C03300206CC10200DB
:10B1C0006CC102006CC102006CC102006CC10200C3
:10B1D0006CC102006CC102006CC102008CD1020083
:10B1E000DCD1020010340020103400201034002084
:10B1F00074470020744700207447002017B20100F4
:10B20000792C02000B4880470B480C49884385463F
:10B210000B48804754E70B480B490C4A884207D03B
:10B22000521A05D0037801300B700131013AF9D17F
:10B23000704700005DB201000080002007000000A0
:10B24000E52F02005CC10200B0330020C0330020B3
:10B25000FEE7FEE7FEE7FEE7FEE7FEE70321044820
:10B2600002680A430260034802680A4302607047AA
:08B270002405004054050040D4
:10B2780000B583B00190019B1B681F2B06D9064AB5
:10B28800E8235B001100180006F012FCA023DB0580
:10B29800180003B000BDC0466CC1020000B585B0FF
:10B2A80001900A006B4603331A7001AB1800FFF7D0
:10B2B800DFFF03000393019A039BC132FF32920020
:10B2C800D358019A0D491940039BC132FF329200AD
:10B2D800D150019A039BC132FF329200D3586A467B
:10B2E8000332127812041100019A1943039BC132E8
:10B2F800FF329200D150C04605B000BDFFFFFCFFF1
:10B3080000B583B00190019B180005F0BBFC030059
:10B31800180003B000BD000000B587B002006B46FE
:10B3280007331A706B4606330A1C1A7017236B44CE
:10B3380000221A70002304936B4607331B78180009
:10B3480005F0CCFC03000493049B032B6AD86B46DE
:10B3580006331B78012B04D0022B57D0002B37D093
:10B3680063E0172169443A48049A13005B009B186C
:10B378001B5C0B703649049A13005B009B18CB18B2
:10B3880001331B78002B15D03248334B1A68130051
:10B398009B009B185B001900304B1A0001F04EFC13
:10B3A80003000393039B002B04D12C4B6A460732FE
:10B3B80012781A702649049A13005B009B18CB1860
:10B3C80002331978264A049BD3180A1C1A702CE0F9
:10B3D800204B180001F064FC214A049BD31819780B
:10B3E8001B48049A13005B009B18C31802331B7890
:10B3F800994219D1172169441548049A13005B0032
:10B408009B18C31802331B780B700DE01721694491
:10B418000F48049A13005B009B18C31801331B786C
:10B428000B7002E0C04600E0C04617236B441B784F
:10B43800002B0AD00B4B1B68002B06D0094B1B684E
:10B4480017226A44127810009847C04607B000BD1A
:10B45800603400206C340020143400208C34002028
:10B46800903400205C34002000B583B00190019B2B
:10B478001B7802211800FFF74FFFC04603B000BD3C
:10B4880010B584B002006B4607331A70002303938B
:10B4980000230293DE4B1B78002B04D0DC4B0022E8
:10B4A8001A7005F097FB6B4607331B78172B00D9EA
:10B4B800BAE19A00D74BD3181B689F4605F08AFB60
:10B4C800D54B6A46073212781A70AEE1002005F0B3
:10B4D80021FB031E0ED0002005F062FB6B460733EC
:10B4E8001B78022B02D1E123DB0001E0FA231B01C8
:10B4F80002930CE0002005F039FB6B4607331B78FC
:10B50800022B01D1C82301E0C8235B000293C24B80
:10B518006A46073212781A70C04C029B64211800E0
:10B5280010F002FA03001A00BD4B1B6853430022B7
:10B538001900200001F082FB0300039375E100204D
:10B5480005F0E8FA031E0ED0002005F029FB6B4633
:10B5580007331B78032B02D1C8239B0001E0FA2391
:10B568001B0102930CE0002005F000FB6B4607333B
:10B578001B78032B01D1C82301E0C8235B00029389
:10B58800A54B6A46073212781A70A44C029B6421B4
:10B59800180010F0C9F903001A00A14B1B685343A7
:10B5A80000221900200001F049FB030003933CE14D
:10B5B800002005F0AFFA031E06D0002005F0F0FACF
:10B5C800FA231B01029305E0002005F0CFFAC823F7
:10B5D8005B000293904B6A46073212781A708F4CC0
:10B5E800029B6421180010F09FF903001A008C4B8D
:10B5F8001B68534300221900200001F01FFB0300C1
:10B60800039312E1002005F085FA031E0DD00020F7
:10B6180005F0C6FA6B4607331B78052B01D1C82302
:10B6280001E0FA231B0102930CE0002005F09EFACA
:10B638006B4607331B78052B01D1C82301E0C823CB
:10B648005B000293744B6A46073212781A70734C87
:10B65800029B6421180010F067F903001A00704B70
:10B668001B68534300221900200001F0E7FA030089
:10B678000393DAE0002005F0D1FA674B6A460732F7
:10B6880012781A706548664B1B680022190001F091
:10B69800D5FA03000393C8E0002005F067FA5E4B73
:10B6A8006A46073212781A70BFE0594B01221A70A5
:10B6B800012005F0B3FA5948594B1B6800221900BC
:10B6C80001F0BCFA03000393AFE0514B01221A705A
:10B6D800012005F0A3FA5148514B1A6813009B004A
:10B6E8009B180022190001F0A9FA030003939CE0BB
:10B6F800474B01221A70012005F090FA4748484B41
:10B708001B680022190001F099FA030003938CE0EA
:10B718003F4B01221A70012005F080FA3F48404B48
:10B728001A6813009B009B180022190001F086FA82
:10B738000300039379E005F05FFA374B6A46073256
:10B7480012781A7071E0374B180001F0A9FA03005B
:10B7580003936B4607331B781122D31A0293029B7B
:10B76800002B1DD0039B002B1AD1029B012B13D950
:10B778002C4C029BC82253436421180010F0D4F8C3
:10B7880003001A00264B1B685343002219002000AF
:10B7980001F054FA03000393022005F0E7F944E0AE
:10B7A800022005F0FDF940E005F014FA1A4B6A464C
:10B7B800073212781A7038E005F00CFA002005F00C
:10B7C800D5F9154B6A46073212781A702DE005F044
:10B7D80001FA012005F0CAF90F4B6A4607321278C0
:10B7E8001A7022E005F0F6F9002005F0BFF90120F3
:10B7F80005F0BCF9084B6A46073212781A7014E053
:10B8080005F0FAF9044B6A46073212781A700CE010
:10B8180011340020D0C10200103400201C34002054
:10B82800143400203C340020C046039B180004B0A8
:10B8380010BDC04600B583B00190064B1B680122BD
:10B84800134004D0044B1B781800FFF719FEC046BC
:10B8580003B000BD183400201034002000B583B0B8
:10B868000190022005F0DAF9C04603B000BD0000DF
:10B8780000B585B002006B4607331A7000230393A6
:10B88800084B1B680122134007D06B4607331B780F
:10B898001800FFF7F5FD03000393039B180005B09C
:10B8A80000BDC0461834002000B587B0039002914F
:10B8B8000192002305932F4B029A1A602E4B039A8C
:10B8C8001A602E4B019A1A60039B0222134031D052
:10B8D800002304930AE0049B01220121180000F0D0
:10B8E8005DF803000593049B01330493049B032B29
:10B8F80002D8059B002BEED0059B002B08D1029B9C
:10B908005A081F4B0421180000F07EFA0300059323
:10B91800059B002B03D100F0F1FA03000593059B6A
:10B92800002B07D1174A184B0021180001F054F9D1
:10B9380003000593039B0122134001D005F088F909
:10B94800059B002B07D1114A114B0021180001F06B
:10B9580043F903000593059B002B07D10D4A0E4BB5
:10B968000121180001F038F903000593059B180020
:10B9780007B000BD14340020183400205C340020C7
:10B98800B0C1020071B40100ACC102003DB80100B1
:10B99800A4C1020065B80100A8C1020084B00190EA
:10B9A800080011006B460333021C1A706B46023301
:10B9B8000A1C1A7000230393019B032B42D86B4681
:10B9C80002331B78012B0DD16B4603331B78012BF7
:10B9D80004D1019BDBB20E33DAB200E000226B46E1
:10B9E80002331A706B4603331B78012B04D0022BE9
:10B9F8000CD0002B16D021E01549019A13005B00EA
:10BA08009B186A46023212785A541DE01049019A6E
:10BA180013005B009B18CB1801336A460232127878
:10BA28001A7011E00A49019A13005B009B18CB18A1
:10BA380002336A46023212781A7005E0072303932C
:10BA4800C04601E007230393039B180004B0704726
:10BA58006034002000B583B00190019B180005F008
:10BA68005DF9030003211800FFF718FC00231800F4
:10BA780003B000BD00B583B0012200210020FFF70C
:10BA88008DFF03000193019B002B04D0019B072B22
:10BA980001D0019B1EE0072202210120FFF77EFF53
:10BAA80003000193019B002B04D0019B072B01D0BD
:10BAB800019B0FE0042202210020FFF76FFF030023
:10BAC8000193019B002B04D0019B072B01D0019B04
:10BAD80000E00023180003B000BD00B583B00122C8
:10BAE80002210020FFF75AFF03000193019B002B5E
:10BAF80004D0019B072B01D0019B1EE007220221E5
:10BB08000120FFF74BFF03000193019B002B04D09A
:10BB1800019B072B01D0019B0FE00A220021002086
:10BB2800FFF73CFF03000193019B002B04D0019B0E
:10BB3800072B01D0019B00E00023180003B000BDD3
:10BB480000B583B001900120FFF7DAFB031E03D094
:10BB5800019B02221A700BE00020FFF7D1FB031EA5
:10BB680003D0019B0B221A7002E0019B00221A707D
:10BB7800C04603B000BD00B583B00020FFF76AFFE0
:10BB880003000193019B002B04D0019B062B01D0DD
:10BB9800019B0DE00120FFF75DFF03000193019B6E
:10BBA800002B04D0019B062B01D0019B00E0002351
:10BBB800180003B000BD000000B585B00190019BDE
:10BBC8001B88102B02D0112B1AD033E01B4B1B689B
:10BBD800002B0FD1FFF74EFF03000393039B002BAD
:10BBE80008D0174B1B68002B04D0154B1B68039A11
:10BBF80010009847114B1B685A1C104B1A6019E02B
:10BC08000E4B1B685A1E0D4B1A600C4B1B68002B01
:10BC18000FD1FFF762FF03000393039B002B08D0AB
:10BC2800074B1B68002B04D0054B1B68039A1000B8
:10BC38009847C046C04605B000BDC04698340020AD
:10BC48009434002000B585B001900091002303933F
:10BC58000A4B019A1A60009B002B03D0009B180026
:10BC6800FFF76EFF064B1B68002B03D1FFF735FF6C
:10BC780003000393039B180005B000BD9434002013
:10BC88009834002010B588B001901F236B4400221F
:10BC98001A7054E02F4B1A681F236B441B78DB0083
:10BCA800D3180693069B1B781A000123934005932B
:10BCB800294B1B68059A13403AD0059BDA43264B5B
:10BCC8001B681A40244B1A60069B1B7813246C448B
:10BCD800180004F045FC03002370069B1B781A002B
:10BCE800012393401A001D4B1B68134013226A441A
:10BCF8001278069909788A40934219D113236B4424
:10BD08001B78069A5278013A51424A41D2B29B1A9C
:10BD18005A425341DBB20393069B5B68002B07D062
:10BD2800069B5B68069A12780399C9B21000984777
:10BD38001F236B441A781F236B4401321A70084B77
:10BD48001B781F226A4412789A42A3D3C04608B0CF
:10BD580010BDC0469C340020CC340020C8340020DC
:10BD6800A034002000B585B001900A006B4603336B
:10BD78001A700122019B9A40130003931E4B18006E
:10BD880000F08EFF03000293029B002B30D11B4B67
:10BD98001B68039A134023D1019B180004F0E0FBB1
:10BDA800031E06D0164B1A68039B1A43144B1A60DD
:10BDB80006E0039BDA43124B1B681A40104B1A60CB
:10BDC8000E4B1A68039B1A430C4B1A600A480D4B1A
:10BDD8001B680022190000F031FF0300029308E0FD
:10BDE800039BDA43054B1B681A40044B1A6000E0BA
:10BDF800C04605B000BDC046A8340020CC340020A1
:10BE0800C8340020A434002000B589B00390019202
:10BE18000B236B440A1C1A70019B042B01D80723BF
:10BE280059E004F081FA03001A0001235340DBB201
:10BE3800002B08D004F024FA03000793079B002B7B
:10BE480001D0079B47E0254B039A1A60244B0B222D
:10BE58006A4412781A70234B019A1A60224B002206
:10BE68001A60224B00221A6025E00B236B441B78D2
:10BE7800DB00039AD318069305AB03221A7005ABAF
:10BE880000225A7005AB00229A7005AB0022DA70C6
:10BE9800069B9A7805AB5A70069B1B781800144AC3
:10BEA80005AB190004F04AFA03000793079B002B1F
:10BEB80001D0079B0FE00B236B441B780B226A44CD
:10BEC800591E1170002BD0D10A4A0B4B00211800C3
:10BED80000F082FE0300180009B000BD9C34002069
:10BEE800A0340020A4340020C8340020CC34002022
:10BEF8006DBD01008DBC010030C2020000B583B0E9
:10BF0800114B1B68002B04D1104B1900B62005F00B
:10BF1800CFFD002301930CE00B4B1A68019BDB005B
:10BF2800D3181B780121180004F07AFA019B013319
:10BF38000193074B1B781A00019B9342ECD3002313
:10BF4800180003B000BDC0469C34002034C2020073
:10BF5800A034002000B589B0039002910192029BA1
:10BF68009AB205AB1A8005AB019A5A6005AB039AE1
:10BF78009A6005AB03481A00002102F061FDC04633
:10BF880009B000BD0140000082B002006B460733D3
:10BF98001A706B4607331B781A001F231A40044B8C
:10BFA800012191400A001A60C04602B07047C0469D
:10BFB80000E100E082B002006B4607331A706B465E
:10BFC80007331B781A001F231340044901229A40A3
:10BFD800130080228B50C04602B0704700E100E099
:10BFE80082B002006B4607331A706B4607331B7822
:10BFF8001A001F231340044901229A4080235B0042
:10C00800CA50C04602B0704700E100E082B00200AA
:10C018006B4607331A706B4607331B781A001F23C9
:10C028001340044901229A40C0235B00CA50C0460D
:10C0380002B0704700E100E010B582B00200009144
:10C048006B4607331A706B4607331B787F2B36D93C
:10C05800324A6B4607331B7819000F230B40083B05
:10C068009B0806339B00D31804331B686A460732C3
:10C078001278110003220A40D200FF2191400A00E1
:10C08800D2431A401100009B9B01FF221A406B46C5
:10C0980007331B78180003230340DB009A401F482E
:10C0A8006B4607331B781C000F232340083B9B0873
:10C0B8000A4306339B00C31804331A602BE0184A5E
:10C0C8006B4607331B785BB29B08C0339B009B58B9
:10C0D8006A4607321278110003220A40D200FF2173
:10C0E80091400A00D2431A401100009B9B01FF2295
:10C0F8001A406B4607331B78180003230340DB0004
:10C108009A4007486B4607331B785BB29B080A4383
:10C11800C0339B001A50C04602B010BD00ED00E0CD
:10C1280000E100E082B00190019B032213405A42D3
:10C138005341DBB2180002B07047000084B0019090
:10C148000C4B0393019B002B11D00B4B1A680399DE
:10C15800019BC046C046C046C046C046C046C04611
:10C16800C0468A4200D0C046013BF2D10193C04686
:10C1780004B070470024F400D433002000B583B025
:10C1880001900649A123DB00019ACA50032111201E
:10C19800FFF752FFC04603B000BDC0460010014083
:10C1A80010B50E49D1239B0080225202CA500B4978
:10C1B800C1239B0080225202CA501120FFF726FF9C
:10C1C8001120FFF7E1FE054B01221A602F20FFF72F
:10C1D800B5FF034B01221A70C04610BD0010014084
:10C1E800F034002010B51120FFF7E4FE0F49D223E8
:10C1F8009B0080225202CA500C49C2239B00802215
:10C208005202CA50094B01225A602F20FFF796FFAD
:10C21800064B01229A60064B00221A602F20FFF776
:10C228008DFF044B00221A70C04610BD001001405B
:10C23800DC340020F0340020024A034BD3581800A5
:10C248007047C046001001400405000082B001900C
:10C258000091019A009BD31A1B021B0A180002B016
:10C268007047000082B001900349A823DB00019ABF
:10C27800CA50C04602B070470010014086B0019015
:10C28800284B1B68002B03D1264B019A1A6045E006
:10C29800019B1A68234B1B681B689A4210D8214BD4
:10C2A8001B681968019B1A681E4B1B688A1A1A605A
:10C2B8001C4B1A68019BDA611A4B019A1A602DE02F
:10C2C800019B1B680393174B1B680593154B1B6851
:10C2D800049309E0049B1B68039AD31A0393049BF5
:10C2E8000593049BDB690493049B002B04D0049BF7
:10C2F8001B68039A9A42EDD8049B002B05D0049B37
:10C308001A68039BD21A049B1A60019B039A1A604D
:10C31800019B049ADA61059B019ADA61C04606B06E
:10C328007047C046D834002086B00190214B1B6866
:10C338000593059B049308E0049A019B9A4208D050
:10C34800049B0593049BDB690493049B002BF3D1A6
:10C3580000E0C046049B002B29D0059A049B9A4212
:10C3680011D1144B1B68DA69124B1A60114B1B6808
:10C37800002B08D1104B01229A60104B00221A6042
:10C388000F4B01221A70049B1B680393049BDA6904
:10C39800059BDA61059BDB690493049B002B07D09E
:10C3A800049B1A68039BD218049B1A6000E0C046DD
:10C3B80006B07047D834002000100140DC3400205B
:10C3C800F134002010B51120FFF70AFEC04610BD59
:10C3D80010B51420FFF704FEC04610BD00B585B0A7
:10C3E8000190124B1B68002B17D0104B1A68019B49
:10C3F8005869019B9B691900904703000393039BAD
:10C408000293029B002B0ED0094A6A23FF331900BE
:10C41800029B1800FFF79EFD05E0019B5A69019BEE
:10C428009B6918009047C04605B000BDEC34002059
:10C4380090C2020000B585B02B4B1B68002B50D072
:10C4480000230193FFF7F8FE0200284B1B68190030
:10C458001000FFF7FBFE03000293234B1B680393B6
:10C468001EE0039B1B68029A9A421DD3039B1B681C
:10C47800029AD31A0293039B1B68019AD31801935B
:10C48800039B0093039BDB690393009B1B7C002B9E
:10C4980006D0009B00221A74009B1800FFF79EFF2D
:10C4A800039B002BDDD100E0C046114B1A78114BDD
:10C4B8001B789A420CD10F4B1B780133DAB20D4B23
:10C4C8001A700C4B1B78022B02D10A4B00221A70EF
:10C4D800084B1B781A00084B92000199D150FFF7BE
:10C4E80077FFC04605B000BDD8340020DC340020FA
:10C4F800E8340020E9340020E034002082B00190C4
:10C50800184B1A78184B1B789A4223D0154B1B7876
:10C518000133DAB2134B1A70124B1B78022B02D17B
:10C52800104B00221A700F4B1B781A000F4B920009
:10C53800D258019B1A60019B1A680D4B1B68D218D0
:10C548000B4B1A600A4B1B681B021A0A084B1A602D
:10C55800012303E0019B00221A600023180002B0A7
:10C568007047C046E8340020E9340020E034002059
:10C57800DC34002000B585B00F236B44284A1278BC
:10C588001A70284B1B68029339E0254B59680F2312
:10C598006B441A7813005B009B18DB00CB180193DF
:10C5A8000F236B441A780F236B4401321A701C4B0B
:10C5B8009B780F226A4412789A4203D10F236B4466
:10C5C80000221A70019B1B78022B02D0032B10D07B
:10C5D80014E0019B5B681800FFF7A6FE0FE0114B03
:10C5E8001B680093009B00221A74009BDA690D4BAC
:10C5F8001A600C4B1B68002BF1D100E0C046084BB9
:10C608005B780F226A4412789A42BED1054B1B68A8
:10C61800029AD31A5A1E9341DBB2180005B000BD26
:10C62800D0340020D834002088B0039002910192C1
:10C638000023079338E0204B1B680693069B1B6872
:10C64800039A9A4206D2069B1A68039BD21A069B43
:10C658001A602DE0069B1B68039AD31A0393069B66
:10C668001B68079AD3180793069B00221A60124B7F
:10C678001B680593069BDA690F4B1A60069BDB68FB
:10C68800002B11D0029A079BD3181B021A0A069B8B
:10C698005A60069BDA68069B9A60019B1A68069B9B
:10C6A800DA61019B059A1A60034B1B68002BC2D103
:10C6B800C04608B07047C046D834002000B587B0DF
:10C6C8000190504B1B68049387E0019B002B05D019
:10C6D800019B0593059BDB6901933CE04A4B5A6833
:10C6E800494B1B7819000B005B005B18DB00D31863
:10C6F8000393454B1B780133DAB2434B1A70424B14
:10C708001A78414B9B789A4202D13F4B00221A700B
:10C71800039B5B680593039B1B78012B5DD1059BED
:10C728001B7C002B00D058E0039B9A68059B5A603D
:10C73800039BDA68059B9A60039B1A69059BDA607C
:10C74800039B5A69059B9A61304B1B78002B02D0DA
:10C75800059B00225A60059B5A682D4B1B68D31A0B
:10C768001B021B0A2B4A93420ED8059B5A68284B7A
:10C778001B6819001000FFF769FD0200059B9B6804
:10C78800D218059B1A6018E0214B1A68059B5B6854
:10C7980019001000FFF75AFD03000293059B9B68E0
:10C7A800029A9A4206D2059B9A68029BD21A059B66
:10C7B8001A6002E0059B00221A60059B00225A605D
:10C7C800059B00229A60059B01221A74059B002292
:10C7D800DA61059B1800FFF751FD019B002B00D083
:10C7E80073E7094B1A78084B5B789A4200D06CE7DC
:10C7F800044B1B68049AD31A5A1E9341DBB21800E3
:10C8080007B000BDD8340020D0340020F134002017
:10C81800DC340020FEFF7F0010B588B001902B4B60
:10C828001B68002B4DD0294B1B681B680793FFF72B
:10C8380003FD03000693264B1B680593059A069B88
:10C8480011001800FFF702FD030003330493214B86
:10C858001B7801225340DBB2002B01D0FFF7A0FC6C
:10C86800079A049B934200D21300059AD3180593A4
:10C87800059B1B021B0A0593059B1800FFF7F2FC9A
:10C88800FFF7DAFC03000393069A039B11001800D4
:10C89800FFF7DCFC0300DC1C069A059B110018005E
:10C8A800FFF7D4FC03009C420DD9FFF7C5FC030039
:10C8B8001800FFF7D7FC2F20FFF740FCFFF782FD99
:10C8C80001E0FFF78FFCC04608B010BDD834002047
:10C8D800DC340020F034002010B586B0002301932A
:10C8E8001D4B1B6804931D4B1B6803930B246C445E
:10C8F8006B461800FFF702FE0300237017246C44F0
:10C90800FFF738FE030023700B236B441B78002BC2
:10C9180009D0009B01AA04991800FFF785FE172388
:10C928006B4401221A70019B1800FFF7C7FE031E13
:10C9380003D017236B4401221A7017236B441B780A
:10C94800002B03D0039B1800FFF766FF044B00225F
:10C958001A70C04606B010BDDC340020D834002060
:10C96800F134002082B002006B4607331A70044B82
:10C978006A46073212785A70C04602B07047C046FD
:10C98800D034002084B00190164B5A780F236B44A2
:10C9980001321A70134B9B780F226A4412789A421C
:10C9A80003D10F236B4400221A700E4B1B780F2201
:10C9B8006A4412789A4201D1002310E0019B0F22A9
:10C9C8006A4412781A70074B5A68064B5B7819004C
:10C9D8000B005B005B18DB00D3180293029B180066
:10C9E80004B07047D034002000B589B0039002919C
:10C9F8000192009300230793002000F08BF917237E
:10CA08006B441800FFF7BEFF03000693069B002B3C
:10CA180002D10423079319E0069B01221A70069B92
:10CA2800039A5A60FFF708FC0200069B9A60069B6F
:10CA3800029ADA60069B019A1A61069B009A5A616B
:10CA480017236B441B781800FFF78CFF002000F0B9
:10CA580069F9079B002B01D1FFF7BAFC079B180067
:10CA680009B000BD00B587B001900A006B460333DA
:10CA78001A7000230593002000F04CF90F236B4433
:10CA88001800FFF77FFF03000493049B002B02D1DB
:10CA9800042305930DE0049B6A46033212781A704A
:10CAA800049B019A5A600F236B441B781800FFF708
:10CAB80059FF002000F036F9059B002B01D1FFF744
:10CAC80087FC059B180007B000BD000010B5114A8F
:10CAD800A0235B000021D1500E4AA2235B00002155
:10CAE800D1500C4AA4235B000021D150094AA62347
:10CAF8005B000021D150074A80235B000021D15000
:10CB0800044A82235B000021D150FFF793FCC04602
:10CB180010BDC0460010014010B5FFF7DDFEC0464D
:10CB280010BD000000B585B00390019200930B235F
:10CB38006B440A1C1A70019B1800FFF7F3FA0300F4
:10CB48001A0001235340DBB2002B01D0072334E045
:10CB5800019B002B01D107232FE0FFF743FB184B64
:10CB6800009A1A60174B00221A70164B00225A704E
:10CB7800144B0B226A4412789A70124B019A5A602D
:10CB8800114B00221A60114B00221A70104B002220
:10CB98001A701420FFF73AFA03211420FFF74CFA11
:10CBA8001420FFF7F1F9039B1800FFF7E7FAFFF7E6
:10CBB80043FB0200074B1A600023180005B000BDB4
:10CBC800EC340020D0340020D8340020E834002091
:10CBD800E9340020DC34002086B0039001920B2356
:10CBE8006B440A1C1A70144B5B68002B01D1082394
:10CBF8001FE0019B002B01D107231AE0039B002BA8
:10CC080001D1072315E0039B1B681B7C002B01D077
:10CC180008230EE0039B1B680593059B00221A74EA
:10CC2800059B0B226A4412785A74059B019A5A6133
:10CC38000023180006B07047D034002000B587B034
:10CC4800039002910192039B0593144B5B68002BA0
:10CC580001D108231EE0039B002B01D1082319E012
:10CC6800029B042B01D8072314E0059B5B69002B6A
:10CC780001D108230EE0059B5B7C012B01D1029BAF
:10CC880000E000230493019B049A02990598FFF79A
:10CC9800ABFE0300180007B000BDC046D03400202A
:10CCA80000B585B00190019B03930D4B5B68002B89
:10CCB80001D1082311E0019B002B03D0039B5B6982
:10CCC800002B01D1082308E0039B00221A74039B60
:10CCD80002211800FFF7C6FE0300180005B000BDCA
:10CCE800D034002072B6034B1B685A1C014B1A60E3
:10CCF800C0467047F4340020054B1B685A1E044B8D
:10CD08001A60034B1B68002B00D162B6C0467047FF
:10CD1800F434002000B583B00190FFF7E3FFC0466C
:10CD280003B000BD00B583B002006B4607331A702C
:10CD3800FFF7E2FFC04603B000BD82B00190019B3F
:10CD4800032213405A425341DBB2180002B0704725
:10CD580082B002006B4607331A70064B1A786B468E
:10CD680007331B781343DAB2024B1A70C04602B07D
:10CD78007047C046F834002082B002006B46073383
:10CD88001A706B4607331B785BB2DB435BB2054A0C
:10CD9800127852B213405BB2DAB2024B1A70C04634
:10CDA80002B07047F834002082B002006B460733A7
:10CDB8001A70064B1B786A46073212781340DBB2AA
:10CDC8005A1E9341DBB2180002B07047F8340020B5
:10CDD80000B585B00190002303930FE00A4B039A36
:10CDE8009200D358002B06D0074B039A9200D358D1
:10CDF800019A10009847039B01330393039B072B69
:10CE0800ECD9C04605B000BDFC34002082B00190CA
:10CE18000091019B1B78062B4FD89A00294BD318F9
:10CE28001B689F46009B00221A7047E0009B012266
:10CE38001A70019B1A89009B9A81019B9A88009B12
:10CE4800DA81019BDA68009B9A6037E0009B022236
:10CE58001A70019B1A89009B9A81019B9A88009BF2
:10CE6800DA81019BDA68009B9A60019B1B7C063B78
:10CE78005A425341DAB2009B1A741FE0009B032206
:10CE88001A70019BDA88009B9A81019B1A89009B82
:10CE9800DA81019BDA68009B9A600FE0009B04220C
:10CEA8001A70019BDA88009B9A81009B0022DA8124
:10CEB80004E0009B05221A7000E0C046C04602B09C
:10CEC8007047C046F0C2020082B00190019B9B8867
:10CED800084A934205D0019B1B88002B01D00123EF
:10CEE80000E000231A1C01231340DBB2180002B033
:10CEF8007047C046FFFF000000B583B00190019B5A
:10CF0800002B11D00C4B1B68019A9A420CD30A4B88
:10CF18005B68019A9A4207D8019B1800FFF70DFF3A
:10CF2800031E01D0012300E000231A1C0123134033
:10CF3800DBB2180003B000BDB033002000B585B0E7
:10CF4800019000910023039313E0039BDB00019AF7
:10CF5800D3181B681800FFF7F0FE03001A0001231E
:10CF68005340DBB2002B01D0002307E0039B0133C1
:10CF78000393039A009B9A42E7D30123180005B054
:10CF880000BD000082B00190019B1B680A4A9342D1
:10CF980001D003230DE0019B04331B68074A934229
:10CFA80004D0074A934203D1012302E0002300E0A2
:10CFB8000323180002B07047DEC0ADDEFE011EF18B
:10CFC800FF011EF184B00190002303930BE0039B43
:10CFD8009B00019AD3181B68013301D0002306E097
:10CFE800039B01330393039BFF2BF0D90123180004
:10CFF80004B0704782B002006B4606331A8001AB5A
:10D008000A1C1A806B4606331B88104A1B01D3186A
:10D018000833198801AB01AA12888A181A806B464E
:10D0280006331B88094A1B01D3180A33198801AB38
:10D0380001AA12888A181A8001AB1A88FF210023D6
:10D0480091425B41DBB2180002B07047E035002026
:10D0580084B0019000910A2303930A236B440022B1
:10D068001A8028E00A236B441B88174A1B01D3182F
:10D0780004331B68009A9A4216D90A236B441B880A
:10D08800114A1B01D31804331B688022D20094462E
:10D098006344009A9A4207D200230393019B0A2211
:10D0A8006A4412881A800BE00A236B441A880A2300
:10D0B8006B4401321A800A236B441B88012BD1D997
:10D0C800039B180004B07047E035002000B589B014
:10D0D800039002910192039B8022D20094466344FC
:10D0E80006931F236B4400221A70039B0833039393
:10D0F800029B02221A802CE0039B0593059B1800D3
:10D10800FFF7E2FE03001A0001235340DBB2002BB5
:10D1180004D01F236B4401221A7009E0059B9A680A
:10D12800154B1B689A4203D9059B9A68124B1A60E3
:10D13800059B5B8803339B00039AD3180393029BD8
:10D148001A88059B5B88D3189BB203339AB2029B5B
:10D158001A80039A069B9A4203D2039B1B680133E9
:10D16800CAD1019B002B04D0019B1F226A4412786C
:10D178001A70C04609B000BD1C35002082B001906D
:10D188000A006B4602331A80019B1A896B460233E8
:10D198001B88D3189BB203339AB2019B1A81019B57
:10D1A8005A896B4602331B88D31A9BB2033B9AB247
:10D1B800019B5A81C04602B07047000000B583B099
:10D1C800064B1968064A074800230093022301F01A
:10D1D800CBFE0300180003B000BDC0460036002097
:10D1E800B4C30200B033002000B585B00390064AEE
:10D1F8000399064800230093022301F0B5FE0300BB
:10D20800180005B000BDC046BCC30200B033002002
:10D2180000B585B0020000916B4606331A800F23D3
:10D228006B4400221A700A236B446A46063212883D
:10D2380003321A800A236B441B88FD2B01D909236A
:10D2480043E003AB00221A8033E003AB1A88204B7B
:10D258001201D35C002B27D10A236B441A8803AB35
:10D268001B8811001800FFF7C5FE031E1CD00F23F2
:10D278006B4401221A70009B03AA12881A8003AB20
:10D288001B88134A1B01D3180A33198803AB1B8860
:10D298000A226A4412888A1891B20D4A1B01D318CF
:10D2A8000A330A1C1A8008E003AB1A8803AB013260
:10D2B8001A8003AB1B88012BC7D90F236B441B783B
:10D2C800002B01D0002300E00723180005B000BDA3
:10D2D800E035002082B002006B4606331A8001ABAD
:10D2E8000A1C1A8001AB1B880B4A1B01D3180A338E
:10D2F8001A886B4606331B88D31A9AB201AB1B886F
:10D30800033A91B2044A1B01D3180A330A1C1A8043
:10D31800C04602B07047C046E0350020044B1B6889
:10D328005A1C034B1A60024B1B6818007047C04612
:10D338001C35002000B585B0020000916B4606330D
:10D348001A80009B1B680393039B002B09D0039B47
:10D358000293029B5B8803339B00039AD3180393C1
:10D368001EE06B4606331B88194A1B01D318043389
:10D378001B680833039313E0039B0293029B180076
:10D38800FFF7A2FD031E04D0009B039A1A60012335
:10D398001AE0029B5B8803339B00039AD31803931C
:10D3A8006B4606331B880A4A1B01D31804331B68D3
:10D3B8008022D20094466344039A9A4203D2039B84
:10D3C8001B680133D8D10023180005B000BDC04642
:10D3D800E035002000B585B001900091019B5B68A5
:10D3E8001800FFF789FD031E18D0019B1A89234BEB
:10D3F8001B899A4212D1019B1A68019B5B689B6842
:10D408009A420BD1019B5A68009B11001800FFF744
:10D418001FFE03005A425341DBB22BE0009B00225F
:10D428001A8022E00023029310E0029B0393039BDF
:10D438009A68019B1B689A4208D1029A019B5A601C
:10D448000E4B1A89019B1A81012313E0009B1B884C
:10D4580002AA11001800FFF76DFF031EE5D1009B1B
:10D468001B8801339AB2009B1A80009B1B88012BF2
:10D47800D8D90023180005B000BDC04608360020E2
:10D4880000B587B003900291019200930220FFF744
:10D498008BFC03001A0001235340DBB2002B01D0A0
:10D4A80002234EE0019B002B02D0009B002B43D1AE
:10D4B800052346E0009B9B881A00234B1201D35C8E
:10D4C800002B32D124E0009B1B680593039B002BA3
:10D4D80006D0059B9A88039B1B889A4200D017E0C8
:10D4E800029B002B06D0059B1A88029B1B889A4238
:10D4F80000D00DE0059B9A68019B1A60009B1A6892
:10D50800019B5A60114B1A89019B1A81002318E06C
:10D51800009B9B88009A11001800FFF70BFF031E61
:10D52800D1D1009B00221A6000E0C046009B9B8876
:10D5380001339AB2009B9A80009B9B88012BB9D932
:10D548000A23180007B000BDE03500200836002087
:10D5580010B5124B1A6F1300DB009B1A9B000F4A81
:10D568009B181C22002118000EF039FB0B4B5B6F37
:10D57800002B0BD0094B1B6F013303221A40074BBA
:10D588001A67064B5B6F5A1E044B5A67034B5B6F57
:10D598005A1E9341DBB2180010BDC046203500204A
:10D5A80082B00190019B1A68074B9A4206D0019BF2
:10D5B8001B6808331A00019B1A6002E0019B034AAA
:10D5C8001A6002B07047C046D03500209835002058
:10D5D80082B001900C4B5B6C002B12D00A4B1B6C79
:10D5E800DA00094BD218019B1A60074B1B6C0133F8
:10D5F80007221A40044B1A64034B5B6C5A1E024BF9
:10D608005A64C04602B070479835002082B0019035
:10D61800019B1B78022B03D0019B1B78032B0DD198
:10D62800084B1B6C019A927D9A18064B1A64054B9D
:10D638005B6C019A927D9A1A024B5A64C04602B0FA
:10D648007047C0469835002010B588B00390029105
:10D6580001921F236B4400221A702D4B5B6F032B22
:10D6680050D82C4B5A6C029B0821CB1A9A4249D8A5
:10D67800274B5A6F264B1B6FD31803221340059371
:10D688002349059A1300DB009B1A9B00039ACB18C9
:10D6980013CA13C313CA13C312681A601C4B5B6FF7
:10D6A8005A1C1B4B5A67029B002B27D0194B5A6CEC
:10D6B800184B1B6CD318072213400593059BDA00FF
:10D6C800144BD3180493002306930DE0069BDB004C
:10D6D800019AD218049B03CA03C304AB1800FFF7CE
:10D6E8005FFF069B01330693069A029B9A42EDD38D
:10D6F800084B5A6C029BD218064B5A641F236B4482
:10D7080001221A701F236B441B78180008B010BD43
:10D71800203500209835002010B586B000230593E9
:10D7280012236B4400221A8011236B4400221A70C2
:10D738000E236B4400221A80D8E0724B1A680E231D
:10D748006B441B889B02D31802936B46DC1D029B1B
:10D758001800FFF717FC030023706B4607331B788C
:10D76800012B00D181E0032B02D0002B4CD0B6E076
:10D77800029B1800FFF726FC031E38D0624B1B687B
:10D78800002B25D012236B441A88604B120102210A
:10D79800D15412236B441B885C4A1B01D3180433F1
:10D7A800029A1A6012236B441B88584A1B01D3182B
:10D7B800083302221A80564B12226A4412885A8071
:10D7C80012236B441A8812236B4401321A8009E031
:10D7D8004D4B029A1A604C4B02229A8011236B44DB
:10D7E80001221A70059B01221343059377E0122347
:10D7F8006B441B8812226A44591C11801A00434B3F
:10D8080012010321D1546AE012236B441A883F4B5A
:10D8180012010021D15412236B441B883B4A1B017F
:10D82800D3180433029A1A6012236B441B881B0115
:10D8380008331A00354BD11812236B441B881B017F
:10D8480008331A00314BD3189A1D029B1800FFF7B2
:10D858003DFC059B02221343059312236B441A884F
:10D8680012236B4401321A8039E011236B441B7870
:10D87800002B20D012236B441A88244B120102215A
:10D88800D15412236B4418881F4B1A681F4903018F
:10D89800CB1804331A6012236B441B881B4A1B01E4
:10D8A800D318083302221A8012236B441A881223D1
:10D8B8006B4401321A80144B029A1A601549029B74
:10D8C80000221800FFF702FC0F4B9B88022B01D1A6
:10D8D800042300E00823059A13430593C0460E234A
:10D8E8006B441A880E236B4401321A800E236B4452
:10D8F8001B88022B00D820E7059BDBB2180006B076
:10D9080010BDC046B033002000360020E0350020AE
:10D91800083600200436002000B587B00390029135
:10D92800039B1A1D02990A4800230093012301F062
:10D938001BFB03000593039B02221A74059B002B13
:10D9480001D1002300E00E23180007B000BDC04637
:10D95800B033002000B587B003900291029B0833D2
:10D968001900039B0C331A000C4800230093012371
:10D9780001F0FAFA03000593039B9B7D002B01D06D
:10D98800032200E00122039B1A74059B002B01D19E
:10D99800002300E00E23180007B000BDB0330020BC
:10D9A80000B587B003900291029B191D039B0833B1
:10D9B8001A000D4800230093012301F0D5FA030053
:10D9C8000593039B1B78032B01D1052200E0062257
:10D9D800039B1A74059B002B01D1002300E00E2342
:10D9E800180007B000BDC046B033002010B586B09F
:10D9F80003900A000A236B441A8017246C440F4AC8
:10DA080003990F4800230093012301F0ADFA0300A6
:10DA1800237017236B441B78002B01D00E2309E0D9
:10DA28000A236B441B88074A1B01D3180E330122B3
:10DA38001A700023180006B010BDC046ECC20200E0
:10DA4800B0330020E035002000B589B0019002AB6A
:10DA580018000C231A0000210EF0C1F8019BDA68A7
:10DA680002AB1A6016226A4402AB11001800FFF7D5
:10DA7800B1FC031E16D002AB5B680693069B9A881E
:10DA8800019BDA80069B1A88019B1A8102AB5A68AF
:10DA980016236B441B8819001000FFF7A7FF03002B
:10DAA800079301E00A230793079B180009B000BDFC
:10DAB80000B587B00190019B981D0F4B02AA002169
:10DAC800FFF7DEFC03000593059B002B0AD102AB90
:10DAD8005A68094B9B8819001000FFF787FF03005D
:10DAE800059305E0044B0822002118000EF077F892
:10DAF800059B180007B000BD1836002010B586B089
:10DB0800039002910023049304AB1800FFF760FD13
:10DB1800039B9B8A9B00029AD118049B1A68049B5A
:10DB28009C88134800230093230001F01DFA03008A
:10DB38000593039B9A8A049B9B88D3189AB2039BEC
:10DB48009A82039B9B7D013BDAB2039B9A75039BE8
:10DB58009B7D002B02D1039B01221A74059B002B8D
:10DB680001D1002300E00E23180006B010BDC04606
:10DB7800B033002082B0184B1B8901339AB2164B80
:10DB88001A81154B00225A80134B00221A736B46D8
:10DB9800063300221A8016E06B4606331A880F4BAC
:10DBA8001201D25C6B4606331B8851424A41D1B2FE
:10DBB800094AD3180A1C9A726B4606331A886B46B0
:10DBC800063301321A806B4606331B88012BE3D9D2
:10DBD800C04602B07047C04608360020E035002035
:10DBE80084B001900F236B4400221A7003AB00220B
:10DBF8001A802CE003AB1B881A4AD3189B7A002B97
:10DC080020D003AB1B88174AD31800229A7203ABA3
:10DC18001B88154A1B01D3180C331B88002B11D104
:10DC280003AB1B88104A1B01D3180E331B78002B3B
:10DC380008D0019B03AA12881A800F236B44012283
:10DC48001A7008E003AB1A8803AB01321A8003ABE1
:10DC58001B88012BCED90F236B441B78180004B006
:10DC68007047C04608360020E035002010B5084B44
:10DC780005221A70074B02229A80064B196806483B
:10DC88000023012201F0E2F90300180010BDC0468C
:10DC98000836002000360020B033002000B583B0DD
:10DCA8006B460233134A52881A806B4602331B882C
:10DCB800114A1B01D3180C331B88002B12D16B4659
:10DCC80002331B880C4A1B01D318043319680B480C
:10DCD8000023012201F0BAF903000193054B042245
:10DCE8001A7003E0FFF7C2FF03000193019B1800BD
:10DCF80003B000BD08360020E0350020B033002016
:10DD080010B586B0114B5B680593114B1A68104B20
:10DD18009B889B00D3180493059B5A880E236B4459
:10DD280003321A80094B03221A70084B5A680E23D3
:10DD38006B441C880499074800230093230001F0D2
:10DD480013F90300180006B010BDC04608360020BD
:10DD580000360020B033002000B583B00A4B5B8842
:10DD68000A4A11001800FFF7E5FA031E04D0FFF76E
:10DD7800C7FF0300019303E0FFF790FF030001933F
:10DD8800019B180003B000BD083600200C360020A7
:10DD980010B5084B06221A70064B5B88064A1B0111
:10DDA800D31804331B681800FFF71EFA0300180085
:10DDB80010BDC04608360020E035002010B5054BE0
:10DDC80007221A70034B00225A60FFF7F7F9030085
:10DDD800180010BD0836002010B50D4B1800FFF7CD
:10DDE800FFFE03001A0001235340DBB2002B0AD0C8
:10DDF800084B00221A70074B00225A80054B00225C
:10DE08005A60054B02E0FFF7A7FF0300180010BD9A
:10DE18000A360020083600201D1D000082B00A4B7B
:10DE28005B680193019B5A886B46023303321A8060
:10DE3800064B9A886B4602331B88D3189AB2034B59
:10DE48009A80C04602B0704708360020003600208D
:10DE580082B0124B1B680193114B5B88114A1B015E
:10DE6800D31804331A680D4B1A600D4B5B880D4AA2
:10DE78001B01D3180433019A1A60094B5B881800F8
:10DE8800064B9988074A0301D31808330A1C1A80DD
:10DE9800024B02229A80C04602B07047003600202A
:10DEA80008360020E035002010B5134B1B78072BEF
:10DEB8001ED89A00114BD3181B689F46FFF75AFECD
:10DEC8000D4B01221A7014E0FFF7A8FF0A4B02223B
:10DED8001A700EE0FFF7BCFF074B06221A7008E025
:10DEE800054B07221A7004E0034B01221A7000E068
:10DEF800C046C04610BDC046083600200CC302000C
:10DF080000B587B0019000910F230593019B002B6A
:10DF180004D00120FEF730FF0123A8E0009B1B7905
:10DF2800012B10D002DC002B05D097E0022B49D042
:10DF3800032B57D092E0FFF741F903000593009BAC
:10DF480001221A718AE013236B4400221A7004AB71
:10DF580000221A8022E004AB1A88464B1201D35CD7
:10DF6800022B16D104AB1B88424A1B01D318043379
:10DF78001B681800FFF738F90300059304AB1A88EB
:10DF88003C4B12010021D15413236B4401221A7017
:10DF980008E004AB1A8804AB01321A8004AB1B8872
:10DFA800012BD8D913236B441B7801225340DBB2D1
:10DFB800002B52D00220FEF7CBFE0120FEF7DCFE3C
:10DFC8002D4B54E02D4B19682D480023012201F0F8
:10DFD8003DF803000593294B02229A80009B0022FA
:10DFE8001A713BE0254B1B681800FFF7FDF803008A
:10DFF80005930E236B44234A52881A801F4B1B68D3
:10E0080002930E236B441B881A4A1B01D31804334E
:10E018001A681A4B1A600E236B441B88154A1B0199
:10E02800D3180433029A1A600E236B441B88134AD0
:10E038009188104A1B01D31808330A1C1A800F4B09
:10E0480002229A800E236B441A880A4B120100217F
:10E05800D154009B00221A7100E0C046059B002B9A
:10E0680004D00120FEF788FE0E2300E000231800EC
:10E0780007B000BDE03500201D1D0000003600205F
:10E08800B03300200836002000B587B00190009119
:10E09800009B5B8A1A013D4BD3180493019B002B0C
:10E0A80008D0009BDA88049B11001800FFF766F877
:10E0B800012368E0049B5A68049B1B899B00D318C2
:10E0C8000393009B1B7C062B4FD89A00304BD31828
:10E0D8001B689F462F4B00225A60009B9A692D4B64
:10E0E8001A602D4A2B4B11001800FFF773F9030033
:10E0F8001A0001235340DBB2002B01D00A2342E06F
:10E10800039A009B11001800FFF706FC0300059313
:10E118002EE0039A009B11001800FFF71BFC030078
:10E12800059325E0039A009B11001800FFF7E6FC11
:10E13800030005931CE0039A009B11001800FFF7E9
:10E148002FFC0300059313E0124B5A68124B1B88EF
:10E1580019001000FFF74AFC03000593009B0622F4
:10E168001A7405E00D4B059302E00F230593C04692
:10E17800059B002B06D0009BDA88049B1100180031
:10E18800FEF7FCFF059B180007B000BDE035002036
:10E198002CC30200203600202C3600201D1D000054
:10E1A80000B585B001900091019B002B01D001239F
:10E1B80025E0009B1B79012B0DD0022B17D0002BDB
:10E1C80018D1009B1800FFF73FFC03000393009B46
:10E1D80002221A7112E0009B1800FFF769FC030085
:10E1E8000393039B0A2B08D1064B039305E0054BC9
:10E1F800039303E00F23039300E0C046039B18003A
:10E2080005B000BD1D1D000000B585B00190019B43
:10E21800002B01D0012334E01B4B1B7B002B03D0C8
:10E22800194B00221A7301E0FFF73EFE164B1B78CC
:10E23800072B22D89A00154BD3181B689F46FFF767
:10E24800CBFD030003931BE0FFF786FD0300039358
:10E2580016E0FFF755FD0300039311E0FFF71EFDDD
:10E26800030003930CE0FFF793FD0300039307E01B
:10E27800FFF7A4FD0300039302E00F230393C046B6
:10E28800039B180005B000BD0836002048C30200F3
:10E2980000B58BB002006B4607331A70344B1A6F07
:10E2A8001300DB009B1A9B00314A9B180893089BBC
:10E2B8001B78062B2ED89A002E4BD3181B689F4626
:10E2C8006B4607331B78089A11001800FFF718FEF1
:10E2D8000300099321E06B4607331B78089A110065
:10E2E8001800FFF7D1FE0300099316E06B460733C9
:10E2F8001B78089A11001800FFF752FF03000993D2
:10E308000BE06B4607331B781800FFF77DFF03000F
:10E31800099302E00F230993C046099B002B23D0E1
:10E32800099B154A934203D103AB00225A6006E0C9
:10E3380003AB099A5A60089B1800FFF767F903AA0C
:10E34800089B11001800FEF761FD03AB1800FEF7EB
:10E358003FFDFFF7FDF8031E03D00020FFF798FFED
:10E3680002E00420FEF708FDC0460BB000BDC04621
:10E378002035002068C302001D1D000010B50420D0
:10E38800FEF712FD03001A0001235340DBB2002BF5
:10E3980005D00420FEF7DCFC0020FFF779FFC0461B
:10E3A80010BD00B583B001900A006B4603331A70A4
:10E3B8006B4603331B781800FFF76AFFC04603B0AB
:10E3C80000BD000000B591B00390029101921A00BF
:10E3D8006B4603331A7036236B4400221A803E239F
:10E3E8006B4400221A800220FEF7DEFC03001A00AC
:10E3F80001235340DBB2002B01D00223BEE0029B75
:10E40800002B01D10523B9E0029B1B885D4A93428A
:10E4180003D0029B5B88002B01D10423AEE0029B52
:10E428005A68029B1B8919001000FEF787FD03003C
:10E438001A0001235340DBB2002B01D003239DE0D7
:10E44800019B002B28D100230E930FE0029B5A68F2
:10E458000E9BDB00D31899883E236B443E226A4406
:10E4680012888A181A800E9B01330E93029B1B890F
:10E478001A000E9B9342E9D312226A443E236B444E
:10E488001B8811001800FEF7C3FE03000C930C9BB9
:10E49800002B0BD00C9B71E0019B1A8812236B4454
:10E4A8001A803E236B44019A52881A8005AB6A464B
:10E4B800033212781A7005AB00221A7412236B44C7
:10E4C8001A8805AB5A82029B1B89DAB205AB9A758A
:10E4D80005AB03229A82FEF721FF020005ABDA6042
:10E4E800029B1A8805AB1A81029B5A8805AB9A8051
:10E4F80005AB3E226A441288DA806B4603331B78E8
:10E50800032B06D105AB04221A74039B1A6805ABCA
:10E518009A6105AB36226A4412885A81029B1B898C
:10E528001900029B5A6805AB1800FFF78DF8030025
:10E538001A0001235340DBB2002B0BD012236B448B
:10E548001A883E236B441B8811001800FEF7C2FE90
:10E55800082313E0039B002B0DD0039B00225A6075
:10E5680005ABDA68039B1A60039B00229A72064B7C
:10E578001A89039B1A81FFF701FF0023180011B0C5
:10E5880000BDC046FFFF00000836002084B001909F
:10E598000C4B1B78082B02D10C2303930EE0094B7C
:10E5A8001B781A00084B92000199D150054B1B7833
:10E5B8000133DAB2034B1A7000230393039B18004C
:10E5C80004B07047F9340020FC34002010B58EB038
:10E5D80008AB180014231A0000210DF000FB0220DC
:10E5E800FEF7E2FB031E05D008AB1800FEF7F0FBB0
:10E5F800002346E00120FEF7D7FB031E01D00023CD
:10E608003FE00120FEF7A4FB00F016FC01AB01225D
:10E618001A7037246C44FFF77FF803002370372300
:10E628006B441B780B2B22D89A00174BD3181B6806
:10E638009F460B2325E00220FEF78AFB0120FEF708
:10E648009BFB08AB1800FEF7C3FB002319E001ABE6
:10E6580000221A710CE001AB03221A7108E001AB29
:10E6680002221A7104E001AB01221A7100E0C046CF
:10E6780001AB002200211800FEF7E6FFFFF77EFE3F
:10E68800002318000EB010BD84C3020000B585B089
:10E6980001900091019B002B02D0009B002B01D11F
:10E6A80005232AE00A226A44019B11001800FEF79C
:10E6B80091FE031E20D0019B5B6803930A236B44E1
:10E6C8001B880F491A018A180C321288013291B23C
:10E6D8000B4A1B01D3180C330A1C1A80009B039A9F
:10E6E8001A60019B5B680C331A00009B5A60019BFF
:10E6F80001229A72002300E00A23180005B000BD29
:10E70800E035002000B585B00190019B002B01D1B8
:10E71800052332E00A226A44019B11001800FEF723
:10E7280059FE031E26D00A236B441B88144A1B017A
:10E73800D3180C331B88002B19D0019B9B7A002B14
:10E7480015D00A236B441B880D491A018A180C320C
:10E758001288013A91B20A4A1B01D3180C330A1CD9
:10E768001A80019B00229A720023039304E0062377
:10E77800039301E00A230393039B180005B000BD2F
:10E78800E035002000B585B001900A006B460233E1
:10E798001A800220FEF708FB03001A0001235340E9
:10E7A800DBB2002B01D002231DE0019B002B01D11D
:10E7B800052318E00A226A446B4602331B881100BD
:10E7C8001800FEF725FD03000393039B002B09D1D6
:10E7D8000A236B441A88019B1A80019B6A460232FD
:10E7E80012885A80039B180005B000BD00B585B09B
:10E7F80001900220FEF7D8FA03001A0001235340C3
:10E80800DBB2002B01D002232CE0019B002B01D1AD
:10E81800052327E0019B1B88022B01D9042321E053
:10E82800019B1B881A01114BD3180293029B5B8929
:10E838001A00019B5B880333D31A10D4019B5A88B2
:10E84800019B1B8819001000FEF744FD019B002264
:10E858001A80019B00225A800023039301E00423BD
:10E868000393039B180005B000BDC046E0350020A7
:10E8780000B583B00190009100990198022300220D
:10E88800FFF7A0FD0300180003B000BD00B585B078
:10E89800039002910192019B002B01D1052306E010
:10E8A800019A029903980223FFF78CFD03001800D0
:10E8B80005B000BD00B583B001900091019B002B0D
:10E8C80001D1052306E00099019803230022FFF7F0
:10E8D80079FD0300180003B000BD000000B58BB03F
:10E8E80002006B4606331A800220FEF75DFA030029
:10E8F8001A0001235340DBB2002B01D002231FE092
:10E908006B4606331B88104A934201D1042317E053
:10E9180003AB05221A7003AB01221A7103AB6A46D6
:10E9280006321288DA8003AB002200211800FEF7B5
:10E938008BFE031E03D0FFF721FD002300E0082310
:10E9480018000BB000BDC046FFFF000000B589B03D
:10E958000220FEF729FA03001A0001235340DBB214
:10E96800002B01D0022316E001AB06221A7001AB7E
:10E97800002200211800FEF767FE031E0AD0074B8D
:10E988001B78002B02D0054B01221A73FFF7F6FC07
:10E99800002300E00823180009B000BD0836002055
:10E9A80000B585B0029201930E236B44021C1A80B5
:10E9B80003AB0A1C1A80019B029A03A90E20684423
:10E9C800FEF75EFD0300180005B000BD00B585B078
:10E9D800029101920E236B44021C1A80019B029A39
:10E9E8000E2169440020FEF74BFD0300180005B016
:10E9F80000BD00B585B0029101920E236B44021C44
:10EA08001A80019B029A0E2068440021FEF738FD07
:10EA18000300180005B000BD82B001900091019B71
:10EA2800002B02D0009B002B01D1052304E0019BA1
:10EA38001A68009B1A600023180002B07047000093
:10EA480000B585B0039002910192064B1900012090
:10EA580002F04EFD02F0A0FCC04602F0A3FE031E29
:10EA6800FBD1FFDEC4C3020082B0074B5B69019390
:10EA7800019B013304D180235B055B699B0200E0A5
:10EA8800019B180002B070470010001029DF704782
:10EA9800C046180028DF7047C046180000B587B088
:10EAA80001900A006B4603331A7002AB1022002152
:10EAB80018000DF094F8019B1B7A012B02D0022B51
:10EAC8000CD01BE002AB00221A70019B1A6902AB42
:10EAD8009A60019B9A8A02AB9A810FE002AB0122ED
:10EAE8001A70019B9A89019BDB89D31A9AB202ABEF
:10EAF8001A81019B9A8902AB5A81C046019B5A68C8
:10EB080002AB5A60019B1B689B686A460332117806
:10EB180002AA10009847C04607B000BD82B0019015
:10EB2800019B002B09D0019A064B9A4205D3019A02
:10EB3800054B9A4201D2012300E00023180002B0DD
:10EB48007047C046B0330020C033002000B585B000
:10EB58000190019B9B8A1A00019BDB8AD31AFF2B29
:10EB680008DC019B998A019BDA8A0E236B448A1A76
:10EB78001A8004E00E236B44802252001A80019B05
:10EB88001A69019BDB8A9B00D018019BDA68019BFC
:10EB9800DB8A9B00D1180E236B441B881A00FFF7F1
:10EBA80075FF0300180005B000BD00B583B00190E3
:10EBB800019B9B891800FFF76DFF0300180003B045
:10EBC80000BD00000E4B5B6E5A1E0D4B5A660C4B77
:10EBD8005B6E002B06D10B4B1B7802229343DAB2F3
:10EBE800084B1A70064B1B6E5A1C054B1A66044BD1
:10EBF8001B6E042B02D1024B00221A66C0467047D6
:10EC0800303600202E36002000B583B0204B1A6E17
:10EC180013005B009B18DB001D4A9B1800931C4BDC
:10EC28005B6E002B31D0009B1B7A012B02D0022B8C
:10EC380007D00DE0009B1800FFF788FF0300019341
:10EC480009E0009B1800FFF7B0FF0300019302E002
:10EC580009230193C046019B112B0ED10D4B1B7844
:10EC680002229343DAB20B4B1A700A4B1B78042228
:10EC78001343DAB2074B1A7007E0019B002B04D04C
:10EC8800009B09211800FFF709FFC04603B000BD2B
:10EC9800303600202E36002010B50B4B1B781A009A
:10ECA800022313400ED1084B1B781A00042313408B
:10ECB80008D1054B1B7802221343DAB2024B1A70B3
:10ECC800FFF7A2FFC04610BD2E36002000B585B064
:10ECD80001902B4B00221A70019B1B7A012B02D04A
:10ECE800022B2DD049E0019B9B8A1A00019BDB8AED
:10ECF800D31AFF2B08DC019B998A019BDA8A0E2321
:10ED08006B448A1A1A8004E00E236B448022520056
:10ED18001A80019BDA8A0E236B441B88D3189AB297
:10ED2800019BDA82019BDA8A019B9B8A9A4221D154
:10ED3800019B00211800FFF7B1FEFFF743FF19E020
:10ED4800019B9B8901339AB2019B9A81019BDB89C4
:10ED580001339AB2019BDA81019BDA89019B1B8AF4
:10ED68009A4209D1019B00211800FFF797FEFFF78F
:10ED780029FF01E0C04600E0C046C04605B000BD1E
:10ED88009836002000B583B001900B4B1B780133F7
:10ED9800DAB2094B1A70084B1B78032B09D9064BBA
:10EDA80000221A70019B08211800FFF777FEFFF771
:10EDB80009FFC04603B000BD9836002000B585B0F5
:10EDC80001901C4B5B6E042B01D100232EE0194BE4
:10EDD8001A6E184B5B6ED318032B05D8154B1A6E99
:10EDE800144B5B6ED31805E0124B1A6E114B5B6E19
:10EDF800D318043B03930F4B5B6E5A1C0D4B5A669A
:10EE0800039A13005B009B18DB000A4A9B18182220
:10EE1800002118000CF0E3FE039A13005B009B1816
:10EE2800DB00044A9A18019B1A600123180005B0F8
:10EE380000BDC0463036002000B58BB0474A484B6D
:10EE4800D31A1B090393454A454BD31A1B09099347
:10EE5800FFF70AFE03000893424B1B781A000123B0
:10EE6800134001D0002376E00023079312E0079BAC
:10EE78001A013B4BD3180293029B1B68002B06D048
:10EE8800029B5B68002B02D0099B013B0993079BFF
:10EE980001330793079A039B9A42E8D3002306930A
:10EEA8004DE0069B1A012E4BD318019317236B4490
:10EEB80000221A7016236B44069A1A7000230493D2
:10EEC80021E0049B1A01264BD3180093009B1B6872
:10EED800002B03D0009B5B68002B10D1009B5B7B51
:10EEE80017226A4412789A420AD217236B44009A6E
:10EEF800527B1A7016236B44049A1A7000E0C046BD
:10EF0800049B01330493049A039B9A42D9D3162392
:10EF18006B441B781A01124BD3180193019B089A72
:10EF28005A60019B1B7B9B025B42089AD218019B8B
:10EF38001A60019B1B680893069B01330693069A87
:10EF4800099B9A42ADD3074B1B7801221343DAB2CF
:10EF5800044B1A70002318000BB000BDC03300200A
:10EF6800B03300202E36002000B587B00390029100
:10EF780001921A006B4602331A80334B1B781A0031
:10EF88000123134001D101235AE0039B1800FFF726
:10EF9800C5FD03001A0001235340DBB2002B01D04A
:10EFA80002234DE0019B002B02D0029B002B01D1D4
:10EFB800032345E0019B0322134003D1029B032254
:10EFC800134001D006233BE0039B1B68029A9A4238
:10EFD80009D3039B5A686B4602331B889B0002992E
:10EFE800CB189A4201D205232AE06B4602331B88CC
:10EFF800002B01D1042323E005AB1800FFF7DEFE48
:10F0080003001A0001235340DBB2002B01D0072371
:10F0180016E0059B089A5A60059B039A1A60059B9F
:10F0280001221A72059B019ADA60059B029A1A61FD
:10F03800059B6A46023212889A82FFF72DFE00234A
:10F04800180007B000BDC0462E36002000B587B0B6
:10F058000390029100936B4606331A802E4B1B785F
:10F068001A000123134001D1012352E0039B180029
:10F07800FFF754FD03001A0001235340DBB2002BB5
:10F0880001D0022345E0029B002B01D1032340E07D
:10F09800029B9B059B0D01D006233AE0039B1B684E
:10F0A800029A9A4209D36B4606331B889B02029A3E
:10F0B800D218039B5B689A4201D9052329E06B4665
:10F0C80006331B88002B01D1042322E005AB18006E
:10F0D800FFF774FE03001A0001235340DBB2002B34
:10F0E80001D0072315E0059B009A5A60059B039AF7
:10F0F8001A60059B02221A72029B9A0A059B92B219
:10F108009A81059B6A46063212881A82FFF7C4FD67
:10F118000023180007B000BD2E36002082B00190F1
:10F12800019B002B01D1032304E0044B5A6E019B81
:10F138001A600023180002B07047C046303600201D
:10F1480000B585B001901F4B1A6E13005B009B1829
:10F15800DB001C4A9B1803931B4B1B781A000223E5
:10F16800134011D0019B022B03D0019B032B05D028
:10F1780022E0039B1800FFF7A9FD1DE0039B180080
:10F18800FFF700FEC04617E00F4B1B781A00042358
:10F19800134011D00C4B1B7804229343DAB20A4B6C
:10F1A8001A70084B5B6E002B06D0074B1B780222A7
:10F1B8001343DAB2044B1A70FFF726FDC04605B0B8
:10F1C80000BDC046303600202E36002082B00190A7
:10F1D8000091009B1B7B002B07D0009B5A68019B6A
:10F1E8001A60019B00221A7106E0009B1A68019BB5
:10F1F8001A60019B01221A71C04602B0704700B51F
:10F2080083B001900091019B1B79002B06D0009AD6
:10F21800019B1100180000F00CF805E0009A019B12
:10F228001100180000F023F8019B1B68180003B0B8
:10F2380000BD82B001900091009B5A68019B1B6839
:10F24800D21A009B9B689A4207D9019B1A68009BB7
:10F258009B68D218019B1A6006E0009B5A68019BC4
:10F268001A60019B00221A71C04602B0704782B032
:10F2780001900091019B1A68009B1B68D21A009BA1
:10F288009B689A4207D9019B1A68009B9B68D21A0F
:10F29800019B1A6006E0009B1A68019B1A60019B9B
:10F2A80001221A71C04602B0704782B001900A006C
:10F2B8006B4602331A80019B1A786B4602331B880F
:10F2C800012199400B00DBB21343DAB2019B1A709B
:10F2D800C04602B0704782B001900A006B46023304
:10F2E8001A80019B1B786A460232128801219140DC
:10F2F8000A00D2B2D243D2B21340DAB2019B1A70DA
:10F30800C04602B0704782B002006B4607331A70DD
:10F3180001AB0A1C1A806B4607331A7801AB1B88AD
:10F328001A411300012213405A1E9341DBB2180000
:10F3380002B0704700B585B002006B4607331A70FB
:10F348000E236B4400221A8016E00E236B441A88A1
:10F358006B4607331B7811001800FFF7D4FF031E14
:10F3680003D00E236B441B880CE00E236B441A88D1
:10F378000E236B4401321A800E236B441B88072B23
:10F38800E3D9024B180005B000BDC046FFFF0000DE
:10F3980000B587B00590049119000E236B441A80BC
:10F3A8000D236B440A1C1A700E236B441A880499A7
:10F3B80005980D236B441B7800931300012200F07D
:10F3C80003F8C04607B000BD00B587B003900291AE
:10F3D80001921A006B4602331A80039B002B3AD025
:10F3E800029B002B37D0019B002B34D000230593C0
:10F3F8002EE0059B5B00039AD3181B886A460232ED
:10F4080012889A4221D10023049319E008AB1B7893
:10F41800002B09D0029A049BD318059A92B21100C6
:10F428001800FFF742FF08E0029A049BD318059AD8
:10F4380092B211001800FFF74EFF049B01330493AA
:10F44800049A019B9A42E1D305E0059B0133059399
:10F45800059B072BCDD907B000BD00B585B001903D
:10F46800080011006B460333021C1A706B460A1C15
:10F478001A80019B002B1CD00023039316E0039BEA
:10F488005B00019AD3181B886A4612889A420AD1EF
:10F49800039B9AB26B4603331B7811001800FFF7E1
:10F4A80032FF030006E0039B01330393039B072B02
:10F4B800E5D90023180005B000BD10B58AB0039047
:10F4C80002916B4607331A7004AB00221A60029B44
:10F4D800002B23D0002309931DE0099B9AB26B46A9
:10F4E80007331B7811001800FFF70DFF031E0FD01C
:10F4F800099B5B00029AD11804AB1B68581C04AA2C
:10F508001060098804AA5B00D31804330A1C1A8007
:10F51800099B01330993099B072BDED9039B04AA96
:10F5280013CA13C303CA03C303980AB010BD82B039
:10F5380001900A006B4602331A806B4602331B881F
:10F54800019AD31800221A60C04602B0704782B0F0
:10F5580001900A006B4602331A806B4602331B88FF
:10F56800019AD3181B685A1E9341DBB2180002B0E7
:10F57800704782B001900091019AC1239B00D35833
:10F58800009A13405A1E9341DBB2180002B070472C
:10F5980082B001900091019AC2239B000099D1503A
:10F5A800C04602B0704784B00190019A9023DB00F6
:10F5B800D3580393019A9023DB000399D150039BFE
:10F5C800180004B0704782B00190019AA323DB00B1
:10F5D800D358DBB2180002B07047000082B0019027
:10F5E8000A006B4603331A706B4603331A78019B83
:10F5F80002495A50C04602B07047C0461C05000078
:10F6080082B001900A006B4603331A706B460333CD
:10F618001B78019AD31801221A60C04602B07047BD
:10F6280000B585B0019000918E235A00019B11000E
:10F638001800FFF77CFF009B9B68009A928A92B2A1
:10F648009A180F236B4412781A70009B9B8A9BB2FE
:10F6580001339AB2009B9A820F236B441A78019B5C
:10F6680011001800FFF7BAFFC04605B000BD10B57D
:10F6780082B001900091009BDB7D002B0BD184238D
:10F688005A00019B11001800FFF751FF019B180059
:10F69800FFF799FF19E084235A00019B1100180015
:10F6A800FFF745FF009BDB68009A527ED2B29C1898
:10F6B800019B1800FFF787FF03002370009B5B7E08
:10F6C800DBB20133DAB2009B5A7602B010BD00B546
:10F6D80089B0039001920B236B440A1C1A7004AB87
:10F6E80001221A7004AB0B226A4412781A7204AB16
:10F6F800019A5A60039B5A68039B196804AB180067
:10F708009047C04609B000BD00B587B001900A0017
:10F718006B4603331A7002AB00221A7002AB6A46BA
:10F72800033212781A72019B9A6802AB5A60019BE5
:10F7380000229A75019B5A68019B196802AB180050
:10F748009047C04607B000BD00B589B00190009150
:10F7580080239A00019B11001800FFF70AFF031E7F
:10F7680042D092235A00019B11001800FFF7EFFEC8
:10F77800031E39D092235A00019B11001800FFF78D
:10F78800D6FE81239A00019B11001800FFF700FFA5
:10F79800009B9B7E01225340DBB2002B04D0019BCF
:10F7A80004211800FFF72CFF02AB02221A70019BFC
:10F7B8001800FFF7F8FE020002ABDA60009BDA7D62
:10F7C80002AB1A72009BDA6802AB5A60009B0022F7
:10F7D800DA75009B00221A76009B5A68009B19680C
:10F7E80002AB180090475EE0019B04211800FFF768
:10F7F800C0FE031E57D084235A00019B1100180035
:10F80800FFF7A5FE031E4ED0009A019B11001800B9
:10F81800FFF72DFF009BDA7D009B5B7EDBB29A42EF
:10F8280041D1009B1B7E002B1ED0009BDB680793F9
:10F838001B236B44009A527E1A70009B1A7E009B11
:10F84800DA75009B1A69009BDA60009B00221A7621
:10F85800009B00225A76079A1B236B441978009B59
:10F868001800FFF734FF1EE0009B9B7E01225340E7
:10F87800DBB2002B04D0019B04211800FFF7C0FE67
:10F8880081239A00019B11001800FFF781FE009B5D
:10F898000022DA75009B5B7ED9B2009BDA68009B78
:10F8A8001800FFF714FF8E235A00019B110018005F
:10F8B800FFF74DFE031E20D0009B9B8A9AB2009B47
:10F8C8009B7D9BB29A4206D2009A019B11001800B8
:10F8D800FFF7A6FE11E08E235A00019B11001800C5
:10F8E800FFF725FE009B9B7D002B06D0009B9A7D91
:10F8F800009B11001800FFF707FFA2235A00019B85
:10F9080011001800FFF723FE031E1FD0A2235A0080
:10F91800019B11001800FFF70AFE009B9B7E002B3D
:10F9280004D0019B00211800FFF76AFE009BDB7DD5
:10F93800002B0BD0009B0022DA75009B5B7ED9B2AE
:10F94800009BDA68009B1800FFF7C1FEC04609B0AB
:10F9580000BD000010B5044B044A19001000FFF761
:10F96800F3FEC04610BDC0469C3600200020004073
:10F9780082B001908023DA05C2239B000199D150FF
:10F98800C04602B0704782B002006B4606331A8048
:10F998006B4606331B888022D205944663440022B6
:10F9A8001A60C04602B0704782B002006B46063348
:10F9B8001A806B4606331B888022D205944663441E
:10F9C8001B685A1E9341DBB2180002B0704784B01E
:10F9D8000190019B1B680393039B002B03D0039B9F
:10F9E8001A68019B1A60039B180004B07047000056
:10F9F80000B585B002006B4607331A706B460733B3
:10FA08001B78002B02D10D4B039301E00C4B0393A1
:10FA1800039B1800FFF7DBFF03000293029B002BF8
:10FA280007D0029B5B686A46073212781000984735
:10FA3800EEE7C046C04605B000BDC046C03600204F
:10FA4800C836002010B580235B001800FFF7ACFF14
:10FA5800031E0DD080235B001800FFF794FF0120E0
:10FA6800FFF786FF0E4B01225A700020FFF7C0FFF8
:10FA780082235B001800FFF797FF031E0DD0822337
:10FA88005B001800FFF77FFF0220FFF771FF044BB0
:10FA980001229A700120FFF7ABFFC04610BDC04697
:10FAA800B836002082B002006B4607331A706B46E6
:10FAB80007331B781A001F231A40044B0121914079
:10FAC8000A001A60C04602B07047C04600E100E074
:10FAD80082B002006B4607331A706B4607331B78F7
:10FAE8001A001F231340044901229A40C0235B00D7
:10FAF800CA50C04602B0704700E100E010B582B0BD
:10FB0800020000916B4607331A706B4607331B7867
:10FB18007F2B36D9324A6B4607331B7819000F23DF
:10FB28000B40083B9B0806339B00D31804331B6823
:10FB38006A4607321278110003220A40D200FF21D8
:10FB480091400A00D2431A401100009B9B01FF22FA
:10FB58001A406B4607331B78180003230340DB0069
:10FB68009A401F486B4607331B781C000F2323401D
:10FB7800083B9B080A4306339B00C31804331A60EA
:10FB88002BE0184A6B4607331B785BB29B08C033DF
:10FB98009B009B586A4607321278110003220A40DC
:10FBA800D200FF2191400A00D2431A401100009B65
:10FBB8009B01FF221A406B4607331B78180003236A
:10FBC8000340DB009A4007486B4607331B785BB25B
:10FBD8009B080A43C0339B001A50C04602B010BDB0
:10FBE80000ED00E000E100E000B583B002006B46E4
:10FBF80007331A706B4606330A1C1A706B460633B5
:10FC08001B78032B06D9114A92235B0011001800B8
:10FC180001F04EFF6B4606331A786B4607331B78A4
:10FC28005BB211001800FFF769FF6B4607331B78BA
:10FC38005BB21800FFF74CFF6B4607331B785BB2CB
:10FC48001800FFF72FFFC04603B000BDDCC3020059
:10FC580000B583B002006B4606331A806B46063344
:10FC68001B88180000F01CF803001B68013B5A426F
:10FC78005341DBB2180003B000BD00B583B00200E9
:10FC88006B4606331A806B4606331B88180000F053
:10FC980007F8030000221A60C04603B000BD000048
:10FCA80082B002006B4606331A806B4606331B8807
:10FCB800024A94466344180002B07047006000404E
:10FCC80082B001900349C1239B00019ACA50C046E3
:10FCD80002B070470060004082B00190044AC1231E
:10FCE8009B00D358019A1340180002B07047C046D1
:10FCF8000060004082B00190084A019B4533FF3301
:10FD08009B009B58054901221A43019B4533FF3349
:10FD18009B005A50C04602B07047C0460060004081
:10FD280084B0039002916B4607331A70154A039BFF
:10FD38004533FF339B009B581249134A1A40039BD3
:10FD48004533FF339B005A500E4A039B4533FF331C
:10FD58009B009A58029B1902F8235B0119406B46D5
:10FD680007331B781B041800C0239B0203400B4376
:10FD780004491A43039B4533FF339B005A50C0463E
:10FD880004B0704700600040FFE0FCFF82B00190C3
:10FD9800054A019B4533FF339B009B581B0A1F22D2
:10FDA8001340180002B070470060004082B0019014
:10FDB800064A019B4533FF339B009B581B0C0322CB
:10FDC8001340DBB2180002B07047C0460060004024
:10FDD80000B583B00190019B1B681F2B06D9064A0A
:10FDE800E8235B001100180001F062FEA023DB0588
:10FDF800180003B000BDC04640C4020010B584B06E
:10FE080001900C00100019006B460333221C1A7075
:10FE18006B460233021C1A706B4601330A1C1A70B7
:10FE280001AB1800FFF7D4FF030003936B460333BD
:10FE38001A786B4602331B785B001A436B46013312
:10FE48001B789B001A4306AB1B781B021A43110050
:10FE580007AB1B781B04019A1943039BC132FF327D
:10FE68009200D150C04604B010BD00B585B00390D3
:10FE78000A000B236B441A700B236B441A780398FF
:10FE88000023019300230093130000220021FFF7B1
:10FE9800B5FFC04605B000BD00B585B0019001AB07
:10FEA8001800FFF795FF03000393019A039BC132E3
:10FEB800FF329200D358022293430293019A039B84
:10FEC800C132FF3292000299D150C04605B000BD40
:10FED80000B585B001900A006B4603331A7001AB78
:10FEE8001800FFF775FF03000393019A039BC132C3
:10FEF800FF329200D358019A0D491940039BC13231
:10FF0800FF329200D150019A039BC132FF32920016
:10FF1800D3586A460332127812041100019A194321
:10FF2800039BC132FF329200D150C04605B000BDDC
:10FF3800FFFFFCFF00B585B0019001AB1800FFF78B
:10FF480047FF03000393039B180000F01FF802000B
:10FF5800019BDA40130001221340180005B000BDD0
:10FF680000B585B0019001AB1800FFF731FF030021
:10FF78000393019A039BC132FF329200D3581B0CA2
:10FF880003221340DBB2180005B000BD82B0019017
:10FF9800019AA223DB00D358180002B07047000072
:10FFA80000B587B0039002910192A023DB0504936A
:10FFB800039A029BD318012B06D9134ABA239B0034
:10FFC8001100180001F074FD039B059312E0059BD6
:10FFD8009B0006AA94466344083B1B681800FFF779
:10FFE800D5FF0200019B1A60019B04330193059B16
:08FFF80001330593039A029BFB
:020000022000DC
:10000000D318059A9A42E6D3C04607B000BDC04651
:1000100040C4020084B001900091009B0393019BB7
:10002000DB080293019B0722134001930122019BED
:100030009A4013000399029A8A1812781340180004
:1000400004B0704784B001900091009B0393019B22
:10005000DB080293019B072213400193039A029B42
:10006000D3181B785AB20121019B99400B005BB257
:10007000134359B2039A029BD318CAB21A70C046EE
:1000800004B0704782B001900D4A2021019BD31823
:100090005B181B785BB2002B0ADB094A2021019B0D
:1000A000D3185B181B785BB2032B01DC012300E043
:1000B00000231A1C01231340DBB2180002B0704762
:1000C000CC36002082B00190074A2021019BD31832
:1000D0005B181B785BB20122032B01DC00231A1C86
:1000E000D3B2180002B07047CC36002082B0019025
:1000F000064A2021019BD3185B181B785BB2DB43B7
:10010000DBB2DB09DBB2180002B07047CC3600204E
:1001100084B00390029101921A006B4603331A7067
:10012000029B58B2104A2021039BD3185B18021C73
:100130001A700D4B029A92000199D1506B4603330D
:100140001B7801225340DBB2002B09D0029B043BF9
:10015000039A50B2044A4021D3185B18021C1A704B
:10016000C04604B07047C046CC36002082B0019033
:10017000044A2021019BD3185B18FF221A70C04645
:1001800002B07047CC36002082B00190044A202192
:10019000019BD3185B181B785BB2180002B0704744
:1001A000CC36002082B00190034B019A9200D358C4
:1001B000180002B07047C046CC36002000B589B0A8
:1001C000039002916B4607331A701F236B44FF2282
:1001D0001A706B4607331B78002B01D0002300E018
:1001E000042305936B4607331B78002B01D00423AF
:1001F00000E008230493059B069315E0104B069A34
:100200009200D35801330CD16B4607331B78029A06
:1002100006990398FFF77CFF1F236B44069A1A7018
:1002200006E0069B01330693069A049B9A42E5D3A7
:100230001F236B441B785BB2180009B000BDC04699
:10024000CC36002082B002006B4607331A706B4632
:1002500007331A780B4B920001214942D1506B466B
:1002600007331B78032B09D96B4607331B78043BF4
:10027000044A4021D3185B18FF221A70C04602B00E
:100280007047C046CC36002000B583B0274B4422CF
:100290009B5C002B03D008230093009B42E06B463D
:1002A000073300221A700CE06B4607331B781800E6
:1002B000FFF75CFF6B4607331A786B460733013252
:1002C0001A706B4607331B781F2BEDD96B4607332B
:1002D00000221A700CE06B4607331B781800FFF7FA
:1002E000B1FF6B4607331A786B46073301321A7039
:1002F0006B4607331B78072BEDD903210620FFF748
:1003000077FCBE235B001800FFF7BBFC80231B06B5
:100310001800FFF7D9FC054B442201219954002312
:100320000093009B180003B000BDC046CC360020EF
:10033000034B44229B5C5A1E9341DBB2180070476A
:10034000CC36002010B586B0039002910192039B39
:100350001F2B06D9324AFC235B001100180001F064
:10036000ABFB00230593039B1800FFF7BFFE031EA2
:1003700002D0082305934EE0029BDA7813246C44E4
:100380000199039B1800FFF719FF03002370132343
:100390006B441B785BB201333BD0029B9B78002BF4
:1003A00004D0039B1800FFF77BFD06E0029B5A7800
:1003B000039B11001800FFF75CFD029BDB78002B0C
:1003C0000AD013236B4400201856029B1A78039B13
:1003D0001900FFF7A9FC1EE013236B441B785BB2E6
:1003E000043B104A4021D3185B1800215956029B48
:1003F0001B789B015AB213236B441B785BB2043BFE
:100400000A4350B2074A4021D3185B18021C1A70E5
:1004100001E004230593059B180006B010BDC046FB
:1004200078C40200CC36002000B587B001900A00E5
:100430006B4603331A70019B1F2B05D9464B474A65
:100440001900100001F038FB019B1800FFF74EFE69
:10045000031E05D1404B424A1900100001F02CFB4D
:10046000019B1800FFF72EFE031E3BD0019B1800D6
:10047000FFF78AFE0300043B3A4A4021D3185B1879
:1004800000229A5616236B441A7015236B441622C9
:100490006A44127892091A7015236B441B78032B57
:1004A0000CD1019B1800FFF749FD031E01D0032268
:1004B00000E0022217236B441A700AE015236B44F4
:1004C0001B78012B01D1022200E0032217236B4489
:1004D0001A7017236B441A78019B11001800FFF75C
:1004E000FBFC36E0019B1800FFF7CCFD031E30D06B
:1004F000019B1800FFF748FE03000493049B9BB286
:1005000040339AB20E236B4492001A80049B180069
:10051000FFF7F4FB0E236B441B881800FFF7B1FBB9
:100520006B4603331B78002B13D0019B1800FFF799
:100530002BFE03001800FFF735FE03000293029B19
:10054000002B06D00122049B9A4013001800FFF7ED
:10055000BBFBC04607B000BD78C402002602000005
:1005600027020000CC36002000B583B00190019B2B
:100570001F2B05D9084B094A1900100001F09CFAFD
:10058000019B1800FFF7DAFC03005A1E9341DBB20F
:10059000180003B000BDC04678C40200730200001A
:1005A00010B594B0002313930023039346236B44A8
:1005B000802252001A80012310930023129324E01A
:1005C00046236B441B881800FFF746FB031E0FD021
:1005D000109B1800FFF784FB031E09D046236B44D1
:1005E0001B881800FFF74DFB139A109B13431393BE
:1005F000109B5B00109346236B4446226A4412888A
:1006000004321A80129B01331293129B032BD7D909
:10061000BE235B001800FFF71FFB031E0FD0BE2395
:100620005B001800FFF72DFB139B8022120613437B
:10063000139303AB1A0001210020FFF7B5FC139BB5
:100640000F2213402FD0012310930023129327E091
:10065000109B139A13401DD0129B1800FFF79AFBB2
:1006600003000D9333246C44129B1800FFF7A2FB88
:1006700003002370129B1800FFF794FD03000B93F7
:100680000B9B002B06D033236B4419780D9A0B9BE0
:1006900010009847109B5B001093129B013312933C
:1006A000129B032BD4D9139B002B00DB17E13B23B8
:1006B0006B4400221A700023029300230F930BE077
:1006C0000F9B9B0014AA944663444C3B0122524268
:1006D0001A600F9B01330F930F9B002BF0D03B232D
:1006E0006B4400221A700023129392E07D4A40214D
:1006F000129BD3185B1800229A562B236B441A7056
:100700002B236B441B78C02293430993754A4021E5
:10071000129BD3185B181B785BB2013300D175E0D4
:1007200001AA099B11001800FFF774FC031E00D1F9
:100730006CE023236B442B226A44127892091A70CE
:10074000099B1800FFF720FD03001800FFF72AFDA2
:1007500003000793079B002B04D123236B441B78D2
:10076000032B53D123236B441B78032B05D102AAFF
:10077000099B11001800FFF765FC1B246C44099BC2
:100780001800FFF7F1FB0300237003AA099B110077
:100790001800FFF73FFC03000593059B002B04D0D6
:1007A0001B236B441B78022B07D0059B002B2DD1FC
:1007B0001B236B441B78032B28D123236B441B780A
:1007C000032B19D11B236B441B78022B01D103226D
:1007D00000E0022213236B441A7013236B441A782F
:1007E000099B11001800FFF777FB3B236B443B226A
:1007F0006A44127801321A70079B002B06D023231B
:100800006B441978099A079B10009847129B013393
:100810001293129B032B00D868E73B236B441B7891
:10082000002B56D03A236B4401221A706B461A00F3
:1008300001210020FFF7B8FB00230F9317E00F9B67
:100840009B0014AA94466344503B1A680F9B9B007C
:1008500014A98C466344443B1B689A4204D03A2353
:100860006B4400221A7005E00F9B01330F930F9B1E
:10087000002BE4D03A236B441B78002B04D03B239D
:100880006B4400221A7024E000230F931EE00F9B9C
:100890009B0014AA94466344503B1A680F9B9B002C
:1008A00014A98C466344443B1A600F9B9B0014AA16
:1008B00094466344483B1A680F9B9B0014A98C46DE
:1008C00063444C3B1A600F9B01330F930F9B002B2B
:1008D000DDD03B236B441B78002B00D0FFE6C046E5
:1008E00014B010BDCC36002000B583B00190019B40
:1008F0001B681F2B06D9064AE8235B00110018006D
:1009000001F0DAF8A023DB05180003B000BDC046F3
:10091000DCC4020010B584B001900C001000190076
:100920006B460333221C1A706B460233021C1A708A
:100930006B4601330A1C1A7001AB1800FFF7D4FF95
:10094000030003936B4603331A786B4602331B781C
:100950005B001A436B4601331B789B001A4306ABBE
:100960001B781B021A43110007AB1B781B04019A6A
:100970001943039BC132FF329200D150C04604B0EC
:1009800010BD00B585B003900398002301930023A8
:100990000093002301220121FFF7BCFFC04605B0F0
:1009A00000BD00B585B0019001AB1800FFF79CFFBA
:1009B00003000393019B01229A40039B110018003E
:1009C00000F094F8C04605B000BD00B585B00190B8
:1009D00001AB1800FFF788FF03000393019B01227E
:1009E0009A40039B1100180000F08CF8C04605B037
:1009F00000BD000000B585B0019001AB1800FFF705
:100A000073FF03000393039B0D4A9B580293029BC1
:100A1000DB43019A012191400A001A401100039A18
:100A2000A123DB00D150019B01229A401300029ABE
:100A30001A40039B03495A50C04605B000BDC0464A
:100A4000040500000C05000000B583B00190009182
:100A5000009B002B04D1019B1800FFF7B6FF03E0B9
:100A6000019B1800FFF79DFFC04603B000BD00B515
:100A700085B0019001AB1800FFF736FF0300039328
:100A8000039B180000F01FF80200019BDA401300DE
:100A900001221340180005B000BD00B585B00190DB
:100AA00001AB1800FFF720FF03000393039B18001E
:100AB00000F012F80200019BDA40130001221340FB
:100AC000180005B000BD82B00190019AA223DB009E
