:020000021000EC
:10B000000080002005B2010051B2010053B20100DE
:10B010000000000000000000000000000000000030
:10B0200000000000000000000000000055B2010018
:10B03000000000000000000057B2010059B20100FA
:10B0400025D801005BB20100B1D60100FDE101008D
:10B0500011E2010000000000EDDA01005BB2010026
:10B060005BB201005BB201005BB201005BB20100A8
:10B070005BB201005BB201005BB201005BB2010098
:10B080005BB20100FDB901005BB201005BB20100DF
:10B09000B9BA01005BB20100593302005BB2010092
:10B0A0005BB201005BB20100000000000000000084
:10B0B0000000000000000000000000000000000090
:10B0C000314932480A1A02D0072291438D4630494D
:10B0D00030480A1A06D00722914381F309880222D8
:10B0E00082F314882C482D492D4A00F03CF82D4855
:10B0F0002D492E4A00F037F82D482E492E4A00F0EF
:10B1000032F82E482E492F4A00F02DF82E482F49AC
:10B110002F4A00F028F82F482F49304A00F023F832
:10B120002F483049304A00F01EF83048304900229C
:10B1300000F024F82F483049002200F01FF82F4A71
:10B1400090471F481F49884205D00268043003B465
:10B15000904703BCF7E700208646EC46002000211C
:10B16000274A9047FEE7884207D0521A05D0037855
:10B1700001300B700131013AF9D17047884202D099
:10B1800002700130FAE7704700800020007800204C
:10B19000008000200080002008410200C033002011
:10B1A0000E34002078B2010078B20100943B020016
:10B1B00008410200C0330020C0330020A43B02003D
:10B1C000A43B0200A43B0200A43B0200A43B0200FB
:10B1D000A43B0200A43B0200A43B02000841020081
:10B1E0005841020010340020103400201034002098
:10B1F000A8420020A8420020A842002017B2010067
:10B200004DEC01000B4880470B480C4988438546AC
:10B210000B48804754E70B480B490C4A884207D03B
:10B22000521A05D0037801300B700131013AF9D17F
:10B23000704700005DB201000080002007000000A0
:10B2400085F80100943B0200B0330020C033002099
:10B25000FEE7FEE7FEE7FEE7FEE7FEE70321044820
:10B2600002680A430260034802680A4302607047AA
:08B270002405004054050040D4
:10B278008446024801B4604600BD0000033602005F
:10B2880010B5022003F010F810BD000070B5744E20
:10B2980005003378002B03D00023337002F0E8FF59
:10B2A8000024172D13D8280008F0E4F80C131339DC
:10B2B8004B5D6F79818681868F9494949494B5BA06
:10B2C800C2CAD5D5002402F0D3FF664B1C702000FB
:10B2D80070BD002002F0A4FF002819D0002002F061
:10B2E800BBFFA81E434258415F4B40421840FA2317
:10B2F8001B01C0185B4B1D70642108F05DF85B4BA7
:10B308001968414300225A4800F00CFE0400DEE7A9
:10B3180002F094FFC820022DECD00018EAE70020C4
:10B3280002F07EFF002808D0002002F095FFC82018
:10B33800800003224B4B1A70DEE702F07FFFC82023
:10B34800F7E7002002F06CFF002807D0002002F089
:10B3580083FFFA200001434B0422ECE702F06EFF62
:10B36800C8204000F7E7002002F05AFF002809D063
:10B37800002002F071FF05223A4B1A703B4B196806
:10B388004900BFE702F05AFFF5E7002002F08CFF02
:10B398000622344B1A70354B00221968B3E7002097
:10B3A80002F04CFF07222F4B1A7000248FE7012070
:10B3B800307002F079FFEEE70120307002F074FF80
:10B3C8002A4B1968052359439CE702F05FFF254B78
:10B3D8000C22E9E7274E300000F0ECFD04001120B4
:10B3E800401B14D0002C12D101280CD0C825642190
:10B3F800684307F0E1FF1D4B220019684143300004
:10B4080000F090FD0400022002F018FF5FE7022020
:10B4180002F022FF5BE702F02BFF124B1222C3E778
:10B4280002F026FF002002F009FF0E4B1322BBE7B3
:10B4380002F01EFF012002F001FF0A4B1422B3E7BD
:10B4480002F016FF002002F0F9FE012002F0F6FEDD
:10B45800044B1522A8E702F019FF024B1D70A4E760
:10B46800683400209034002068F7FFFF343400204F
:10B478006C34002014340020F8B507000D0002F0E9
:10B488004DFF0400032805D8012D04D0002D25D038
:10B49800022D30D0F8BD032343431A4E9D5DF318A7
:10B4A8005B78002B0BD0184B184A19680A231848E8
:10B4B800594300F037FD002801D1144B1F700323B6
:10B4C8006343F618B278134B1A55002DE2D0124B8D
:10B4D8001B68002BDED028009847DBE70C4800F0FB
:10B4E80069FD03226243074B9B189D78094B1B5D3E
:10B4F800AB42CFD1E9E703234343024CE418657814
:10B50800E3E7C046583400203434002010340020CB
:10B5180038340020913400208C34002010B50221EA
:10B528000078FFF7A9FF10BD044B10B51B68DB07B7
:10B5380003D5034B1878FFF7A9FE10BD643400202B
:10B548009034002010B502F0DBFE10BD020001208F
:10B55800044B10B51B68184002D01000FFF796FE88
:10B5680010BDC0466434002070B502241B4B050092
:10B5780019601B4B044018601A4B1A6019D00E2230
:10B58800194B1A481A700132DA7001329A71013275
:10B598005A724A08042100F071F9041E09D100F01A
:10B5A800B5F9041E05D10100114A124800F0A2FCA9
:10B5B8000400EB0701D502F08FFE002C0CD121000E
:10B5C8000D4A0E4800F096FC041E05D10C4A0121D4
:10B5D8000C4800F08FFC0400200070BD34340020BB
:10B5E800643400208C34002058340020A43B02002E
:10B5F80025B50100C83B020031B50100CC3B020073
:10B6080089B20100C43B0200072303280CD8012A91
:10B618000CD10022012909D102000E32D2B2032333
:10B6280058430C4BC2540023180070470129F6D028
:10B638004BB2002B08D007230229F5D1032343433B
:10B648000448C0184270EEE70321414301484018FE
:10B658008270E9E75834002010B502F06FFEA0238D
:10B668008000DB05C018E023DB00C25804490A400B
:10B67800C250C022C15892020A43C250002010BDD5
:10B68800FFFFFCFF10B5012202210020FFF7BCFFDD
:10B69800002801D0072812D1072202210120FFF734
:10B6A800B3FF002801D0072809D100210A22080089
:10B6B800FFF7AAFF002802D0072800D1002010BDFC
:10B6C80010B50020FFF7C8FF002801D0062807D1D1
:10B6D8000120FFF7C1FF002802D0062800D1002072
:10B6E80010BD0000038810B5102B02D0112B22D0FA
:10B6F80010BD1C4C2068002819D101220100FFF759
:10B7080083FF002801D0072825D107220221012024
:10B71800FFF77AFF002801D007281CD10422022154
:10B728000020FFF771FF002801D0072813D12368F4
:10B7380001332360DCE70B4A1368013B1360002BDD
:10B74800D6D1FFF79FFF0028D2D0074B1B68002BEC
:10B75800CED09847CCE7044B1B68002BE7D098471E
:10B76800E5E7C0469C340020983400200D4B10B506
:10B778000C1E18600BD00120FFF7E4FE02230028FE
:10B7880004D1FFF7DFFE002809D00B232370002027
:10B79800054B1B68834201D1FFF774FF10BD207071
:10B7A800F5E7C046983400209C34002070B500248A
:10B7B8000125174B1B78A34200D870BD2900154AF4
:10B7C800E3001668144AF618307813688140194265
:10B7D8001AD08B43136002F07BF9290032780F4BA3
:10B7E80091401B680B40010091408B420CD173685B
:10B7F800002B09D0717801394E427141091A48422B
:10B8080041411000C9B298470134E4B2D1E7C046BB
:10B81800A0340020D0340020CC340020C8340020CC
:10B82800F8B5124E0700300000F0C4FB002817D10D
:10B838000124BC400E4D2B681C4214D1380002F084
:10B8480047F90C4A136800280BD0234313602B6870
:10B8580000221C43084B300019682C6000F062FB82
:10B86800F8BDA343F2E7A3432B60F9E7A83400200F
:10B87800CC340020C8340020A434002073B505005F
:10B888000C0016000720042A1DD902F071F80028C0
:10B8980015D0164B164A1D60164B1C70164B013CF2
:10B8A8001E60002303261360144AE4B21360FF2CC1
:10B8B8000AD1134A0021134800F01CFB03E002F0F0
:10B8C80029F80028E5D076BD002201A9E300EB188D
:10B8D8000E704A809A7818784A700B4A02F052F82B
:10B8E800013CE4B20028E2D0EDE7C046D0340020A5
:10B8F800C8340020A0340020A4340020CC34002018
:10B90800B5B70100D03B020029B8010010B50024EA
:10B91800074B1B789C4201D3002010BD054BE20069
:10B928001B680121D05C02F091F80134F0E7C046B1
:10B93800A0340020D03400201FB5002101AA906057
:10B9480003481180516001F08BFA05B000BDC04674
:10B958000140000030B509494C788A78631CDBB295
:10B968009A4200D100230D7800229D4204D0037032
:10B97800182060434A681218100030BDD8340020DF
:10B98800F7B5060000200F0000F03CFB6B46DD1DFC
:10B998002800FFF7DFFF0424002805D000240770E3
:10B9A8002A78074B46605A70002000F02FFB002CC5
:10B9B80003D18022034B52035A602000FEBDC046CB
:10B9C800D8340020FCE100E0084B09491A682F230D
:10B9D800C046C046C046C046C046C046C046C0462F
:10B9E8008A4200D0C046013BF2D17047F0330020B4
:10B9F8000024F400F8B50024234B5C649C64DC64E8
:10BA08001C655C609C60214B1B68A34233D0204AB4
:10BA180020498D58204A1268AD1A2D022D0A1A683D
:10BA2800AA4215D8AD1AA4181A7CDE69002A0DD0CE
:10BA380000221A74194A996917685A69002F1DD08B
:10BA48001000B847002801D0FFF776FF002E13D169
:10BA5800134A144B11781B788B4204D10133DBB2A3
:10BA6800022B0ED0137013780F4A9B009C50802233
:10BA78000E4B52035A60F8BD3300D0E708009047D8
:10BA8800E4E70023EEE7C046FC100140F434002050
:10BA98000405000000100140F0340020D4340020D8
:10BAA800ED340020EC340020E4340020FCE100E018
:10BAB800F0B5BF49BF4A0B68BF488DB004931478EE
:10BAC800037800229C4200D1B8E00133DBB2022B9C
:10BAD80000D1B1E003700378B84A9B009A58049BE0
:10BAE8009B181B021B0A0B6001230193B44B002512
:10BAF800197801248C46B34909680691597802914E
:10BB08005968079161469B780A950893A84B1B686A
:10BB18000593AD4B1B780993069B0298814200D090
:10BB28008EE00A99002905D0A74909980870A0490C
:10BB380005980860A349002D00D00B600B68019997
:10BB4800002900D0C6E0069A0024D31A5A1E934151
:10BB5800DBB201939B4B01261B6804939A4B049A12
:10BB68001B780593924B1B68099300231D000393D0
:10BB7800002C00D0B3E0029B634500D0CDE0002D3F
:10BB880002D08F4B0299197003998E4B002900D06F
:10BB98001A601B68049A9A4202D1019A002A46D078
:10BBA800002B44D01B68894A0493894C804BA558C4
:10BBB8001B68884E0193EB1A1B021B0A033302937E
:10BBC80033780392002B12D18023C13A5B02FF3AEB
:10BBD800A350403AA350C021802201277E4B9202F5
:10BBE80049005A501A602760FFF7EEFE3770049B31
:10BBF800029A934200D21300A821019AC9009B1807
:10BC08001B021B0A039A6350A258521B1202120A03
:10BC18005D1B2D0203322D0AAA4208D9039BE35863
:10BC28006350FFF7D1FE80226C4B92025A600022CB
:10BC3800654B1A700DB0F0BD02704CE7019255E7E4
:10BC480018204843079E01313018089EC9B2B142F6
:10BC580000D100210678022E0AD0032E00D05CE71E
:10BC6800002B00D159E7002025001874DB69F7E79D
:10BC7800406803930B901800002800D14DE70B9FF4
:10BC8800C669874200D1ADE003903000F4E71D6833
:10BC9800954206D9002901D04A490B60AA1A1A60B0
:10BCA80058E7521B4019DD681E60DF69002D07D078
:10BCB800DC611C0004999D6009180902090A596091
:10BCC8003B000199002BE2D1002900D142E73D4A0F
:10BCD80013603FE700210C0008000E00F2E7230084
:10BCE800E469596809980691081A3D490002000A52
:10BCF8009F68884239D8C019186000211E7459609D
:10BD08009960D9618A4206D01868116888424CD86F
:10BD1800081A1060DA61039645E063461821594312
:10BD2800079B591863460133DBB29C46089B634561
:10BD380001D100239C460B783500012B00D01AE76F
:10BD48004B681D7C002D00D015E788685860C868CE
:10BD5800986008694969D86099610599002902D0F5
:10BD68005D600D00BDE73500BBE709990698091A23
:10BD78000902090AB94202D27F1A1F60BDE70021F1
:10BD88001960BAE7C01BCF690691002F07D03900A8
:10BD98000F688742F6D33F1A0F600F0006991860A4
:10BDA800DF61CB6113001A00E2E606921100EFE7AB
:10BDB800F0340020ED340020EC340020E43400207E
:10BDC800D8340020F4340020E034002004050000BA
:10BDD80000100140E134002000E100E0FCE100E057
:10BDE800FEFF7F00039FB84209D1DB692500002BC5
:10BDF80005D1084DAC60250005930A940994039F6A
:10BE08000068FE61002E00D187E637683818306078
:10BE180083E6C04600100140F0B5032485B00190C8
:10BE2800029117000393144049D1002A47D0802279
:10BE3800244B9202DA678023D222234D5B029200C0
:10BE4800AB50403AAB5001236B60FFF7BDFD0123B7
:10BE5800AB60FFF7B9FD1D4B039A1C701C4B80218A
:10BE68001A60029A1B4BC5201C809A705F601A4B9F
:10BE7800FF221C60194B1A4E1C701A4B49031C7088
:10BE8800C0235B00F1508000335893431A00C0234D
:10BE980013433350A1233160C421019ADB00EA50D7
:10BEA80089007358104A1A40C0231B021343735069
:10BEB8000E4BEA580E4B1A60200005B0F0BD07245F
:10BEC800FAE7C04604E100E000100140E134002038
:10BED800D4340020D8340020F4340020EC3400207E
:10BEE80000E100E0ED340020FF00FFFF0405000042
:10BEF800F03400200A4B10B55C680823002C0CD0E5
:10BF0800013B002A09D0002807D000680133047CCF
:10BF1800002C02D1230041744261180010BDC046B4
:10BF2800D8340020F0B51F4F85B07B6805000E009F
:10BF380001920824002B31D000282FD0013C04297D
:10BF48002CD943690134002B28D0437C0091012B64
:10BF580001D000230093002000F054F802ABD81D54
:10BF6800FFF7F8FC042400280FD0012300240370F5
:10BF78000D4A0E4B4560D358C6608360009B036131
:10BF8800019B436102ABDB797B70002000F03EF837
:10BF9800002C03D18022064B52035A60200005B0C2
:10BFA800F0BDC046D8340020001001400405000050
:10BFB800FCE100E0094B10B55A680823002A0AD0B2
:10BFC800002808D04269002A05D000230221037402
:10BFD800FFF7D6FC0300180010BDC046D834002077
:10BFE80072B6024A1368013313607047F8340020B0
:10BFF800034A1368013B1360002B00D162B67047F7
:10C00800F834002010B5FFF7EBFF10BD10B5FFF7AF
:10C01800EFFF10BD70B505000024054BA200D358F2
:10C02800002B01D0280098470134082CF5D170BDA9
:10C03800083500208023F7B50024DB00C3180193DE
:10C0480002239446260001270B80154B08301B68F5
:10C05800019A90420DD3002C01D0114A1360634617
:10C06800002B00D01E70F7BD3E000FE013003C000F
:10C078000CE002680132EED082880A4DAA42F3D061
:10C088000288002AF0D082689A42EFD84588EA1CD4
:10C09800920080180A880332AD180D80D8E7C04690
:10C0A80084350020FFFF0000033082B230B509203C
:10C0B800FD2A1DD80F4B1878002806D11C895D89E8
:10C0C80064191419A4B2FF2C0BD91C7C0720002C6E
:10C0D8000ED11C8B5D8B64191419A4B2FF2C07D8E0
:10C0E8000638040108801B195889121800205A8143
:10C0F80030BDC0460036002010B50D4C0D49638890
:10C108000D481B01C9188B89002B06D101224968EB
:10C1180000F0FEFF0423237010BD05230749237098
:10C12800033B8B8001220023096800F0F1FFF3E74D
:10C138007435002000360020B0330020203600205F
:10C14800002307B504490093044A023309680448E8
:10C1580000F098FF0EBDC04620360020E03B0200EC
:10C16800B0330020002307B501000093024A0233D0
:10C17800024800F087FF0EBDD83B0200B033002014
:10C18800002313B5094A00930C0001330100084845
:10C1980000F078FF0E23002805D1064924010D3B45
:10C1A80009198B730300180016BDC046D43B020062
:10C1B800B03300200036002013B50324084B09488B
:10C1C800998842681B6889005918538804700020B0
:10C1D800033300909BB2044800F054FF16BDC046DC
:10C1E8002036002074350020B033002003011348A6
:10C1F80010B5C01840680C6803000833002C03D041
:10C20800638803339B00E31880220D4CD20080180A
:10C21800984202D91A68013201D1002007E09A88B1
:10C22800A24205D01A88002A02D001200B6010BD56
:10C238005A88033292009B18EAE7C046003600206D
:10C24800FFFF0000436837B504000D00002B2DD018
:10C25800244A11688B4229D35268934226D8032076
:10C26800184023D1204A2189128991421ED122687F
:10C2780099688A421AD11D494A68934204D9802490
:10C28800E400121993420DD34A6993420CD98021D4
:10C29800C9005218934207D201232B8043425841C8
:10C2A800C0B23EBD0300F8E70A20F7E700232B8061
:10C2B80000230193288801A9FFF798FF002806D1D9
:10C2C8002B8801339BB22B80012BF1D9E9E7019B25
:10C2D80021689A688A42EDD16360034B1B892381E8
:10C2E800DFE7C046B0330020743500200036002058
:10C2F800F8B51C001B4B15001A78022306000F0026
:10C3080018001A4204D00330002D01D0002C0FD1A0
:10C31800F8BD154A1B019B5C002B06D1A0882100A3
:10C32800FFF764FF002808D12060A3880133A380A9
:10C33800A388012BEDD90A20EAE72368002E03D051
:10C34800998832889142E9D1002F03D019883A8818
:10C358009142E3D19A686B60044B2A601B890020E4
:10C368002B81D5E770350020003600207435002079
:10C3780010B5064B191D5888FFF738FF002802D062
:10C38800FFF71AFF10BDFFF7B7FEFBE77435002073
:10C398001C23F0B51C00B04D07002E6F8BB0744302
:10C3A800605D0138052800D954E107F059F8060006
:10C3B8008200820044014401AA01002F16D0012402
:10C3C800A64A1378A34313701C227243A24B069407
:10C3D800D15C023901293AD89B189A7DA04B196C77
:10C3E80089181964596C8A1A5A6430E02D19287909
:10C3F80003281CD807F03EF80B023C47994D2B78D0
:10C40800022B09D02B7C022B18D1012405E0FFF761
:10C4180097FE01232B7107E0002424012B1958688B
:10C42800FFF7A0FE00232B55002800D19BE0012137
:10C438008A4A0E2413788B431370C5E70223874A70
:10C4480011780B4301218B431370002306931C239F
:10C458007343814C185D05AB0138052800D9EFE11D
:10C4680006F0FEFFCF01D201DE01080211021B0215
:10C478007D4C0023012221687C4800F049FE0223FC
:10C48800A3800023C6E7784C2068FFF76BFE784B43
:10C4980027685A88734B12019C469B1859685F603D
:10C4A800A78821601F8102236146A380002353547B
:10C4B800B0E77343EB185A8A120102920299694A4B
:10C4C80052181189002F0BD0D88803235B42C71C50
:10C4D800181A5389C9191B1811815381012473E74C
:10C4E8005768187C89007F18062800D9A1E006F053
:10C4F800C1FF297D3C541B9004005E4C1C227243F2
:10C50800554B9B18D888029A564B9B181989C21C00
:10C5180089180322198152425989121A52185A81CC
:10C52800544B9C4291D04FE70023534853494360F2
:10C538001C337343EB189B690360FFF783FE0028E5
:10C5480000D15CE10023221DAA18009339000133B1
:10C55800464800F097FD1C2202237243AD182B7445
:10C568000E240028CAD10BB0F0BD220000233900E8
:10C578000C32AA18083100933C48013300F082FDC0
:10C588001C231A007243AA18917D0322002900D1A6
:10C59800023A7343ED182A74E2E7314A536C002BD0
:10C5A80000D182E10724106C013B411C2140153465
:10C5B800744311642849C0000C19A18A5364890086
:10C5C800791800271518AB8800978258274800F07B
:10C5D80059FDA38AAA889B18A382A37D013BDBB2DD
:10C5E800A375BB42BCD101232374B9E72200002301
:10C5F8000832AA18391D00931C48013300F042FD87
:10C608001C227243AB5CAD18033B591E8B410533AA
:10C61800A5E71A4B1988184B5868FFF7B1FD0400B5
:10C628001C20062370432D182B74002C00D065E7BE
:10C6380099E70F2462E7002F00D04FE71C237343CC
:10C64800EB1802931B79012B40D0002B18D0022B3A
:10C6580000D1FAE60F24B7E68835002070350020AF
:10C66800283500200036002020360020B033002076
:10C67800743500201D1D0000FC3400202A360020DF
:10C6880039000A27082206A806F0A5FF029B05A87C
:10C69800DB680A240393059302ABFF183900FFF700
:10C6A800D1FD002809D00698029A83883988D3805A
:10C6B80003881381FFF764FD04001C2002237043E4
:10C6C8002D182B71002C00D14DE729E7A01D281843
:10C6D800774B05AA3900FFF70BFE041E08D1744BEF
:10C6E80006989988FFF74CFD04000A28EAD1ACE6C1
:10C6F800082239006E4806F06EFF0A2C00D1A4E625
:10C708000EE7002F00D0E9E66A4B1A7B002A0AD010
:10C718001F731878013806289CD806F097FE394E02
:10C728005D609B636B0018780728F2D806F08EFED0
:10C7380004F1F1151F2E2E131A895F4901321A814F
:10C7480000225A801A730A78504242419A720A7C2F
:10C7580051424A41DA72012207E058485A688188F2
:10C76800528803315218828002221A70D1E7598800
:10C778005248514A090152180468516854600160CE
:10C7880081881181022282800432EEE70722ECE7D9
:10C798009A7A002A07D1DA7A002A12D100221A706E
:10C7A8005A805A6051E6002243499A728A89002ABF
:10C7B800F1D1897B0029EED05A80FFF7D9FD04001A
:10C7C80080E70022DA723C4A918B0029E6D1927FF9
:10C7D800002AE3D00122EFE7FFF7EEFCEFE7FFF7CF
:10C7E8008BFCECE75A88344B12019B185868FFF70A
:10C7F800B9FCE4E700225A60FFF7A2FCDFE70A244D
:10C80800E2E500221A701BE001221A701B3256431F
:10C81800A61932899A81B288DA81F2689A600FE0A3
:10C8280002221A701A325643A61932899A81B2889E
:10C83800DA81F2689A60327C063A51424A411A74A7
:10C848001800FFF7E7FB1C22206F00215043201837
:10C8580006F0C1FE636F002B21D00321226F013B3C
:10C8680001320A4022676367002B18D00020FFF7C7
:10C878008FFD78E603221A7019325643A619F288FA
:10C888009A813289C8E704221A7018325643A619C9
:10C89800F2889A810022DA81D2E70522B2E70421E0
:10C8A800074A13788B4313705DE61B68FFDEC046AA
:10C8B8002C36002074350020003600202036002059
:10C8C8007035002010B50800FFF762FD10BD0000AC
:10C8D80010B5054A042311780800184003D10B430A
:10C8E8001370FFF755FD10BD70350020044B02682A
:10C8F800190038318A4201D01300083303607047A9
:10C9080028350020F0B5204F85B07E6F0C000192CD
:10C918000023032E34D808251C4A6D1A526C009245
:10C92800AA422DD803253B6FF3181D401C236B43E7
:10C93800FB1826C826C326C826C300680136186017
:10C948007E670123002C1BD0104B009A1B6C00261D
:10C95800D21807231A400D4BD20099180391019A57
:10C96800F300D318039A013603CB03C203A8FFF7D9
:10C97800BDFFB442F3D1054B5A6C14195C64012312
:10C98800180005B0F0BDC0468835002028350020C5
:10C99800F0B58BB001933C4B0D00197802230600CB
:10C9A8001800194229D00330002D26D02988374B8A
:10C9B8000138994221D06B88002B1ED00023032414
:10C9C80068682989994204D8002A18D117000430C8
:10C9D8000AE0DF00C759274253D10133F2E7D300F9
:10C9E800C35A0132FF18BFB29142F8D802AB991C62
:10C9F8003800FFF759FB002805D00BB0F0BD1188AF
:10CA080002AB59805788019B03AC23700023237421
:10CA180002AB5B881E4A638203232989A3821368B9
:10CA2800A17501331360E3602B8823816B88E7804D
:10CA3800A380019B032B03D1013323743368A361C3
:10CA480000236A6820006381FFF75CFF00280AD191
:10CA580002AB5B880F4A1B01D21853890830033B8D
:10CA6800DB1B5381C9E7002E07D00023E2687360FF
:10CA7800B372094B32601B893381FFF729FF00200D
:10CA8800BBE70320B9E7C04670350020FFFF000070
:10CA980084350020003600207435002010B5064982
:10CAA8000C220B78082B05D0044A9C00A0500022C9
:10CAB80001330B70100010BD283600200835002007
:10CAC800F0B58FB01422002102A806F084FD554B62
:10CAD80002271B781800384005D002A8FFF79AFAF9
:10CAE80000200FB0F0BD01241D002540F9D14D4AAA
:10CAF8002343137000F06CFA07AB1C702E002C0057
:10CB08000195494B1868494B401902689A4206D169
:10CB18004368474A934215D0464A934234D080220C
:10CB28000300D20082181968013173D104339A4284
:10CB3800F9D1414B1A68002A35D118609F8001232A
:10CB480001933AE000223D4923015A54CA18506023
:10CB58001A0008330E328A18C918FFF76BFA013425
:10CB68003E43A4B28023DB00ED18C0231B019D4285
:10CB7800C7D1F0B20B283AD806F07CFC4A364A36C0
:10CB880039472D4739414441019B002B18D12A4987
:10CB9800002201C1FFF74EFA274B9A880423022A84
:10CBA8000CD0DB180AE0254B2201D7549B1858609B
:10CBB8001F81234B5C800134A4B201231E43D1E7BB
:10CBC8001E4B2201D7549B181B4A013412681F813F
:10CBD8005A60A4B2DBE7134B1A78022313430122ED
:10CBE8009343104A137078E7002207AB1A710022AA
:10CBF80007A81100FFF786FEFFF76AFE70E707AB8C
:10CC08000322F3E707AB0222F0E707AB0122EDE7C7
:10CC18000B2066E70321094A631C2401A1549CB236
:10CC2800A0E7C04670350020B0330020DEC0ADDE7E
:10CC3800FE011EF1FF011EF1203600200036002003
:10CC48007435002073B5052304000D00002817D0A3
:10CC5800002915D06B469E1D3100FFF7F3FA0A2311
:10CC680000280DD03188074A090152189189636854
:10CC7800013191812B600C336B600123A372002377
:10CC8800180076BD0036002037B504000520002CBA
:10CC980018D06B469D1D29002000FFF7D3FA03002A
:10CCA8000A20002B0ED02A88074B12019B189A895C
:10CCB8000438002A06D0A17A002903D00020013ABE
:10CCC8009A81A0723EBDC0460036002073B50B4B5A
:10CCD80004001A7802230D0018001A420DD0033000
:10CCE800002C0AD06B469E1D31002800FFF7DCF9A6
:10CCF800002802D133886580238076BD70350020F6
:10CD080030B50E4B0200197802231800194214D0CE
:10CD18000330002A11D013880138022B0DD8834024
:10CD280007495488C9184B891D1B032D05D42B00AE
:10CD38000020033B4B811080508030BD70350020AF
:10CD48000036002010B502230022FFF721FE10BD97
:10CD580010B50523002A03D0033BFFF719FE030093
:10CD6800180010BD10B50523002804D0023B00228E
:10CD7800FFF70EFE0300180010BD0000022200B5E8
:10CD88000E4B89B019781300114214D00C4ADB18E5
:10CD9800904210D0052201AB1A70043A1A71002291
:10CDA800D88011001800FFF7ADFD0823002802D035
:10CDB800FFF78EFD0023180009B000BD7035002074
:10CDC800FFFF0000022200B50D4B89B0197813004F
:10CDD800114212D00022043301A811000370FFF79A
:10CDE80091FD0823002808D0064B1A78002A01D0A4
:10CDF80001221A73FFF76CFD0023180009B000BD6B
:10CE0800703500207435002037B50C0069460500E0
:10CE1800881D01A905800C80FFF76AFA3EBD13B58D
:10CE280013006A460C00911D088022000020FFF7BD
:10CE38005FFA16BD13B513006A460400901D0A0078
:10CE480000210480FFF754FA16BD0523002804D0FA
:10CE5800002902D003680B60002318007047000007
:10CE6800BFF34F8F034B044ADA60BFF34F8FC046BE
:10CE7800FDE7C04600ED00E00400FA0529DF704731
:10CE880028DF7047094B5A6E013A5A66002A04D1C6
:10CE9800022007490A7882430A701A6E0132042A6E
:10CEA80001D01A6670470022FBE7C04638360020DA
:10CEB8003436002070B50B4D04006A6E0020042A39
:10CEC8000FD02B6ED318032B00D9043B01326A66AE
:10CED80018225343ED180021280006F07CFB01209E
:10CEE800256070BD3836002030B5040085B00D00CF
:10CEF80010220021684606F06EFB237A012B0AD027
:10CF0800022B10D0636829000193236868469B6848
:10CF1800984705B030BD00236A4613702369029311
:10CF2800A38A9381EEE701236A4669461370A289B2
:10CF3800E3894A81D31A0B81E4E700001B4B70B5E3
:10CF48005A6E002A27D018241D6E6C431C19227AA9
:10CF5800012A06D0022A22D009212000FFF7C4FFA7
:10CF680019E0A28AE08A121AFF2A15DC92B2182167
:10CF780069435B18D9681B69800009181818FFF7FE
:10CF88007DFF11280FD1022209490B7893431A001B
:10CF9800042313430B7070BD80225200E7E7A08979
:10CFA800FFF76EFFEDE70028F5D0D5E7383600200B
:10CFB80034360020062310B5044A1178194204D1EA
:10CFC800043B0B431370FFF7B9FF10BD3436002044
:10CFD800F0B5284B85B05B695A1C03D180235B05EB
:10CFE8005B699B020121244A12780292114010D1F8
:10CFF800224C234A2000121B1209019291420BD1A4
:10D0080000200199814213D10123029A13431A4A3D
:10D018001370002005B0F0BD0568002D05D04568E7
:10D02800019E6F1EBD41751B019501311030E5E76A
:10D038000027C1B203913D002100954209D103990F
:10D048000130090109190D7B4B60AD025B1B0B60B8
:10D05800D7E70E68002E02D04E68002E06D14E7B10
:10D06800B446BE4202D96746EEB203960135103186
:10D07800E3E7C0460010001034360020B03300202B
:10D08800C0330020F7B5170001221E001D4B0D000C
:10D09800197804001300114231D0931800282ED0BB
:10D0A800194A90422BD3194A904228D203221300DE
:10D0B800002F24D0002D22D0390029439318114283
:10D0C8001DD10268013BAA4219D8B2004168AA18CA
:10D0D800914214D3013B002E11D001A8FFF7EAFEBC
:10D0E800072300280BD0019B089A1C605A60012274
:10D0F800DF601A721D619E82FFF75CFF0023180033
:10D10800FEBDC04634360020B0330020C0330020B6
:10D11800F7B5160001221F001A4B0C0019780500FC
:10D12800130011422CD09318002829D0164A904297
:10D1380026D3164A904223D20133002C20D0A205D0
:10D148000333002A1CD10268013BA24218D8B2025C
:10D158004168A218914213D3013B002E10D001A8B8
:10D16800FFF7A8FE072300280AD00222019BA40A81
:10D178005F601D601A729C811E82FFF71BFF0023EF
:10D188001800FEBD34360020B0330020C033002024
:10D198000323002803D0034B5B6E036000231800B1
:10D1A8007047C04638360020022270B5294904006D
:10D1B8000B78134241D01823274A156E6B43D018B9
:10D1C800022C04D0032C2CD0FFF7B8FE70BD002130
:10D1D800224B1970037A012B0CD0022BF4D18389CE
:10D1E800028A01338381C38901339BB2C3819A4286
:10D1F800EAD10EE0848AC38AE11AFF290EDC89B2DB
:10D208005B18182169439BB25218D38200219C42B3
:10D21800DAD1FFF769FEFFF735FED5E7802149002F
:10D22800EEE70E4A13780133DBB2032B01D81370F3
:10D23800CAE7002308211370EBE704200342C3D098
:10D24800834305480B70406E0028BDD013430B7014
:10D25800BAE7C0463436002038360020A036002011
:10D268000023012110B504001C419AB20C4203D1DD
:10D278000133082BF7D1014A100010BDFFFF000051
:10D2880070B504AC2578002810D000290ED0002AEB
:10D298000CD000246600865B9E4211D10123A34076
:10D2A800DBB2DC438A18E4B28A4200D170BD087848
:10D2B800002D03D0184308700131F5E72040FAE744
:10D2C8000134082CE6D1F1E707B5009313000122D9
:10D2D800FFF7D6FF07BD10B5031E07D00024630073
:10D2E800C35A934204D1214101230B40180010BDB9
:10D2F8000134082CF3D10023F8E7F0B50B1E0FD04A
:10D30800002301261C0015002541354205D0670081
:10D318005D00CF5B4519AF8001330134082CF2D191
:10D328000360F0BD1FB50478012C11D1042302AAB3
:10D338001370436811491B7811481371220000F0DB
:10D348000BF9104B1C70104B02A81B6898471FBDA7
:10D35800022C0AD102AB1C70C36801220749084895
:10D368000193039300F0F8F8EDE7002CEFD10323C5
:10D3780002AA1370044B10001B68E7E7A8360020C8
:10D38800C0330020A9360020A4360020F0B589B0AB
:10D3980069460D0004009C461B48C8C8C8C5C8C8D3
:10D3A800C8C548C848C5606963468861207C0B7752
:10D3B800451EA8410875637C0E205D1EAB415B428B
:10D3C8001840E36848758B60A368CB6023684B609E
:10D3D800636800930D4B0E4D1A6000220D4B280018
:10D3E8001A700D4A00F02AF800280AD12368013380
:10D3F80007D0280000F044F901220849280000F06D
:10D40800ABF809B0F0BDC046E83B0200A4360020E6
:10D41800C0330020A93600202DD30100A8360020F3
:10D428001FB501236A461370034B107201916846B9
:10D4380006CB904705B000BDAC360020F7B5019289
:10D44800037905001C20584300933D4B1B18DB7ED5
:10D458000820002B73D10B6828685A1C0CD00124B3
:10D46800A026A1279C40F605FF00F4511C000327C5
:10D47800C134FF34A400A7514C68621C07D02600B1
:10D48800A0270022C136FF36B600FF05F2518A698F
:10D498002C4E82510F7D4E7D2B4A3E4386502B4E9B
:10D4A80084512B4C0351012F20D18C68631C07D069
:10D4B8002300A0260027C133FF339B00F6059F51A8
:10D4C800CB685A1C0CD00126A027A1229E40FF053C
:10D4D800D200BE501E000322C136FF36B600F251FC
:10D4E800A126F6008351A223DB00C4501C23009A16
:10D4F800134C5343019AE61872600A691A51019B4A
:10D50800002B0DD003000022FC33097F1A629A64B5
:10D51800C123104A9B00C250000B40B200F0A8F98A
:10D52800A02304212A68DB00D1501C23009A002084
:10D538005343E41880235B002076E0826383FEBDBA
:10D54800AC360020240500006C050000140500001E
:10D558000C050000800002001C23F7B50579474C34
:10D568006B43E3185E68002E05D0C2238127046848
:10D578009B00BF00E7501C236B43404CE318DF7D42
:10D58800002F0ED01F7E002F4AD01122002E06D069
:10D59800C123812102689B008900D150112210000B
:10D5A800FEBDDA75D9605F761F761C236B4333495D
:10D5B8000268CB189B7E002B07D1002F05D11300E2
:10D5C800FC339F62DF60012313601C236B432B49EC
:10D5D800CB185968002946D1FC3291641A001732D9
:10D5E800019207683E00FC36B16AF26894466446C8
:10D5F800B26C002C18D1002A01D10029F1D01C23CB
:10D608005D431E4B5C190023E375994232D19A425F
:10D6180032D10368A07E0121002822D01960BEE71C
:10D6280019611A760127C0E70C001443E7D1019A63
:10D638001178A322D200002909D1F160BA580199C2
:10D648005A7E09789142CCD800210A00D7E7F460C5
:10D65800597EDC68BA5862545A7E0132D2B25A7680
:10D66800EDE759609BE7C12381219B008900D150D8
:10D67800002294E7032292E70F2290E7AC360020BD
:10D688001C2302795A43074B9B189A7E002A07D11C
:10D6980001680800FC308262C26001320A609A7632
:10D6A8007047C046AC360020C12330B54C4C9B00B7
:10D6B800E25885B04B4D92054CD5AA6A002A49D04C
:10D6C80000238122AB62C22392009B00E250464BAA
:10D6D8009A7E002A01D101326260022269460A70EC
:10D6E8009021C90062586846625069460392DA7D03
:10D6F8000A72DA6801920022DA751A7606CB904728
:10D708002B6A002B0FD00022374B988A997D2A620A
:10D7180088425AD29A8A9968895C9A8A013292B266
:10D728009A82324BE150AB6C002B11D00023AB64D2
:10D738002D4B9A7E002A01D001222260DA7D002A30
:10D7480006D00022587EDA75C0B2D968FFF768FEA5
:10D7580005B030BDE3585B07D2D5EB68002BCFD0BE
:10D76800A322214BD200D97D002914D1E960A25807
:10D778005A7ED97D9142C3D11A7ED968002A15D024
:10D78800DA751A69587EDA600022C0B21A765A76BB
:10D79800FFF746FEB4E70021E960597ED868A25831
:10D7A80042545A7E0132D2B25A76E1E79A7E002A72
:10D7B80001D101326260C222812092008000A05013
:10D7C8000022587EDA75C0B2E2E70029ABD068467D
:10D7D80001729968027001919A7506CB9047A2E789
:10D7E80000200040FC200040AC3600201C05000052
:10D7F800094B70B51C0005000834002801D010330F
:10D808001C002368002B05D01A68280022605B687A
:10D818009847F6E770BDC046C8360020114B10B5D2
:10D828001A68002A0BD000208021C2221860012328
:10D838009200C9058B500C4A5370FFF7D9FF0B4B68
:10D848001A68002A0CD000221A608022C223022102
:10D8580001209B00D205D150034B9870FFF7C8FFF9
:10D8680010BDC04600010040C83600200401004039
:10D8780030B5FF2503232C00C2B21340DB009C40C7
:10D8880089012940E4439940002814DA0F23134002
:10D89800083B0E489B089B001B18D869044021438D
:10D8A800D9611F23C0211A401E3B9340084A4900F2
:10D8B8005350136030BDC025054B80088000C01848
:10D8C800AD0043591C4021434151EAE700ED00E017
:10D8D80000E100E0A0238000DB05C018E023DB00A6
:10D8E80010B5C258034C09042240C250C258114313
:10D8F800C15010BDFFFFFCFF0122054B81005242C1
:10D90800CA50032802D91B183C331A707047C04606
:10D91800DC36002070B5134D08202B0044331C78EA
:10D92800002C1ED12A002300FF212032D1540133BC
:10D93800202BFBD120000134E4B2FFF7DDFF082CD7
:10D94800F8D103210620FFF793FF0020064B802122
:10D958001860C123054A9B000906D15001234435AC
:10D968002B7070BDDC3600207C61004000600040F8
:10D97800034B44331878431E9841C0B27047C046E1
:10D98800DC3600200300F7B52D4801928446C01804
:10D998000130C47F08207F2C09D9CE780424002EBA
:10D9A80001D000240438264F844201D10420FEBD52
:10D9B800A500EA59013231D1F818019A0130C4772B
:10D9C8007A51002E02D13F193C373B708A78002AE1
:10D9D80026D0A020E027C0059A00FF001218D059D1
:10D9E8000227B843E027FF00D0510A78002E20D044
:10D9F8001449154C6D18A221C90068581B02204013
:10DA08006850F82040010340C020120480026C587E
:10DA18000240134323436B500020C8E70134C3E797
:10DA28001A00A0274878C132FF3280009200FF0513
:10DA3800DAE764443C34237892011A432270EBE716
:10DA4800DC36002000600040FFE0FCFFF8B51E4C0B
:10DA580023180133DB7F5BB2032B17DDE3183C335C
:10DA68001978890903290AD1A022A223D205DB004B
:10DA7800D358C340DB0707D5FFF72CFFF8BD0139A2
:10DA88004B1E99410231F7E70221F5E7DAB2032A82
:10DA9800F4D8A22601200D4A9D00AF18F600BA5905
:10DAA8000243BA511A00002740329200074E92B240
:10DAB8009751B942E2D02A59BA42DFD09840C123DF
:10DAC8009B00F050DAE7C046DC36002000600040DA
:10DAD800A022A223D205DB00D358C340012018405E
:10DAE80070470000F0B50024C1250122260087B048
:10DAF8004F4B504850490394AD001F68012F04D183
:10DB080047593A4201D01E601443043352008B42F5
:10DB1800F3D14A4B1A68012A0AD100221A608023DD
:10DB28001B061C43A022A223D205DB00D358039373
:10DB3800230718D0A22701260025FF0026420ED071
:10DB48003C4AAB009A18D059D1593D4A9B58002BF2
:10DB580005D00322090CC0041140C00E98470135B6
:10DB68007600042DEAD1002C5CDA00230493013BF3
:10DB780000273E000593324B1A0040329457621C2E
:10DB880043D0E4B2C0222500072095432040BF3A85
:10DB98008240E90805A8405C024236D05819013095
:10DBA800C07FA40940B28000C3580193002B07D15D
:10DBB800032C2AD104AB5B1818781043187001E0C5
:10DBC800032CF7D02B00A020C133FF33C0059B00E6
:10DBD8001B5803A8415C9B039B0F0A420AD0022BE7
:10DBE80013D1032C0BD1210028000137FFF772FE57
:10DBF800FFB204E0032B08D10221032CF4D0019BCF
:10DC0800002B02D02100280098470136042EB2D1FB
:10DC1800002F07D0A022A223D205DB00D358039AF5
:10DC2800934201D107B0F0BD0393049BA0E7C0461F
:10DC38000061004000600040106100407C610040CD
:10DC4800DC360020F7B5040025009C4608AB1E789A
:10DC580009AB1B7808780193FC35002852D113785A
:10DC68000093AB6A002B04D0A862012363610B7098
:10DC780012E02F6A002F23D02B62AF6A002F01D049
:10DC8800AB62F2E713789E4212D96146C95C204B19
:10DC9800E150137801331370009B0120B3420CD17B
:10DCA800FC34A3680120002B07D00020A06004E00A
:10DCB800019A0123002A01D0E361FEBD6361EBE70D
:10DCC800EB68002BE8D0EF60AB6A002B01D0AF62A5
:10DCD800CBE713789E42DFD9A3216046C90061587B
:10DCE800C15413780133DBB21370721E934206D10C
:10DCF800802302229B00E25001232362CCE79E424C
:10DD0800FAD1C9E70023AB622B62EB60C8E7C046D3
:10DD18001C0500000A4A83588350002083420DD016
:10DD28000130084A18400138104082221202801837
:10DD38009A0700D504485B0700D504487047C046D9
:10DD4800C4040000037EFFFF01820000028200007D
:10DD5800F0B585B003920A001E000023FC329360E0
:10DD680093621362D360C21DD3778022071DFB77AD
:10DD7800013305000C0092009E420ED10221A150F1
:10DD8800236223602B68002B09D000200E4BAB6068
:10DD9800AA687E33E25005B0F0BD8B50F0E700234F
:10DDA8002A00290001930096039B26322331200084
:10DDB800FFF748FF0028F2D1FB7F002BEBD02000B3
:10DDC800FFF7A8FFE7E7C04686020000084B0949AD
:10DDD8001A680423C046C046C046C046C046C0466E
:10DDE800C046C0468A4200D0C046013BF2D17047C7
:10DDF800F03300200024F400F0B585B01F000AAB12
:10DE08001B7816000A0003930023FC329360936288
:10DE18001362D36080220C0092008B50C21D011D3A
:10DE2800D377CB7701332362A360D17F05008F427C
:10DE380010D9715C154BE150D37F0133D3772B6830
:10DE4800002B0ED00020124BAB60AA687E33E25044
:10DE580005B0F0BD039A002A01D0E361EFE76361E2
:10DE6800EDE72A002900039B00970193263233002F
:10DE780023312000FFF7E6FE0028F2D10435EB7FBE
:10DE8800002BE5D02000FFF745FFE1E71C05000067
:10DE980086020000F0B50C000A00A61CF37F89B0CA
:10DEA8000193671CFB7F263200932331E369050049
:10DEB800FFF7C8FE00281ED1231DDB7F9C46A369FF
:10DEC80003936346002B1DD1207B831E012B19D899
:10DED800E3692269934215D103996269E37B890654
:10DEE800C90FE261FB77F177032806D10091200082
:10DEF8002900FFF781FF09B0F0BD29002000FFF7D6
:10DF080027FFF8E7220005AB0C32C2CAC2C363463A
:10DF180004A8002B06D00B4AAB58AB500222134280
:10DF280002D00123037002E05B0700D502700022D3
:10DF3800631DDA77039B5B07DDD423686168984724
:10DF4800D9E7C046C4040000F0B5282685B0039080
:10DF58000C0001794A4F4E430191B919C81CC57F7D
:10DF68000820002D77D14B608D60F2510B188A1D67
:10DF78000531D577CD77A27BDA77637B002B3DD04F
:10DF8800A0206368C0050293A02384462168029AF2
:10DF98008F00DB059200FF189444E0236246394E57
:10DFA800DB00FE50D650012216008E40A121300021
:10DFB800A026C900F605705002988240725061464A
:10DFC800314AFA50CA50FFF701FFA223DB00F35889
:10DFD80062680127D3403B423FD0002D0ED0012577
:10DFE8002B006268A0269340284AF605B350FFF735
:10DFF800EDFE63689D40A123DB00F5502168A02059
:10E008000B00C1331F4DFF33C0059B001D506268D4
:10E018001300C133FF339B001D50039B184D186834
:10E02800A123DB00C150194BC250194BA268C25042
:10E038002823019A53435B59002B04D0000B217B02
:10E0480040B2FFF715FC2823019A00205343ED182E
:10E0580001230335EB7705B0F0BD3B00226801359D
:10E0680093400A4AB350FFF7B1FE23689F40A123AB
:10E07800DB00F750FFF7AAFE092DA6D1AFE7C0468F
:10E08800243700200C0600000D0600000C050000D7
:10E0980024050000A023027901680520DB00C85090
:10E0A80028235A43024B9B1802220333DA7770471E
:10E0B80024370020F0B5160085B00B00B20702D057
:10E0C800062005B0F0BD0279039202680120029291
:10E0D800C2220299920040428850039A2930504344
:10E0E800274A1018471DFA7F002A05D0C1238268E5
:10E0F8009B00CA501120E4E70125B2089543082285
:10E108003240FD779446DBD102001D0086610C3257
:10E1180092CD92C29F78421CD777B1275A6802994C
:10E12800C2615D78FF00CD511F78012F20D00124F6
:10E13800A446002F02D176092640B4466546282712
:10E1480025402C0003990E4D4F43EF190237FC77F9
:10E158009B7802990094FFF74FFE2822039D084BF5
:10E168005543EA58002AACD15B190533DA77A8E79A
:10E178006546841CE5779B780299FFF7E9FDECE793
:10E1880024370020F0B587B001930CAB03AC1D78A1
:10E1980006000F00009200210C22200005F01BFA57
:10E1A8002A00551EAA41019B5201A370009B210021
:10E1B800300067706360FFF77DFF07B0F0BDF0B512
:10E1C80087B0019302AB05000F00160000210A2258
:10E1D800981D05F000FA012303AC2370019B00226F
:10E1E800210028006770A3706660FFF763FF07B01F
:10E1F800F0BD000010B502490248FFF74BFE10BD04
:10E20800243700200030004010B503490348283166
:10E21800FFF740FE10BDC0462437002000400040F4
:10E22800A022044BD205D358034A125C0120D340E4
:10E2380098437047040500000C3C0200044BA021E1
:10E248001A5C01239340034AC9058B507047C046A6
:10E258000C3C02000C050000044BA0211A5C0123B1
:10E268009340A122C905D2008B5070470C3C020094
:10E2780010B50020FFF7F0FF0120FFF7EDFF0220A7
:10E28800FFF7EAFF0320FFF7E7FF10BD10B50020F6
:10E29800FFF7D4FF0120FFF7D1FF0220FFF7CEFFE1
:10E2A8000320FFF7CBFF10BDA022084BD205D158A1
:10E2B800074B10B5185C012383401C00A1208C4338
:10E2C8000B400449C0001450535010BD0405000011
:10E2D8000C3C02000C050000A02303220649DB05C4
:10E2E80010B55A5004315A5004495A5004315A5002
:10E2F800FFF7BEFF10BDC046540700005C070000D2
:10E30800A022A223D205DB00D358034A125C0120C5
:10E31800D34098437047C046083C020000231128A8
:10E3280009D00133122806D00133132803D0013352
:10E33800142800D0043B180070470000014B185CFB
:10E348007047C046083C020000280FD0084B094A15
:10E358001B68C046C046C046C046C046C046C04608
:10E36800C046934200D0C0460138F2D17047C0463B
:10E37800F03300200024F40076DF70477ADF70471E
:10E388007CDF7047A8DF704767DF70473CDF704766
:10E3980048DF7047704700000B78002B02D101223C
:10E3A800014B1A707047C04698390020037810B5A1
:10E3B800022B03D14068FDF7BFFA01E0012BF9D029
:10E3C80010BD10B5FDF7B8FA10BD10B5FFF7E0FFA6
:10E3D800002801D0FDF7B0FA10BD10B50020FDF7F8
:10E3E800B5F8002801D0FDF7A7FAFDF769F900286C
:10E3F80001D0FDF7A1FAFFF7C9FF002801D0FDF70A
:10E408009BFA10BD10B50400FEF7CEFE200001F007
:10E4180049FF10BD1FB5040002F090F8200003F07A
:10E4280079FE2849200000F0A7FE2749200000F0C7
:10E43800A3FE200002F02CF82000FDF753F92388F2
:10E44800112B13D007D8022B23D0102B16D0200065
:10E4580001F0F2FE1FBD512B20D0552B01D03A2BD5
:10E46800F5D1A0881321FFF787FF02E00020FDF710
:10E478006DF80028EBD0FDF75FFAE8E70720FDF715
:10E4880065F8002801D0FDF757FAA2880F4B1A80CB
:10E49800DDE7A0880021FFF777FFEAE7A379002BE3
:10E4A800D5D0A27B043A022AD1D8022B00D001236E
:10E4B8006A461370C1235B009380A0886946FFF702
:10E4C80061FFD6E75438002078380020E833002070
:10E4D80007B5030000780E2826D804F0CBFF0825DE
:10E4E80008101F2631252B25312D3125330098881A
:10E4F80003F060FF112817D0002815D00BE0134A4D
:10E508005989914210D15888012103F085FE0823CA
:10E5180002009A4308D0FDF70FFA05E0002201A98E
:10E528000A70588803F086FE07BDFEF74BFC0E28DC
:10E53800EDD1F9E70020EEE7032001F06DFDDBE700
:10E548009868D9E703F07AFEEEE7C04606100000A7
:10E55800037810B5002B08D1044B3B211888FFF72E
:10E568000BFF002801D0FDF7E7F910BDE8330020C4
:10E5780010B5074A137801331370064B1B78012B2B
:10E5880005D1054800210200083201F03FF910BD0D
:10E5980074390020983900205438002010B5072815
:10E5A80012D00A280DD004280DD10B4B132118883E
:10E5B800FFF7E2FE082302009A4304D0FDF7BCF9F6
:10E5C80001E0FFF70AFF10BD034B1A88034B9A427C
:10E5D800F9D101F083FEEDE7E8330020FFFF0000EA
:10E5E80010B5002809D0032806D10138FCF7AEFF82
:10E5F800002801D0FDF7A0F910BDFFF7EEFEFBE7FC
:10E60800A023EF210322DB05C9005A5078395A505C
:10E6180002495A5004315A507047C0460407000056
:10E628001FB510230093013B0193CC235B04002208
:10E63800029369460123074C039220000B731300D1
:10E64800FFF782FC002801D0FDF776F92000FFF7DC
:10E6580021FD1FBD603C02001FB503AC63700023A1
:10E66800227001000093220002330248FFF78AFD5E
:10E678001FBDC046603C02001FB5002303AC2170DB
:10E68800627001000093220002330248FFF77AFD0E
:10E698001FBDC046603C02007FB5012306000A4D3D
:10E6A80002AA117003AC009301002800FFF76AFD6D
:10E6B8000223220031002800FFF781FD63782078CB
:10E6C8001B02184304B070BD603C0200F0B5012481
:10E6D800070085B0094E02AA11702300010003AD9E
:10E6E80000943000FFF74EFD23002A003900300067
:10E6F800FFF765FD287805B0F0BDC046603C020014
:10E7080010B504212320FFF7E1FF38233022984376
:10E718000243D2B223200421FFF7AEFF002010BD30
:10E7280010B504212320FFF7D1FF38220243D2B2CB
:10E7380023200421FFF7A0FF002010BD10B50748D3
:10E7480004F00AFF032001F067FCFFF7D9FF044833
:10E75800FFF7FAFDFFF7E4FF10BDC0463B3C02009F
:10E76800400D030010B504212320FFF7AFFF072356
:10E77800032298430243D2B223200421FFF77CFFEF
:10E78800002010BD10B504212320FFF79FFF0723A9
:10E79800012298430243D2B223200421FFF76CFFE1
:10E7A800002010BD10B504212320FFF78FFF07229A
:10E7B8000243D2B223200421FFF75EFF002010BDE0
:10E7C80010B5054804F0C8FEFFF7CCFF0348FFF773
:10E7D800BBFDFFF7E7FF10BDD03C0200400D030072
:10E7E800A022A12310B502210424DB00D205D450B5
:10E7F800D1500139D1508021C905D15022202100A2
:10E80800FFF764FFBF2210408F3A02432100222005
:10E81800FFF732FF002010BDA022A12370B502210E
:10E828000424DB00D205D450D1500139D1508021C5
:10E83800C905D15022202100FFF748FF0521050016
:10E848002220FFF743FF7F2206002A4021002220D2
:10E85800FFF712FF03223243D2B205212220FFF72D
:10E868000BFF002070BDA022A1230421D205DB00EC
:10E8780010B5D1500239D1500139D1508021C90584
:10E88800D15022200621FFF721FFF722062102405E
:10E898000A432220FFF7F0FE002010BDA022A1238A
:10E8A8000421D205DB0010B5D1500239D15001390D
:10E8B800D1508021C905D15022200621FFF706FF3B
:10E8C800BF2210408F3A024306212220FFF7D4FED0
:10E8D800002010BDA022A12310B502210424DB00D2
:10E8E800D205D450D1500139D1508021C905D15019
:10E8F80022202100FFF7EAFE70220243D2B2210053
:10E908002220FFF7B9FE002010BDA022A12370B578
:10E9180002210425DB00D205D550D1500139D15050
:10E928008021C905D15022202900FFF7CFFE0521FB
:10E9380006002220FFF7CAFE8022524232432900F5
:10E948000400D2B22220FFF797FE03222243D2B25C
:10E9580005212220FFF790FE002070BDA022A123F0
:10E968000421D205DB0010B5D1500239D15001394C
:10E97800D1508021C905D15022200621FFF7A6FEDB
:10E988000E220243D2B222200621FFF775FE002094
:10E9980010BDA022A1230421D205DB0010B5D1505F
:10E9A8000239D1500139D1508021C905D1502220D6
:10E9B8000621FFF78BFE70220243D2B222200621E5
:10E9C800FFF75AFE002010BDA022A12310B5022196
:10E9D8000424DB00D205D450D1500139D150802114
:10E9E800C905D15022202100FF22FFF745FEFF2252
:10E9F80005212220FFF740FEFF2206212220FFF7F3
:10EA08003BFE2100FF222320FFF736FEFF220521CF
:10EA18002320FFF731FEFF2206212320FFF72CFEDB
:10EA2800002010BD10B500220C212320FFF724FE82
:10EA380000220D212320FFF71FFE00220E21232094
:10EA4800FFF71AFE10BD10B500220C212220FFF797
:10EA580013FE00220D212220FFF70EFE00220E21B8
:10EA68002220FFF709FE10BD002310B519001A0077
:10EA78001020FFF7F1FD00211020FFF70DFE431EC7
:10EA88009841C0B210BD000030B58BB004A8020098
:10EA98000D4B32CB32C232CB32C20C4B0C4A0093F4
:10EAA80080235B000193029203930A4AFD3B694667
:10EAB800FEF76CFC002801D0FCF73EFF064804F086
:10EAC8004BFD0BB030BDC046103C0200AC390020F5
:10EAD800AC3A0020B5E301002C3C020013B5012438
:10EAE8006A46E1B2012307320648FFF768FB0028AF
:10EAF80003D12100044804F02FFD0134802CEFD10C
:10EB080013BDC046603C0200E63C020013B5134842
:10EB180004F022FD124901AC04221831200004F04F
:10EB28004FFD03230F4A210005206370FEF72AFFDB
:10EB3800002801D0FCF700FF01210520FEF786FF21
:10EB4800094A21000320FEF71DFF002801D0FCF729
:10EB5800F3FE01210320FEF779FF13BD503C0200AC
:10EB6800103C0200C9E7010045E70100032300212A
:10EB780030B5124D87B005AA138091702800009116
:10EB88006031FFF7FFFAF22303AA1370F13B04ACDC
:10EB9800009360212800FFF7F5FA02232200602184
:10EBA8002800FFF70CFB22786178054804F0D4FCB4
:10EBB8000448FFF7C9FB208807B030BD603C02005D
:10EBC800BA3C020050C30000F8B58020A024A1265A
:10EBD800042302220121194DE405F600C005635102
:10EBE800A251A1516051FFF7C1FF154F04233860AE
:10EBF800802002220121C0056351A251A151A051D8
:10EC0800FFF7B4FF78608020042302220121C005A9
:10EC180063516251A151A051FFF7A8FFB86080204D
:10EC2800042302220121C00563516251A1516051A0
:10EC3800FFF79CFFF8603800F8BDC0460C050000DF
:10EC48009C3900200023F0B5E04AA7B00521180040
:10EC5800FDF7E2F8002801D0FCF76EFEDC4A01213E
:10EC6800DC48FDF747F9002801D0FCF765FEDA4AD1
:10EC78000021DA48FDF73EF9802100220902D84830
:10EC8800FDF750F9002801D0FCF756FE802100223C
:10EC98004902D448FDF746F9D34AD4490320FCF782
:10ECA80063FC002801D0FCF747FE17AC21000020C8
:10ECB800FCF75CFD002801D0FCF73EFECC4B482257
:10ECC8000F93CC4900230FA8257804F005FB0028F2
:10ECD80001D0FCF731FE22000121002004F048FB9E
:10ECE800002801D0FCF728FE200004F059FB00287A
:10ECF80001D0FCF721FEC04804F016FB002801D023
:10ED0800FCF71AFEBD4804F019FB002801D0FCF7F7
:10ED180013FE03F011FA002801D0FCF70DFE022DB6
:10ED280005D103F0C9FA002801D0FCF705FE052239
:10ED38000021200004F04FFC179BB14A9B0E9B0654
:10ED4800134317930323227920009A431343237113
:10ED580003F054FA002801D0FCF7EEFDA94803F0AF
:10ED680033FA002801D0FCF7E7FDA025A12680276B
:10ED7800FFF746FC042202210120ED05F600FF05FD
:10ED8800AA51A951A851AF51FFF77EFEFFF748FCE1
:10ED98009D48FFF7D9FAFFF7A1FE9C4804F0DCFB79
:10EDA800FFF7B4FE9A4804F0D7FBFFF73BFEFFF7E6
:10EDB800E9FCFFF709FEFFF746FE042202210120C5
:10EDC800944BAA51A951A851AF51EA50E950A85102
:10EDD800AF51FFF749FE042202210120AA51A9518F
:10EDE800A851AF518C4B1B78012B00D8DFE03C2198
:10EDF8006A461123894D52181370280004F0F4FB59
:10EE0800290082B20FA8FFF7BBFA002801D0FCF74F
:10EE180093FD08220021200004F0DDFB804B200038
:10EE28001793C8235B041893FFF7A8FA002801D0AA
:10EE3800FCF782FD002511237A4A7B4F03AE049527
:10EE480031007371F2807948039700F0C1F93100FD
:10EE5800764800F0FBF931001126744800F0A4FA56
:10EE6800704A05A94D6072484E71CA80059700F036
:10EE780041FB6C4A07A94D606E484E71CA800797DE
:10EE880000F072FB674A09A94D606B484E71CA8051
:10EE9800099700F0A1FB634A0BA94D6067484E71C2
:10EEA800CA800B9700F0D0FB5E4A0DA94D606448FC
:10EEB8004E71CA800D9700F0FFFB1123594A0FAE1F
:10EEC8000F97109531007371F2805E4800F02CFCAA
:10EED8001123544A21005C48656017976371E280EA
:10EEE80000F05AFC3C222900200004F074FB0223A5
:10EEF80001272370554B20226380554B2900300091
:10EF08006361278204F067FB96235B003361783BDB
:10EF18007361F7704F4B009532002900200000F014
:10EF28009FFFA84201D0FCF707FD1C22002120000A
:10EF380004F051FBA02292026260F0220023120327
:10EF4800A26003221793E3812374434B200063617B
:10EF5800424B2273A36101F063FA002801D0FCF749
:10EF6800EBFC012700232360FFF72EFE0025060097
:10EF780031683B4804F0F0FA33681F2B08DD29009C
:10EF8800384804F0E9FA002D14D1FFF729FC27705E
:10EF980001350436042DEBD10023E25C5D1C002A08
:10EFA80074D1002B66D1FFF795FC2B00F5E7FFF72E
:10EFB8000CFA17E7012D03D1FFF72EFC6570E7E780
:10EFC800022D51D1FFF74FFCA770E1E774370020FD
:10EFD80079E50100583C02009DE301005C3C020019
:10EFE8003438002078390020A5E50100CD0C000058
:10EFF80001000007EC3700201DE401000DE40100CA
:10F0080031071003D9E4010040420F00683C0200B8
:10F018007B3C02000C050000743900208D3C020086
:10F028005000A00011110000A1E301005438002095
:10F03800783800209C380020C0380020E4380020B0
:10F04800083900202C390020503900200106000022
:10F05800C8330020E9E5010059E50100CBE30100D0
:10F068009D3C0200A13C0200032D91D1FFF716FC44
:10F07800E7708DE7012B02D1FFF747FC95E7022BDC
:10F0880002D1FFF76BFC90E7FFF783FC2B00042D00
:10F0980000D082E7FFF799F964E7C046A0DF704720
:10F0A800A2DF7047A4DF7047A6DF704763DF7047B1
:10F0B80048DF70470122014B1A707047AC3B0020B3
:10F0C800704710B5FFF7F4FF002801D0FCF734FCB7
:10F0D80010BDF0B593B003AD0F00019003220021DD
:10F0E800280004F078FA112306222B707B790BACE8
:10F0F8006B70AB7800219343043A134320001A3213
:10F10800AB7004F068FA1A230026227865619A43E6
:10F1180013432370019B6660E6602661A661013394
:10F12800DB7F02A98B73A02304AD5B018B810322D3
:10F138003100280004F04FFA1F22BB7931002B70F0
:10F14800FB7906AF6B70AB78380093431D3A1343D5
:10F158001232AB7004F03FFA05AB06930123019A13
:10F168000893BB81019B7D600833908821003A0099
:10F17800FFF796FF13B0F0BD13B50C1E10D0002892
:10F188000ED00388112B0CD0502B10D0102B07D188
:10F198008388CB80032301A90B702000236898473C
:10F1A80013BD01235B42CB8001A90333F4E7C18877
:10F1B800A2899142F4D1038A022BF1D12368002B52
:10F1C800EED0123001F0ACFA012301A94340E3E785
:10F1D80030B5040087B00D000E20002C2ED0002979
:10F1E8002CD01748FDF75AFC2B68164923600123D9
:10F1F8005B42E380102202A804F0E2F9210002A891
:10F208002031FFF753FF002801D0FCF795FB631C62
:10F21800DB7F01A98B700C4B221D01200B80FFF7AF
:10F228003DFF002801D0FCF787FB29002000FFF7ED
:10F2380050FF002802D0FCF77FFB002007B030BD4C
:10F24800C9F001000D3D0200CDABFFFFF0B599B04C
:10F2580001900F000E24002800D186E0002900D17B
:10F2680083E00322002102A804F0B5F9112302AAC1
:10F2780013707B7911AC5370937806229343043A48
:10F28800134302A98B701A320021200004F0A3F95D
:10F298001A230025227865609A431343237002AB32
:10F2A8006361019BE5602561A5610133DB7F02A9EC
:10F2B8008B72A82303AE5B010B8103222900300067
:10F2C80004F089F91F22BB7929003370FB790CAF50
:10F2D8007370B378380093431D3A13431232B370F6
:10F2E80004F079F9274A29002748FCF703FE2A0089
:10F2F800A4212648FCF716FE254B1A78012A37D197
:10F3080000250B32290009A81D7004F064F90822B1
:10F31800290007A804F05FF907AB09AA1D491E4890
:10F32800FDF772FDA84226D105A909A8FDF78AFCB8
:10F33800A84223D1042206A910A804F041F909A87B
:10F34800FDF7A2FC04AB0C930123019A0E93BB8139
:10F35800019B7E602100908810333A00FFF7A0FEE1
:10F368000E49040009A8FDF7FDFC200019B0F0BD06
:10F37800FFF7A7FEC0E70A4B1093E3E7094B10938A
:10F38800DDE7C046BDF00100343D0200B03B00207F
:10F39800AC3B00202222000011110000203D020099
:10F3A800ED330020EA330020F0B599B00190019BBD
:10F3B8000F000E20002B00D180E000297ED0032210
:10F3C800002102A804F007F9112302AA13707B791F
:10F3D80011AC5370937806229343043A134302A95D
:10F3E8008B701A320021200004F0F5F81A2300254A
:10F3F800227865609A431343237002AB6361019BD3
:10F40800E5602561A5610133DB7F02A98B72A82322
:10F4180003AE5B010B8103222900300004F0DBF806
:10F428001F22BB7929003370FB790CAF7370B37856
:10F43800380093431D3A13431232B37004F0CBF8EB
:10F44800244A29002448FCF755FD2A00A421234812
:10F45800FCF768FD224B1A78012A31D100250B32BE
:10F46800290009A81D7004F0B6F80822290007A889
:10F4780004F0B1F807AB09AA1A491B48FDF7C4FC08
:10F48800A84220D105A909A8FDF7DCFBA8421DD197
:10F49800042206A910A804F093F809A8FDF7F4FBC4
:10F4A80004AB0C930123019A0E93BB81019B7E60F0
:10F4B800908818333A002100FFF7F2FD19B0F0BD2B
:10F4C800FFF7FFFDC6E7094B1093E9E7084B1093D8
:10F4D800E3E7C046BDF00100343D0200B03B002028
:10F4E800AC3B00202222000011110000ED33002067
:10F4F800EA33002030B5040087B00D000E20002C40
:10F508002BD0002929D00B681022236001235B42ED
:10F518001349E38002A804F053F8210002A820311F
:10F52800FFF7C4FD002801D0FCF706FA631CDB7F57
:10F5380001A98B700B4B221D01200B80FFF7AEFD3C
:10F54800002801D0FCF7F8F929002000FFF7C1FDD9
:10F55800002802D0FCF7F0F9002007B030BDC04603
:10F568000D3D0200EFCDFFFF30B5040087B00D0060
:10F578000E20002C2CD000292AD00B6810222360E2
:10F5880001235B421349E38002A804F019F8210023
:10F5980002A82031FFF78AFD002801D0FCF7CCF93A
:10F5A800631CDB7F01A98B70C023221D9B010120F6
:10F5B8000B80FFF773FD002801D0FCF7BDF9290087
:10F5C8002000FFF786FD002802D0FCF7B5F90020DF
:10F5D80007B030BD0D3D020030B5040087B00D0006
:10F5E8000E20002C2CD000292AD00B681022236072
:10F5F80001235B421349E38002A803F0E1FF2100E5
:10F6080002A82031FFF752FD002801D0FCF794F939
:10F61800631CDB7F01A98B708023221DDB01012085
:10F628000B80FFF73BFD002801D0FCF785F9290086
:10F638002000FFF74EFD002802D0FCF77DF90020DE
:10F6480007B030BD0D3D020030B5040087B00D0095
:10F658000E20002C2CD000292AD00B681022236001
:10F6680001235B421349E38002A803F0A9FF2100AC
:10F6780002A82031FFF71AFD002801D0FCF75CF939
:10F68800631CDB7F01A98B70A023221DDB010120F5
:10F698000B80FFF703FD002801D0FCF74DF9290086
:10F6A8002000FFF716FD002802D0FCF745F90020DE
:10F6B80007B030BD0D3D020030B5040087B00D0025
:10F6C8000E20002C2CD000292AD00B681022236091
:10F6D80001235B421349E38002A803F071FF210074
:10F6E80002A82031FFF7E2FC002801D0FCF724F93A
:10F6F800631CDB7F01A98B70C023221DDB01012065
:10F708000B80FFF7CBFC002801D0FCF715F9290086
:10F718002000FFF7DEFC002802D0FCF70DF90020DE
:10F7280007B030BD0D3D020030B5040087B00D00B4
:10F738000E20002C2CD000292AD00B681022236020
:10F7480001235B421349E38002A803F039FF21003B
:10F7580002A82031FFF7AAFC002801D0FCF7ECF83A
:10F76800631CDB7F01A98B70E023221DDB010120D4
:10F778000B80FFF793FC002801D0FCF7DDF8290087
:10F788002000FFF7A6FC002802D0FCF7D5F80020DF
:10F7980007B030BD0D3D020030B5040087B00D0044
:10F7A8000E20002C2BD0002929D00B6810222360B2
:10F7B80001235B421349E38002A803F001FF210003
:10F7C80002A82031FFF772FC002801D0FCF7B4F83A
:10F7D800631CDB7F01A98B700B4B221D01200B8062
:10F7E800FFF75CFC002801D0FCF7A6F829002000F0
:10F7F800FFF76FFC002802D0FCF79EF8002007B046
:10F8080030BDC0460D3D02000080FFFFF0B589B055
:10F818006B4606001700DC1DD9710E20002E26D07D
:10F8280002AD08220021280003F0D5FE0123398803
:10F83800F0882A0002936C60FFF734FC002816D188
:10F84800F2880D4B9A4214D004AC0100102220001B
:10F8580003F0C1FE3B88210023800123A3706B883D
:10F86800A560A3806B68E360F088FFF71DFC09B012
:10F87800F0BD0820FBE7C046FFFF00002B4A70B52B
:10F888001368DBB2012B03D129490B681B0700D091
:10F8980070BD284BF0201C68E02625000540344246
:10F8A8003DD1254C246804420DD12448244C0460E1
:10F8B80080242448240204601068C0B20128E7D1DB
:10F8C80008680007E4D1F02418682040402810D1C7
:10F8D8001948006820420CD18024C1200125E40584
:10F8E800C00025501268D2B2AA42D1D10A681207C4
:10F8F800CED11A68F0231A40A02A13D10E4A1268F2
:10F908001A42C5D1104B1A68012A04D00F4A1A604E
:10F918001A68012AFCD1C0220D4B1A60B8E7302DB5
:10F92800BFD0D0E7D02AB3D1E8E7C046E00F00F057
:10F93800E40F00F0E80F00F0EC0F00F004050040C1
:10F94800DFFF07C0186C004000EC0640759300000C
:10F9580014EC064071DF704772DF704779DF70473B
:10F968007DDF704765DF7047F0B5002506002F0082
:10F9780089B001930EAB10CB04911B8803920593B9
:10F98800238802933388BB420EDC0020854209D0CD
:10F998002388029A013B9B1A9BB2FF2B3ED8019AFF
:10F9A8000299535409B0F0BD7368B900591804227C
:10F9B80007A803F005FE06AB0022D91C07A8FFF72D
:10F9C800D1FF0028EED106ABDB78039A934223D10E
:10F9D80069426941238849009A18521805998A4250
:10F9E8001CDC002D08D10133019A04999BB22380B5
:10F9F800D154238801332380019B228807A89A18B1
:10FA080006ABDD1C2900FFF7ADFF0028CAD12B7813
:10FA1800012522889B1823800137B3E70C20C1E712
:10FA2800F0B51D0085B00AAB40CB03921F880222B7
:10FA3800019700962B000400FFF796FF002807D1D6
:10FA4800019700962B00102203992000FFF78CFFE6
:10FA580005B0F0BDF0B5138887B00293002313807A
:10FA680003002D331B7807000D001400002B2BD04A
:10FA7800029B082B01D80C201CE104AE3000FFF7D4
:10FA880069FF002800D015E1082209212388EA54DB
:10FA98002388133201339BB22380EA54208802ABB7
:10FAA800013080B22080153AC918281803F088FD63
:10FAB8002388327806339BB22380002A00D0EAE0FC
:10FAC800EA54238801332380BB78002B22D0238873
:10FAD800029A04330C20934200D9EBE004AE3000C4
:10FAE800FFF73CFF002800D0E4E003222388EA5413
:10FAF8002388163201339BB22380EA542388328844
:10FB080001339BB22380EB181A70120A5A702388AB
:10FB180002332380FA78002A14D023880298D91C4B
:10FB28008142A8D80221E9542388013901339BB2C4
:10FB38002380E95423885B189BB22380EA542388E6
:10FB48005B1823807A68002A16D023880298D91C6B
:10FB5800814290D802211278E95423880831013370
:10FB68009BB22380E954238852B201339BB223808D
:10FB7800EA542388013323803B89002B00D08CE092
:10FB88003B8A002B0CD03800029B0094019307227B
:10FB98002B0003211030FFF743FF002800D089E035
:10FBA8003B8B002B0CD03800029B0094019315224C
:10FBB8002B0014211830FFF733FF002800D079E01C
:10FBC8003B6A002B00D077E07E6A002E2ED0B388E7
:10FBD8002188981C8A1C12189446029A944500D9C8
:10FBE80049E7FE2800D946E7FF2203336B542388F0
:10FBF80001339BB22380EA54238801339BB22380CC
:10FC08003288EB181A70120A5A702088023080B2B3
:10FC18002080B288002A09D0B168002955D0281858
:10FC280003F0CEFC2388B2889B1823803B002C333A
:10FC38001B78002B00D07FE03B78181E3AD03A881A
:10FC48000720012A36D022880299901C884200D9C0
:10FC580011E7012B06D17B78029902339B18994250
:10FC680000D208E7029E02AB023EB61AB6B22818C6
:10FC780004A91E81FFF774FE00281BD13B78022BD4
:10FC880000D096E002AB1B890922B34200D89AE063
:10FC980002AB1E8196E0012212E73800029B009415
:10FCA800019306222B0002210830FFF7B9FE002835
:10FCB80000D165E707B0F0BD26880299B21D8A42D7
:10FCC80000D9D8E61988052901D80720F2E746485F
:10FCD8000A1892B20392454A9446039A6245F4D9A7
:10FCE8005A88052AF1D9101880B26045EDD94048E4
:10FCF800814203D0824201D09142E6D805221221E6
:10FD0800AA552288013292B22280A954228801324F
:10FD180092B222801988AA181170090A5170228893
:10FD2800023292B222805988AA181170090A5170B9
:10FD380023880233238047E7BB6A002BC5D0002302
:10FD480003933B002C331B78039A934200D873E744
:10FD58000C26039B5E43BB6A9E19B3889A1CFE2A35
:10FD680000D988E622880333AB541622238801334E
:10FD78009BB22380EA54238801339BB223803288C4
:10FD8800EB181A70120A5A702088023080B220804C
:10FD9800B288002A09D0B168002996D0281803F043
:10FDA8000FFC2388B2889B182380039B0133DBB2A6
:10FDB800C6E7012B00D06BE77B789E4200D267E74D
:10FDC80002AA1381082202AB1989FE2900D952E63A
:10FDD80023880131E954238801339BB22380EA54F4
:10FDE80023885918218065E77FF3FFFF7DF3000022
:10FDF800FFFF0000F0B593B06A461F2301AE971DC0
:10FE080004000D0033803B80002820D0C3785B07B6
:10FE180002D4072013B0F0BD320002A9FFF71AFE82
:10FE280002AC0028F6D1002D13D0EB78002BF0D1CE
:10FE380028003A000AA9FFF70DFE0AAD0028E9D10B
:10FE48003B7831782A002000FFF786FDE2E7308012
:10FE5800E9E73D80F4E773DF704774DF704700001F
:10FE6800F8B59C4604000E000E20002C7CD0002A19
:10FE78007AD0002551490D380870514851490D7004
:10FE8800010089CA89C189CA89C109CA09C16346E9
:10FE98004D4A290013604D4B069A4D481A600122BD
:10FEA8004C4B52421A80083203F095FB4A4F290006
:10FEB8003C22380003F08FFB237822003B70A378A4
:10FEC8001032BB70E378FB7063787B703B001033B3
:10FED80003CA03C33B00103A083303CA03C33B00F9
:10FEE8000832183303CA03C3636AAB423DD1A36A1D
:10FEF800002B4AD1236A002B06D0384B3B62226A7A
:10FF08005188598012881A806368002B00D07B6062
:10FF18003349344B0A68D81D506018000E30906081
:10FF280018001530D06018001C30106118002330FC
:10FF38005061180013602A3031339061D3618B68A7
:10FF4800294A31001A60294A38005A60284A9A60BA
:10FF5800284ADA60284A1A61284A5A61284A9A6166
:10FF6800284ADA61FFF746FFF8BD274B27487B622E
:10FF7800626A98601188198091889980A942B6D9D7
:10FF880093685B5D43550135F8E7214B2148BB6217
:10FF9800A26A98609188998015881D8000239942EB
:10FFA80006D823002C331A783B002C331A70A1E7AB
:10FFB8009568ED5CC5540133F1E7C0463C3C002030
:10FFC800D43B0020D13B0020383C0020343C0020AA
:10FFD800A93C0020323C0020F43B0020DC3C0020FF
:10FFE800F4330020E03C0020183D0020283D00208C
:08FFF800383D0020483D0020C7
:020000022000DC
:10000000583D0020683D0020783D0020883D0020BC
:100010005C3C00203D3C0020B03C0020BC3C00206B
:10002000F0B57A4B89B01B78050001930826002BA8
:100030000BD0774F387002A8FDF7AEF8029E002E65
:1000400006D001220026734B1A70300009B0F0BDB3
:1000500007223100704803F0C2FA704C704B2268DE
:100060001A4202D03B78012B05D0A378002B0BD08D
:100070003B78022B08D16B4B6B4A1B68002B13D0CB
:1000800001210820117098470123634AD25C002A9D
:1000900003D10133072BF8D10192681E03283FD802
:1000A00003F0ECF9040A11151370EDE76378002BE7
:1000B00002D0019B002B0ED1A378002B03D0019B13
:1000C0000225002B07D1E3780325002B03D12579E6
:1000D0006B1E9D41AD00534B3D701A68534B002A77
:1000E00020D0033D012D1DD8217800291AD0504978
:1000F0000978002916D1013107201970904718227C
:10010000002102A803F06BFA0023387802AA1370CA
:100110001372042812D803F0B1F96F081D2A4D009C
:100120000025D8E700221A70E9E70123414A13703D
:10013000394A039202AA1370002306933B78002BDE
:100140005DD1384B1B68002B00D17EE7394A10780F
:1001500098477AE70222374B1A702F4B02AA039373
:1001600001231370E3685382A3681382E6E72369CF
:1001700002AA1382636953822378002B17D02C4B79
:100180001978002913D12C4B1A79187B02430ED011
:100190000593022302AA29481372DB18C370FFF7E4
:1001A0002DFE0028CAD10522224B1A70C6E7214B2A
:1001B0000322FAE7A36902AA1382E3695382237830
:1001C000002B16D01A4B1978002912D11A4B1A7924
:1001D000187B02430DD00593022302AA174813721D
:1001E000DB18C370FFF70AFE0028A7D1114B0622C7
:1001F000DBE7104B0422D8E70E4A13709EE702A8F3
:10020000FFF72DFE00289CD006001EE73C3C002096
:10021000D13B0020303C0020A93C0020D43B0020F2
:1002200000FFFF00383C0020A83C0020983D002043
:10023000993D0020D03B0020F4330020F43B002007
:10024000038810B5112B0AD01B2B1BD0102B05D106
:10025000837D012B02D18288104B1A8010BD0021B2
:100260000F4A838811700D4A012012889A42F5D1F5
:10027000FFF7D6FE0028F1D00A4B1B68002BEDD00B
:100280009847EBE7037A002BE8D1074B0521187854
:10029000013003F0BEF8C8B2EAE7C046323C0020A5
:1002A000993D0020343C0020D13B0020023810B59D
:1002B000012810D8084B1A78002A0CD000221A7096
:1002C000064B1878FFF7ACFE002804D0044B1B68DF
:1002D000002B00D0984710BD303C0020D13B0020BF
:1002E000343C002010B5FFF7BCFD01220B4B0C483D
:1002F0001A7006230021C370FFF780FD041E0AD187
:10030000084B1878FFF78CFE002804D0064B1B68BA
:10031000002B00D09847200010BDC046993D00201A
:10032000F43B0020D13B0020343C002075DF7047B7
:1003300076DF70477ADF70477BDF7047164B13B567
:100340001888164B984211D0154A164C1378013371
:10035000DBB21370217B994209D31349FFF7E6FF03
:10036000002803D0A369002B00D0984713BD0023B9
:100370001370237C002B08D03B21FFF7D9FF002806
:1003800003D0A369002B00D098476369002BEDD000
:10039000002201A80270E8E79C3D0020FFFF00005A
:1003A000EC3D0020A03D0020E43D002037B5184B77
:1003B000184A5B881188184C184D994208D8528801
:1003C0009A4205D36369002B1ED100232B7037BDE1
:1003D0002B78002B06D06369002BF6D0002201A8F1
:1003E00002700DE00E4B1B78002B0BD161680022D0
:1003F0000C48FBF79BFD0028E7D0A369002BE4D055
:100400009847E2E7A168F2E701A80122E8E7C046C1
:10041000DC3D0020E43D0020A03D00209A3D00206E
:10042000EC3D0020BC3D0020144902000B0070B5DB
:1004300032CA32C332CA32C31268114C1A60002267
:10044000104B01681A70914214D00832200003F05A
:10045000BBF82000FFF76EFF00280AD1012200211F
:10046000094B52421A80094B094A0A481970FBF796
:1004700045FD70BD2000FFF75FFFEDE7A03D0020C8
:10048000E43D00209A3D00209C3D0020EC3D0020F2
:100490003D030200383D0200038810B5112B2ED019
:1004A00002D8102B18D010BD122B3AD0502BFAD1F5
:1004B0001F4CC188E2899142F5D1038A022BF2D107
:1004C000123000F031F9002816D11A48FBF776FDFA
:1004D0000028E8D0A36920E001008288164B18317B
:1004E0001A801648082203F06FF80022144B1A7085
:1004F0000F4BDB899342D6D1FFF758FFD3E7012298
:100500000D4B52421A8000220D4B0A481A70FBF71D
:1005100055FD0028C7D0064B9B69002BC3D09847D8
:10052000C1E7010008220831044803F04DF8E3E771
:10053000A03D0020BC3D00209C3D0020DC3D002073
:10054000EC3D0020F0B5038889B00500112B48D0A0
:100550001A2B4FD0102B1AD1324C03AE637D227D63
:10056000211D9A433000FCF7CCFE012332685F1C4A
:10057000013B9A420DD8207DAF88C043C0B2FCF742
:1005800073FE294B984210D10420FBF7D9F909B02A
:10059000F0BD002221007B00F35A14310092201D8F
:1005A0001D32FCF771FE3B00E0E7210040002018FF
:1005B000261D8780153101233A003000FCF788FEA4
:1005C00021003A00143101233000FCF781FEAB7D9D
:1005D0002100023B5A425341AA88DBB21631300057
:1005E00005E082880F480023010004301531FCF734
:1005F0006FFECCE70123027A0A4C120993429B4119
:100600002100261D82885B4217313000FCF760FE16
:1006100002232A7A2100120993429B4118315B423E
:10062000AA88DCE7F03D0020FFFF000070B50A4C0F
:100630000200251D0600217D2800FCF750FE030066
:100640000020834207D0A17D32002800FCF747FE3E
:10065000431E9841013070BDF03D002010B50200EE
:100660000248C17D0430FCF73AFE10BDF03D002089
:1006700010B502000248017E0430FCF730FE10BDC8
:10068000F03D002010B5040003490A7D0431FCF759
:1006900038FE200010BDC046F03D002030B50023DC
:1006A000012507490A682C009C40D8B2144202D1A7
:1006B00022430A6030BD0133182BF4D11800F9E74A
:1006C000F03D002070B501248C40064B02001D68EF
:1006D0000020254204D05918497E181DFCF7FFFD63
:1006E00070BDC046F03D002070B501258D40064C20
:1006F000130022682A4206D019316118043402001E
:100700002000FCF7E5FD70BDF03D00200122824095
:10071000044B10B51C680021144201D01B18597EEF
:10072000080010BDF03D00200123007818407047FC
:1007300010B501F0BBFC10BD7FB5040000F060FAFD
:1007400001220500112816D00FD801AE002818D0BC
:1007500007230C2816D0092301AE2000337000F0C7
:10076000DFFBB4807080B56012E0862812D0104B99
:1007700000229842EFD10F4B20001978FFF7B4FF09
:100780007FBD012320003370B48000F0C9FB70806E
:10079000300008E0082301AD20002B70AC8000F091
:1007A000BFFB68802800FFF7C3FF0022E3E7C046D5
:1007B00002300000253E00207FB51D4B040098420A
:1007C0001DD000F061FA05000B2823D00BD80028BB
:1007D00016D0092301AE2000337000F0A1FBB480D5
:1007E0007080B56014E00122112803D0114B002263
:1007F0009842EED1104B20001978FFF775FF7FBDAE
:10080000022301AE2000337000F08AFBB4807080B8
:10081000300008E0032301AD20002B7000F080FBC6
:1008200068802800AC80FFF783FF0022E2E7C04623
:10083000FFFF000002300000243E0020F0B5374EDC
:100840008BB03078FFF762FF00280AD005A8FFF7C9
:1008500019FF05AB019300230093009B059A934277
:1008600001D30BB0F0BD019B31789C882000FFF7CD
:1008700029FF051E31D02A4B20001978FFF722FFEF
:10088000071E2AD1200000F05BFA08283AD011D8C0
:10089000002829D0062835D0092202AB0490200078
:1008A0001A709C8000F03CFB02AB58801800FFF7E8
:1008B0003FFF07E01B4B984204D01B4B984228D0C7
:1008C0001128E9D131782A002000FFF70DFF144BE1
:1008D0003A0019782000FFF707FF009B01330093CF
:1008E000019B02330193B8E7052202AB20001A7086
:1008F00000F016FB02AB588018009C802F00FFF719
:1009000017FFDFE7200000F00BFB00F02FFA0025B7
:10091000D8E72000FFF750FFD4E7C046263E00206E
:10092000273E002002300000013400001FB5040003
:100930004088227801AB5880012A0FD051B200299B
:1009400002D0022A11D01FBD18001970FFF7F0FE67
:10095000608800F00BFBFFF72FFFF4E71A70A28806
:1009600018009A80FFF7E4FEEDE72379002BEAD028
:1009700000F0FCFA054B9842E5D0054B01221978AE
:10098000FFF7B2FEFFF75AFFDDE7C046FFFF0000AA
:10099000263E002070B505780400012D0DD1408859
:1009A000FFF70AFF608800F0BDF9002805D0034B6F
:1009B000608819782A00FFF797FE70BD263E002058
:1009C000037810B5072B02D14088FFF7B5FE10BDA4
:1009D00070B5FFF763FE0E4E3070FFF75FFE0D4DF2
:1009E0002870FFF75BFE0C4C2070FFF757FE0B4B97
:1009F000327818700323182A08D02A78182A05D0CC
:100A00002278182A02D0182800D00023180070BDC0
:100A1000253E0020243E0020263E0020273E0020C8
:100A2000F0B503888BB00400522B11D0542B34D076
:100A3000502B10D1027B012A0DD1827A012A0AD1D2
:100A40002E4A0389934206D18088FFF775FE02E0A3
:100A50008088FFF7B1FE2A4E3078FFF757FE002856
:100A600008D005A8FFF70EFE002405AD059B0193F5
:100A70009C4229D3234E3078FFF748FE002808D047
:100A800005A8FFF7FFFD002405AD059B01939C42DF
:100A900027D3FFF7D3FE0BB0F0BD062302AA1370D5
:100AA000808800F03DFA02AB5880A38802AA9380A8
:100AB00000F05CF9144BA08819780022FFF714FEAF
:100AC00002A8FFF735FEC6E7AF8831783800FFF798
