:020000021000EC
:10B000000080002005B2010051B2010053B20100DE
:10B010000000000000000000000000000000000030
:10B0200000000000000000000000000055B2010018
:10B03000000000000000000057B2010059B20100FA
:10B0400029C601005BB20100B5C4010015CE0100A4
:10B0500029CE01000000000005C701005BB201001D
:10B060005BB201005BB201005BB201005BB20100A8
:10B070005BB201005BB201005BB201005BB2010098
:10B080005BB20100D1B201005BB201005BB2010012
:10B090008DB301005BB2010009D401005BB2010075
:10B0A0005BB201005BB20100000000000000000084
:10B0B0000000000000000000000000000000000090
:10B0C000314932480A1A02D0072291438D4630494D
:10B0D00030480A1A06D00722914381F309880222D8
:10B0E00082F314882C482D492D4A00F03CF82D4855
:10B0F0002D492E4A00F037F82D482E492E4A00F0EF
:10B1000032F82E482E492F4A00F02DF82E482F49AC
:10B110002F4A00F028F82F482F49304A00F023F832
:10B120002F483049304A00F01EF83048304900229C
:10B1300000F024F82F483049002200F01FF82F4A71
:10B1400090471F481F49884205D00268043003B465
:10B15000904703BCF7E700208646EC46002000211C
:10B16000274A9047FEE7884207D0521A05D0037855
:10B1700001300B700131013AF9D17047884202D099
:10B1800002700130FAE7704700800020007800204C
:10B19000008000200080002050E10100C03300202A
:10B1A000CC33002078B2010078B20100C4DC010089
:10B1B00050E10100C0330020C0330020D4DC010086
:10B1C000D4DC0100D4DC0100D4DC0100D4DC0100BB
:10B1D000D4DC0100D4DC0100D4DC010050E101002A
:10B1E0005CE10100CC330020CC330020CC330020C4
:10B1F0009C3800209C3800209C38002017B20100A9
:10B20000D5D101000B4880470B480C49884385463F
:10B210000B48804754E70B480B490C4A884207D03B
:10B22000521A05D0037801300B700131013AF9D17F
:10B23000704700005DB201000080002007000000A0
:10B2400085D20100C4DC0100B0330020C0330020EF
:10B25000FEE7FEE7FEE7FEE7FEE7FEE70321044820
:10B2600002680A430260034802680A4302607047AA
:08B270002405004054050040D4
:10B278008446024801B4604600BD000015D70100AD
:10B288001FB5002101AA906003481180516000F0A9
:10B2980027FE05B000BDC04601400000084B094923
:10B2A8001A682F23C046C046C046C046C046C0469E
:10B2B800C046C0468A4200D0C046013BF2D1704722
:10B2C800C83300200024F400F8B50024234B5C6444
:10B2D8009C64DC641C655C609C60214B1B68A34219
:10B2E80033D0204A20498D58204A1268AD1A2D02C1
:10B2F8002D0A1A68AA4215D8AD1AA4181A7CDE6954
:10B30800002A0DD000221A74194A996917685A69D7
:10B31800002F1DD01000B847002801D0FFF7B0FF5C
:10B32800002E13D1134A144B11781B788B4204D189
:10B338000133DBB2022B0ED0137013780F4A9B0037
:10B348009C5080220E4B52035A60F8BD3300D0E760
:10B3580008009047E4E70023EEE7C046FC100140F0
:10B36800EC3300200405000000100140E833002001
:10B37800CC330020E5330020E4330020DC33002008
:10B38800FCE100E0F0B5BF49BF4A0B68BF488DB08B
:10B3980004931478037800229C4200D1B8E001336A
:10B3A800DBB2022B00D1B1E003700378B84A9B00EE
:10B3B8009A58049B9B181B021B0A0B6001230193DC
:10B3C800B44B0025197801248C46B34909680591C6
:10B3D800597802915968069161469B7808950793B8
:10B3E800A84B1B680A93AD4B1B780993059B0298E1
:10B3F800814200D08EE00899002905D0A749099814
:10B408000870A0490A980860A349002D00D00B6075
:10B418000B680199002900D0C6E0059A0024D31AC8
:10B428005A1E9341DBB201939B4B01261B68049380
:10B438009A4B049A1B780593924B1B680993002337
:10B448001D000393002C00D0B3E0029B634500D09D
:10B45800CDE0002D02D08F4B0299197003998E4BC5
:10B46800002900D01A601B68049A9A4202D1019AF6
:10B47800002A46D0002B44D01B68894A0493894C83
:10B48800804BA5581B68884E0193EB1A1B021B0AB8
:10B498000333029333780392002B12D18023C13AED
:10B4A8005B02FF3AA350403AA350C02180220127F3
:10B4B8007E4B920249005A501A602760FFF7EEFE51
:10B4C8003770049B029A934200D21300A821019A74
:10B4D800C9009B181B021B0A039A6350A258521BEF
:10B4E8001202120A5D1B2D0203322D0AAA4208D944
:10B4F800039BE3586350FFF7D1FE80226C4B920206
:10B508005A600022654B1A700DB0F0BD02704CE70E
:10B51800019255E718204843069E01313018079ECE
:10B52800C9B2B14200D100210678022E0AD0032EFA
:10B5380000D05CE7002B00D159E7002025001874E3
:10B54800DB69F7E7406803930B901800002800D1E7
:10B558004DE70B9FC669874200D1ADE003903000EC
:10B56800F4E71D68954206D9002901D04A490B60C5
:10B57800AA1A1A6058E7521B4019DD681E60DF6975
:10B58800002D07D0DC611C0004999D600918090290
:10B59800090A59603B000199002BE2D1002900D12A
:10B5A80042E73D4A13603FE700210C0008000E0007
:10B5B800F2E72300E469596809980891081A3D4997
:10B5C8000002000A9F68884239D8C0191860002113
:10B5D8001E7459609960D9618A4206D0186811684A
:10B5E80088424CD8081A1060DA61039645E0634631
:10B5F80018215943069B591863460133DBB29C4610
:10B60800079B634501D100239C460B783500012B2D
:10B6180000D01AE74B681D7C002D00D015E788681C
:10B628005860C868986008694969D860996105993F
:10B63800002902D05D600D00BDE73500BBE7099920
:10B648000898091A0902090AB94202D27F1A1F602A
:10B65800BDE700211960BAE7C01BCF690891002F28
:10B6680007D039000F688742F6D33F1A0F600F00E2
:10B6780008991860DF61CB6113001A00E2E60892AE
:10B688001100EFE7E8330020E5330020E433002021
:10B69800DC330020D0330020EC330020D8330020E6
:10B6A8000405000000100140D933002000E100E04B
:10B6B800FCE100E0FEFF7F00039FB84209D1DB698F
:10B6C8002500002B05D1084DAC6025000A9308948D
:10B6D8000994039F0068FE61002E00D187E6376851
:10B6E8003818306083E6C0460010014070B5050088
:10B6F8000024054BA200D358002B01D028009847FE
:10B708000134082CF5D170BDFC33002010B50D4C68
:10B718000D4963880D481B01C9188B89002B06D178
:10B728000122496800F0C2FC0423237010BD0523E0
:10B7380007492370033B8B8001220023096800F02E
:10B74800B5FCF3E768340020F0340020B033002063
:10B7580010350020002307B504490093044A02333A
:10B768000968044800F05CFC0EBDC0461035002096
:10B77800E0DC0100B0330020002307B5010000938E
:10B78800024A0233024800F04BFC0EBDD8DC01002F
:10B79800B0330020002313B5094A00930C0001338D
:10B7A8000100084800F03CFC0E23002805D106499A
:10B7B80024010D3B09198B730300180016BDC04600
:10B7C800D4DC0100B0330020F034002013B503248A
:10B7D800084B0948998842681B688900591853889A
:10B7E80004700020033300909BB2044800F018FC5A
:10B7F80016BDC0461035002068340020B033002044
:10B808000301134810B5C01840680C6803000833DA
:10B81800002C03D0638803339B00E31880220D4C6F
:10B82800D2008018984202D91A68013201D100204A
:10B8380007E09A88A24205D01A88002A02D001207F
:10B848000B6010BD5A88033292009B18EAE7C04685
:10B85800F0340020FFFF0000436837B505000C00F6
:10B86800002B2BD0234A11688B4227D3526893426E
:10B8780024D803221A4021D11F4900890989884206
:10B888001CD129689868814218D11C4841688B42AC
:10B8980004D98025ED0049198B4209D342690A2051
:10B8A800934207D98021C9005218934202D201223B
:10B8B8000020228043425841C0B23EBD002323806D
:10B8C80000230193208801A9FFF79AFF002806D1D9
:10B8D800238801339BB22380012BF1D9EDE7019B2B
:10B8E80029689A688A42EDD16B60034B1B892B81CA
:10B8F800E3E7C046B033002068340020F03400206D
:10B90800F8B51C001B4B15001A78022306000F001F
:10B9180018001A4204D00330002D01D0002C0FD19A
:10B92800F8BD154A1B019B5C002B06D1A08821009D
:10B93800FFF766FF002808D12060A3880133A380A1
:10B94800A388012BEDD90A20EAE72368002E03D04B
:10B95800998832889142E9D1002F03D019883A8812
:10B968009142E3D19A686B60044B2A601B890020DE
:10B978002B81D5E764340020F0340020683400209F
:10B9880010B5064B191D5888FFF73AFF002802D05A
:10B99800FFF71CFF10BDFFF7B9FEFBE76834002076
:10B9A8001C23F0B51C00B04D07002E6F8BB07443FC
:10B9B800605D0138052800D954E101F017FE060042
:10B9C8008200820044014401AA01002F16D00124FC
:10B9D800A64A1378A34313701C227243A24B069401
:10B9E800D15C023901293AD89B189A7DA04B196C71
:10B9F80089181964596C8A1A5A6430E02D19287903
:10BA080003281CD801F0FCFD0B023C47994D2B780C
:10BA1800022B09D02B7C022B18D1012405E0FFF75B
:10BA280099FE01232B7107E0002424012B19586883
:10BA3800FFF7A2FE00232B55002800D19BE001212F
:10BA48008A4A0E2413788B431370C5E70223874A6A
:10BA580011780B4301218B431370002306931C2399
:10BA68007343814C185D05AB0138052800D9EFE117
:10BA780001F0BCFDCF01D201DE01080211021B0258
:10BA88007D4C0023012221687C4800F00FFB022333
:10BA9800A3800023C6E7784C2068FFF76DFE784B3B
:10BAA80027685A88734B12019C469B1859685F6037
:10BAB800A78821601F8102236146A3800023535475
:10BAC800B0E77343EB185A8A120102920299694A45
:10BAD80052181189002F0BD0D88803235B42C71C4A
:10BAE800181A5389C9191B1811815381012473E746
:10BAF8005768187C89007F18062800D9A1E001F052
:10BB08007FFD297D3C541B9004005E4C1C2272432F
:10BB1800554B9B18D988029A564B9B181889CA1CF2
:10BB2800801803225242511A5A89188152185A8190
:10BB3800544B9C4291D04FE70023534853494360EC
:10BB48001C337343EB189B690360FFF785FE0028DD
:10BB580000D15CE10023221DAA18009339000133AB
:10BB6800464800F05DFA1C2202237243AD182B747C
:10BB78000E240028CAD10BB0F0BD220000233900E2
:10BB88000C32AA18083100933C48013300F048FAF7
:10BB98001C231A007243AA18917D0322002900D1A0
:10BBA800023A7343ED182A74E2E7314A536C002BCA
:10BBB80000D182E10724106C013B411C214015345F
:10BBC800744311642849C0000C19A18A5364890080
:10BBD800791800271518AB8800978258274800F075
:10BBE8001FFAA38AAA889B18A382A37D013BDBB214
:10BBF800A375BB42BCD101232374B9E722000023FB
:10BC08000832AA18391D00931C48013300F008FABD
:10BC18001C227243AB5CAD18033B591E8B410533A4
:10BC2800A5E71A4B1988184B5868FFF7B3FD0400AD
:10BC38001C20062370432D182B74002C00D065E7B8
:10BC480099E70F2462E7002F00D04FE71C237343C6
:10BC5800EB1802931B79012B40D0002B18D0022B34
:10BC680000D1FAE60F24B7E67834002064340020C7
:10BC78001C340020F034002010350020B0330020A0
:10BC8800683400201D1D0000F03300201835002006
:10BC980039000A27082206A801F026FD029B05A8FC
:10BCA800DB680A240393059302ABFF183900FFF7FA
:10BCB800D3FD002809D00698029A83883988D38052
:10BCC80003881381FFF766FD04001C2002237043DC
:10BCD8002D182B71002C00D14DE729E7A01D28183D
:10BCE800774B05AA3900FFF70BFE041E08D1744BE9
:10BCF80006989988FFF74EFD04000A28EAD1ACE6B9
:10BD0800082239006E4801F0EFFC0A2C00D1A4E6A5
:10BD18000EE7002F00D0E9E66A4B1A7B002A0AD00A
:10BD28001F731878013806289CD801F055FC394E45
:10BD38005D609B636B0018780728F2D801F04CFC13
:10BD480004F1F1151F2E2E131A895F4901321A8149
:10BD580000225A801A730A78504242419A720A7C29
:10BD680051424A41DA72012207E0584958688A88E4
:10BD78004088033212188A8002221A70D1E7598843
:10BD88005248514A090152180468516854600160C8
:10BD980081881181022282800432EEE70722ECE7D3
:10BDA8009A7A002A07D1DA7A002A12D100221A7068
:10BDB8005A805A6051E6002243499A728A89002AB9
:10BDC800F1D1897B0029EED05A80FFF7D9FD040014
:10BDD80080E70022DA723C4A918B0029E6D1927FF3
:10BDE800002AE3D00122EFE7FFF7F0FCEFE7FFF7C7
:10BDF8008DFCECE75A88344B12019B185868FFF702
:10BE0800BBFCE4E700225A60FFF7A4FCDFE70A2442
:10BE1800E2E500221A701BE001221A701B32564319
:10BE2800A61932899A81B288DA81F2689A600FE09D
:10BE380002221A701A325643A61932899A81B28898
:10BE4800DA81F2689A60327C063A51424A411A74A1
:10BE58001800FFF74BFC1C22206F002150432018CC
:10BE680001F042FC636F002B21D00321226F013BBC
:10BE780001320A4022676367002B18D00020FFF7C1
:10BE88008FFD78E603221A7019325643A619F288F4
:10BE98009A813289C8E704221A7018325643A619C3
:10BEA800F2889A810022DA81D2E70522B2E70421DA
:10BEB800074A13788B4313705DE61B68FFDEC046A4
:10BEC8001C35002068340020F03400201035002094
:10BED8006434002010B50800FFF762FD10BD0000B3
:10BEE800BFF34F8F034B044ADA60BFF34F8FC0464E
:10BEF800FDE7C04600ED00E00400FA0529DF7047C1
:10BF080028DF704770B50B4D04006A6E0020042AC4
:10BF18000FD02B6ED318032B00D9043B01326A666D
:10BF280018225343ED180021280001F0DDFB012001
:10BF3800256070BD2835002030B5040085B00D009F
:10BF480010220021684601F0CFFB237A012B0AD08A
:10BF5800022B10D0636829000193236868469B6808
:10BF6800984705B030BD00236A46137023690293D1
:10BF7800A38A9381EEE701236A4669461370A28972
:10BF8800E3894A81D31A0B81E4E700001B4B70B5A3
:10BF98005A6E002A27D018241D6E6C431C19227A69
:10BFA800012A06D0022A22D009212000FFF7C4FF67
:10BFB80019E0A28AE08A121AFF2A15DC92B2182127
:10BFC80069435B18D9681B69800009181818FFF7BE
:10BFD80095FF11280FD1022209490B7893431A00C3
:10BFE800042313430B7070BD80225200E7E7A08939
:10BFF800FFF786FFEDE70028F5D0D5E728350020C4
:10C0080024350020062310B5044A1178194204D1BA
:10C01800043B0B431370FFF7B9FF10BD2435002014
:10C02800F7B5170001221E001D4B0D0019780400FA
:10C038001300114231D0931800282ED0194A90428B
:10C048002BD3194A904228D203221300002F24D060
:10C05800002D22D039002943931811421DD10268BE
:10C06800013BAA4219D8B2004168AA18914214D3D8
:10C07800013B002E11D001A8FFF744FF0723002839
:10C088000BD0019B089A1C605A600122DF601A726B
:10C098001D619E82FFF7B6FF00231800FEBDC04653
:10C0A80024350020B0330020C0330020F7B5160037
:10C0B80001221F001A4B0C001978050013001142C9
:10C0C8002CD09318002829D0164A904226D3164A15
:10C0D800904223D20133002C20D0A2050333002A3A
:10C0E8001CD10268013BA24218D8B2024168A218CA
:10C0F800914213D3013B002E10D001A8FFF702FF95
:10C10800072300280AD00222019BA40A5F601D6051
:10C118001A729C811E82FFF775FF00231800FEBD6E
:10C1280024350020B0330020C03300201FB5047828
:10C13800012C11D1042302AA1370436811491B78FA
:10C1480011481371220000F00BF9104B1C70104BB2
:10C1580002A81B6898471FBD022C0AD102AB1C70AD
:10C16800C3680122074908480193039300F0F8F8CF
:10C17800EDE7002CEFD1032302AA1370044B100043
:10C188001B68E7E794350020C03300209535002070
:10C1980090350020F0B589B069460D0004009C4632
:10C1A8001B48C8C8C8C5C8C8C8C548C848C5606904
:10C1B80063468861207C0B77451EA8410875637C1F
:10C1C8000E205D1EAB415B421840E36848758B60EA
:10C1D800A368CB6023684B60636800930D4B0E4DDA
:10C1E8001A6000220D4B28001A700D4A00F02AF838
:10C1F80000280AD12368013307D0280000F042F94B
:10C2080001220849280000F0ABF809B0F0BDC0468B
:10C21800E8DC010090350020C0330020953500206F
:10C2280035C10100943500201FB501236A461370FB
:10C23800034B10720191684606CB904705B000BDCC
:10C2480098350020F7B50192037905001C20584362
:10C2580000933D4B1B18DB7E0820002B73D10B6825
:10C2680028685A1C0CD00124A026A1279C40F6055A
:10C27800FF00F4511C000327C134FF34A400A75168
:10C288004C68621C07D02600A0270022C136FF3662
:10C29800B600FF05F2518A692C4E82510F7D4E7D02
:10C2A8002B4A3E4386502B4E84512B4C0351012F71
:10C2B80020D18C68631C07D02300A0260027C13337
:10C2C800FF339B00F6059F51CB685A1C0CD0012602
:10C2D800A027A1229E40FF05D200BE501E000322C7
:10C2E800C136FF36B600F251A126F6008351A223CB
:10C2F800DB00C4501C23009A134C5343019AE618E0
:10C3080072600A691A51019B002B0DD003000022AC
:10C31800FC33097F1A629A64C123104A9B00C250F9
:10C32800000B40B200F0A6F9A02304212A68DB0024
:10C33800D1501C23009A00205343E41880235B004B
:10C348002076E0826383FEBD983500202405000036
:10C358006C050000140500000C05000080000200B8
:10C368001C23F7B50579464C6B43E3185E68002E2D
:10C3780005D0C223812704689B00BF00E7501C2317
:10C388006B433F4CE318DF7D002F0ED01F7E002F3C
:10C398004DD01123002E06D0C123812102689B00B5
:10C3A8008900D15011231800FEBDDA75D9605F7677
:10C3B8001F761C236B4332490268CB189B7E002BE7
:10C3C80007D1002F05D11300FC339F62DF600123E2
:10C3D80013601C236B432A49CB185968002949D19B
:10C3E800FC3291641A001732019207683E00FC364D
:10C3F800B16AF26894466446B26C002C1BD1002ADC
:10C4080001D10029F1D01C235D431D4B5C19002389
:10C41800E37503330029C6D10C33002AC3D103685E
:10C42800A07E0131002823D019600023BBE71961E1
:10C438001A760127BDE70C001443E4D1019A11785C
:10C44800A322D200002909D1F160BA5801995A7E75
:10C4580009789142C9D800210A00D4E7F460597ECE
:10C46800DC68BA5862545A7E0132D2B25A76EDE785
:10C478005960DAE7C12381219B008900D150D4E7B4
:10C48800983500201C2302795A43074B9B189A7E43
:10C49800002A07D101680800FC308262C2600132BC
:10C4A8000A609A767047C04698350020C12330B597
:10C4B8004C4C9B00E25885B04B4D92054CD5AA6A6E
:10C4C800002A49D000238122AB62C22392009B003C
:10C4D800E250464B9A7E002A01D101326260022264
:10C4E80069460A709021C9006258684662506946D8
:10C4F8000392DA7D0A72DA6801920022DA751A76F6
:10C5080006CB90472B6A002B0FD00022374B988A16
:10C51800997D2A6288425AD29A8A9968895C9A8A4D
:10C52800013292B29A82324BE150AB6C002B11D09F
:10C538000023AB642D4B9A7E002A01D00122226091
:10C54800DA7D002A06D00022587EDA75C0B2D96892
:10C55800FFF76AFE05B030BDE3585B07D2D5EB683C
:10C56800002BCFD0A322214BD200D97D002914D192
:10C57800E960A2585A7ED97D9142C3D11A7ED96802
:10C58800002A15D0DA751A69587EDA600022C0B21E
:10C598001A765A76FFF748FEB4E70021E960597E1B
:10C5A800D868A25842545A7E0132D2B25A76E1E78C
:10C5B8009A7E002A01D101326260C2228120920053
:10C5C8008000A0500022587EDA75C0B2E2E7002948
:10C5D800ABD0684601729968027001919A7506CBD2
:10C5E8009047A2E700200040FC200040983500203A
:10C5F8001C050000094B70B51C0005000834002814
:10C6080001D010331C002368002B05D01A682800BD
:10C6180022605B689847F6E770BDC046B4350020D5
:10C62800114B10B51A68002A0BD000208021C222B5
:10C63800186001239200C9058B500C4A5370FFF70C
:10C64800D9FF0B4B1A68002A0CD000221A608022EE
:10C65800C223022101209B00D205D150034B9870C0
:10C66800FFF7C8FF10BDC04600010040B4350020E8
:10C678000401004030B5FF2503232C00C2B213404B
:10C68800DB009C4089012940E4439940002814DAE2
:10C698000F231340083B0E489B089B001B18D869C2
:10C6A80004402143D9611F23C0211A401E3B9340F7
:10C6B800084A49005350136030BDC025054B800817
:10C6C8008000C018AD0043591C4021434151EAE79E
:10C6D80000ED00E000E100E0A0238000DB05C018C9
:10C6E800E023DB0010B5C258034C09042240C250B5
:10C6F800C2581143C15010BDFFFFFCFFF0B5002424
:10C70800C1250122260087B04F4B50485049039459
:10C71800AD001F68012F04D147593A4201D01E606D
:10C728001443043352008B42F3D14A4B1A68012A4E
:10C738000AD100221A6080231B061C43A022A223D0
:10C74800D205DB00D3580393230718D0A22701266C
:10C758000025FF0026420ED03C4AAB009A18D0595B
:10C76800D1593D4A9B58002B05D00322090CC0041F
:10C778001140C00E984701357600042DEAD1002CEF
:10C788005CDA00230493013B00273E000593324BFB
:10C798001A0040329457621C43D0E4B2C0222500EC
:10C7A800072095432040BF3A8240E90805A8405C2D
:10C7B800024236D058190130C07FA40940B2800027
:10C7C800C3580193002B07D1032C2AD104AB5B1863
:10C7D80018781043187001E0032CF7D02B00A02024
:10C7E800C133FF33C0059B001B5803A8415C9B0362
:10C7F8009B0F0A420AD0022B13D1032C0BD1210024
:10C8080028000137FFF768FFFFB204E0032B08D1C7
:10C818000221032CF4D0019B002B02D02100280018
:10C8280098470136042EB2D1002F07D0A022A223A8
:10C83800D205DB00D358039A934201D107B0F0BD6B
:10C848000393049BA0E7C0460061004000600040DD
:10C85800106100407C610040C8350020F7B5040035
:10C8680025009C4608AB1E7809AB1B780878019315
:10C87800FC35002852D113780093AB6A002B04D002
:10C88800A862012363610B7012E02F6A002F23D086
:10C898002B62AF6A002F01D0AB62F2E713789E4299
:10C8A80012D96146C95C204BE150137801331370EB
:10C8B800009B0120B3420CD1FC34A3680120002B5B
:10C8C80007D00020A06004E0019A0123002A01D0CB
:10C8D800E361FEBD6361EBE7EB68002BE8D0EF6036
:10C8E800AB6A002B01D0AF62CBE713789E42DFD949
:10C8F800A3216046C9006158C15413780133DBB2E3
:10C908001370721E934206D1802302229B00E250CC
:10C9180001232362CCE79E42FAD1C9E70023AB6228
:10C928002B62EB60C8E7C0461C0500000A4A835822
:10C938008350002083420DD00130084A1840013846
:10C9480010408222120280189A0700D504485B071B
:10C9580000D504487047C046C4040000037EFFFFAA
:10C968000182000002820000F0B585B003920A003F
:10C978001E000023FC32936093621362D360C21DD1
:10C98800D3778022071DFB77013305000C00920046
:10C998009E420ED10221A150236223602B68002BF6
:10C9A80009D000200E4BAB60AA687E33E25005B078
:10C9B800F0BD8B50F0E700232A0029000193009670
:10C9C800039B263223312000FFF748FF0028F2D1CD
:10C9D800FB7F002BEBD02000FFF7A8FFE7E7C0465E
:10C9E80086020000084B09491A680423C046C0465D
:10C9F800C046C046C046C046C046C0468A4200D06F
:10CA0800C046013BF2D17047C83300200024F4002F
:10CA1800F0B585B01F000AAB1B7816000A00039317
:10CA28000023FC32936093621362D36080220C006F
:10CA380092008B50C21D011DD377CB77013323623F
:10CA4800A360D17F05008F4210D9715C154BE1506E
:10CA5800D37F0133D3772B68002B0ED00020124BE5
:10CA6800AB60AA687E33E25005B0F0BD039A002A95
:10CA780001D0E361EFE76361EDE72A002900039B3A
:10CA8800009701932632330023312000FFF7E6FE9A
:10CA98000028F2D10435EB7F002BE5D02000FFF70A
:10CAA80045FFE1E71C05000086020000F0B50C0018
:10CAB8000A00A61CF37F89B00193671CFB7F26320E
:10CAC80000932331E3690500FFF7C8FE00281ED153
:10CAD800231DDB7F9C46A36903936346002B1DD16E
:10CAE800207B831E012B19D8E3692269934215D153
:10CAF80003996269E37B8906C90FE261FB77F177E5
:10CB0800032806D1009120002900FFF781FF09B012
:10CB1800F0BD29002000FFF727FFF8E7220005AB4A
:10CB28000C32C2CAC2C3634604A8002B06D00B4A03
:10CB3800AB58AB500222134202D00123037002E02B
:10CB48005B0700D502700022631DDA77039B5B0741
:10CB5800DDD4236861689847D9E7C046C40400005B
:10CB6800F0B5282685B003900C0001794A4F4E4352
:10CB78000191B919C81CC57F0820002D77D14B60D9
:10CB88008D60F2510B188A1D0531D577CD77A27BC0
:10CB9800DA77637B002B3DD0A0206368C005029341
:10CBA800A02384462168029A8F00DB059200FF18B3
:10CBB8009444E0236246394EDB00FE50D6500122F1
:10CBC80016008E40A1213000A026C900F60570503D
:10CBD8000298824072506146314AFA50CA50FFF7B3
:10CBE80001FFA223DB00F35862680127D3403B42D0
:10CBF8003FD0002D0ED001252B006268A02693405F
:10CC0800284AF605B350FFF7EDFE63689D40A1235F
:10CC1800DB00F5502168A0200B00C1331F4DFF3306
:10CC2800C0059B001D5062681300C133FF339B0091
:10CC38001D50039B184D1868A123DB00C150194BE8
:10CC4800C250194BA268C2502823019A53435B591A
:10CC5800002B04D0000B217B40B2FFF70BFD2823EB
:10CC6800019A00205343ED1801230335EB7705B0F3
:10CC7800F0BD3B002268013593400A4AB350FFF7E4
:10CC8800B1FE23689F40A123DB00F750FFF7AAFEFF
:10CC9800092DA6D1AFE7C046103600200C060000CB
:10CCA8000D0600000C05000024050000A0230279F1
:10CCB80001680520DB00C85028235A43024B9B1803
:10CCC80002220333DA77704710360020F0B51600D9
:10CCD80085B00B00B20702D0062005B0F0BD02797E
:10CCE8000392026801200292C222029992004042F5
:10CCF8008850039A29305043274A1018471DFA7F55
:10CD0800002A05D0C12382689B00CA501120E4E79D
:10CD18000125B208954308223240FD779446DBD1BD
:10CD280002001D0086610C3292CD92C29F78421C8F
:10CD3800D777B1275A680299C2615D78FF00CD5153
:10CD48001F78012F20D00124A446002F02D1760994
:10CD58002640B4466546282725402C0003990E4DE9
:10CD68004F43EF190237FC779B7802990094FFF73D
:10CD78004FFE2822039D084B5543EA58002AACD1A0
:10CD88005B190533DA77A8E76546841CE5779B7855
:10CD98000299FFF7E9FDECE710360020F0B587B0FF
:10CDA80001930CAB03AC1D7806000F000092002124
:10CDB8000C22200000F098FC2A00551EAA41019B75
:10CDC8005201A370009B2100300067706360FFF779
:10CDD8007DFF07B0F0BDF0B587B0019302AB050049
:10CDE8000F00160000210A22981D00F07DFC012387
:10CDF80003AC2370019B0022210028006770A370F8
:10CE08006660FFF763FF07B0F0BD000010B5024988
:10CE18000248FFF74BFE10BD1036002000300040DE
:10CE280010B5034903482831FFF740FE10BDC0463E
:10CE38001036002000400040084B094A1B68C046D5
:10CE4800C046C046C046C046C046C046C0469342DB
:10CE580000D0C0460138F2D17047C046C833002020
:10CE68000024F400037810B5022B03D14068FEF7C4
:10CE780007FA01E0012BF9D010BD0000A023EF2133
:10CE88000322DB05C9005A5078395A5002495A50D2
:10CE980004315A507047C046040700001FB51023DC
:10CEA8000093013B0193CC235B0400220293694663
:10CEB8000123074C039220000B731300FFF750FE69
:10CEC800002801D0FEF7DCF92000FFF7EFFE1FBDB8
:10CED8008CDD01001FB512230093013B0193CC2385
:10CEE8005B040022029369460123074C0392200049
:10CEF8000B731300FFF734FE002801D0FEF7C0F9CA
:10CF08002000FFF7D3FE1FBD94DD01001FB503AC61
:10CF1800637000232270010000932200023302484C
:10CF2800FFF73CFF1FBDC0468CDD01001FB5002385
:10CF380003AC2170627001000093220002330248A2
:10CF4800FFF72CFF1FBDC0468CDD01007FB5012314
:10CF580006000A4D02AA117003AC009301002800D4
:10CF6800FFF71CFF0223220031002800FFF733FFE0
:10CF7800637820781B02184304B070BD8CDD010073
:10CF8800F0B50124070085B0094E02AA11702300EC
:10CF9800010003AD00943000FFF700FF23002A00D2
:10CFA80039003000FFF717FF287805B0F0BDC046FC
:10CFB8008CDD010010B504212320FFF7E1FF3823A1
:10CFC800302298430243D2B223200421FFF7AEFF58
:10CFD800002010BD10B504212320FFF7D1FF07233F
:10CFE800052298430243D2B223200421FFF79EFF73
:10CFF800002010BD10B500220C212320FFF796FF5A
:10D0080000220D212320FFF791FF232000220E216B
:10D01800FFF78CFF10BD10B500220C212220FFF76E
:10D0280085FF00220D212220FFF780FF2220002209
:10D038000E21FFF77BFF10BD002310B519001A0061
:10D048001020FFF763FF00211020FFF77FFF431E2A
:10D058009841C0B210BD0000F0B5082187B010207B
:10D06800FFF774FF00F0EAF9009001910921102000
:10D07800FFF76CFF00F0E2F9029003910A211020FB
:10D08800FFF764FF00F0DAF906000F0010200B210B
:10D09800FFF75CFF00220590244B0098019900F0EF
:10D0A80010FA00F0DBF900220490204B3000390020
:10D0B80000F007FA00F0D2F900220500029803995F
:10D0C8001A4B00F0FEF900F0C9F9009A019B040020
:10D0D800174800F0D5FA029A039B164800F0D0FAD8
:10D0E80032003B00144800F0CBFA059800F0A6F98E
:10D0F80002000B00114800F0C3FA2B00220004992B
:10D108000F4800F0BDFA049800F08AF90D4F386016
:10D118007960280000F084F9B860F960200000F018
:10D128007FF938617961380007B0F0BD00E06F40E1
:10D1380020DD010032DD010044DD010057DD010082
:10D148006ADD01006036002030B58BB004A802000B
:10D158000D4B32CB32C232CB32C20C4B0C4A00934D
:10D1680080235B000193029203930A4AFD3B6946C0
:10D17800FFF710F8002801D0FEF782F8064800F003
:10D188007FFA0BB030BDC04608DD010078360020BC
:10D19800783700206DCE01007CDD010013B5012435
:10D1A8006A46E1B2012307320648FFF714FE002859
:10D1B80003D12100044800F063FA0134802CEFD138
:10D1C80013BDC0468CDD01009CDD0100F8B5FFF7FA
:10D1D80055FEA024A1258021022301220427E4056D
:10D1E800C905ED006751635162516151FFF7ACFF0A
:10D1F800FFF754FEFFF76EFE1C48FFF71DFEFFF712
:10D20800CDFFFFF7F7FEFFF7D5FEFFF7E3FEFFF7C9
:10D2180002FF772239002220FFF788FE002205212D
:10D228002220FFF783FE202206212220FFF77EFE20
:10D238008021022301220E4EC905A751A351625134
:10D248006151FFF7F9FE802102230122C905A75188
:10D25800A35162516151074CFFF7FEFE013C06489D
:10D26800FFF7EAFD002CF7D12000F8BD40420F007F
:10D278000C0500009F860100400D03002B4A70B585
:10D288001368DBB2012B03D129490B681B0700D0B7
:10D2980070BD284BF0201C68E0262500054034426C
:10D2A8003DD1254C246804420DD12448244C046007
:10D2B80080242448240204601068C0B20128E7D101
:10D2C80008680007E4D1F02418682040402810D1ED
:10D2D8001948006820420CD18024C1200125E405AA
:10D2E800C00025501268D2B2AA42D1D10A681207EA
:10D2F800CED11A68F0231A40A02A13D10E4A126818
:10D308001A42C5D1104B1A68012A04D00F4A1A6074
:10D318001A68012AFCD1C0220D4B1A60B8E7302DDB
:10D32800BFD0D0E7D02AB3D1E8E7C046E00F00F07D
:10D33800E40F00F0E80F00F0EC0F00F004050040E7
:10D34800DFFF07C0186C004000EC06407593000032
:10D3580014EC064052DF704761DF7047F0B5224B8E
:10D3680085B01F78FFB2002F38D0204E3468634252
:10D378005C41E4B21E4B1B78002B2FD103AD280073
:10D38800FFF7E8FF05282BD000281CD0FDF778FF11
:10D39800002C16D1164B1B78002B1FD1154B2900DA
:10D3A8001B882B80144B1B6818000193FFF7D4FFD0
:10D3B800052811D000280BD0FDF762FF002CE9D119
:10D3C800D8E73C00D6E70D4B03981B689847DFE782
:10D3D800019833689847F1E7002CF2D005B0F0BD0A
:10D3E800002CFBD13C00D5E7843800207C38002095
:10D3F80085380020783800208C38002088380020B4
:10D40800064B10B51B68002B05D09847002801D0A3
:10D41800FDF736FF10BDFFF7A1FFFBE780380020BE
:10D42800004201D4044A10474042F44600F006F88E
:10D438000122D2071143604745D40100422212015C
:10D44800033A004208D002D4013A0018FCD512056C
:10D45800C30A40059918704700217047F4464A18D6
:10D4680005D200F018F801D5C0174008604701231D
:10D478005B05D34206D200F00EF801D50120C007A3
:10D488004042604701D10042F5D0002001384008F1
:10D4980070474A1810D2520D40231B01D21A01328C
:10D4A8000AD452421F3209D4400DC902084301234D
:10D4B800DB071843D0407047002070470020013830
:10D4C8007047F0B40125ED070C005C402C40A446E1
:10D4D800AE0A4C18DF18F4423DD2F74245D2640D2B
:10D4E8004CD07F0D3CD0E41BC9022943CF0ADB0294
:10D4F8002B43DB0A0600B61A9F4104D2013CB61939
:10D508007F41B6185F416812800D241838DD001875
:10D51800844225D8E80C0021B6197F41B61A9F41EC
:10D5280003D340414941F7D304E0B6185F410018DE
:10D538004941F1D32405B6197F41B61A9F4105D355
:10D548003743C20717430022012F50416141624609
:10D558001143F0BC70470CD100420AD1F74208D2FF
:10D568000020C143490D0905F1E7124201D1F742F4
:10D5780006D00020C143090DC904EAE77F0DF8D0A1
:10D5880000206146E5E70A000FD00300400800E0EC
:10D5980052008242FCD9002000E05208934200D396
:10D5A8009B1A40418A42F8D17047002070470A0010
:10D5B80010D00300400800E052008242FCD900204D
:10D5C80000E05208934200D39B1A40418A42F8D1A6
:10D5D800190070470020704702B471464908490095
:10D5E800095649008E4402BC7047C04603B47146D0
:10D5F800490840004900095A49008E4403BC704755
:10D6080002B4714649084900095C49008E4402BCCD
:10D618007047C04670B504000800A568002D0AD000
:10D6280022686168531C5B1A5E1EB3415B42184056
:10D638008A4209D2A854E368002B05D022686168A1
:10D648008A4201D22100984723680133236070BDC4
:10D6580070B516004C1E06D4C5B229003000FFF77D
:10D66800D9FF013CF9D270BD10B5C30606D48005B8
:10D67800C017102318402030FFF7EAFF10BD000044
:10D688000FB410B586B008AB10CB059300230393F5
:10D69800094B0293094B049300F036F8059A2100D0
:10D6A80001A800F043F8040000F02FF8200006B0AD
:10D6B80010BC08BC04B01847FFFFFF7F79B2010017
:10D6C8000378002B0CD000290CD04118030001333B
:10D6D8001A78002A02D08B42F9D10B00181A704729
:10D6E8000300FBE70300F9E78446002A03D0017032
:10D6F8000130013AFBD160467047411C0278013085
:10D70800002AFBD1401A70477047704710B50400D3
:10D718000100172000F0BAFA002801D1200010BD3E
:10D7280001246442FAE7704770470000F0B5DE460E
:10D7380057464E464546E0B58BB003900E0005921D
:10D7480000230360C94B9B4669E222000025802321
:10D758009B009A46F13BFF3B99461033984680233D
:10D768005B019C4680273F02802601E040231D4341
:10D7780014000132049220780300203BD9B23E29DC
:10D7880013D88B005946CB589F463543F0E73D43A5
:10D79800EEE763461D43EBE743461D43E8E74B4688
:10D7A8001D43E5E753461D43E2E72A2820D1059BA0
:10D7B8001A1D05921F68002F31DBA31C049A1078EC
:10D7C800FA43D217174000242E282CD074284FD0A3
:10D7D8007A284DD06C2853D04C2856D01E00682883
:10D7E80048D11878682861D05E1C04231D4341E0A5
:10D7F80000270300303B3900092B0ED88F007F1813
:10D808007F0001003039C919531C10781A00040030
:10D81800303C092CF2D90F00D2E7049BD0E77F42B5
:10D8280010231D43C9E718782A280BD1059A111D22
:10D838000591146858780233002CC7DB8022520007
:10D848001543C3E701331A00010030390929F5D817
:10D8580021008C0064186400010030390919531C38
:10D8680010781A000400303C092CF2D90C00E3E7C8
:10D878005E1C187878280BD883007D4AD3589F46B9
:10D888005E1C187801231D43F4E7012215431E008E
:10D89800784B1B689846002B00D1C0E105AB01937B
:10D8A80000943B002A000399C047B8E108221543B9
:10D8B8009E1C5878DEE725210398FFF7ABFEAEE102
:10D8C800059B1A1D05921C78013F039A3900280010
:10D8D800FFF7CAFE21000398FFF79CFEA8464346BF
:10D8E800DB0600D49BE1039A39002020FFF7B0FE45
:10D8F80095E12B0709D5039B1B680493059B1A1D0B
:10D9080005921B68049A1A7089E1059B1A1D0592F5
:10D918001B68039A126804921A6080E1059B1A1D1D
:10D9280005921B689946002B1BD0534B2B409846F9
:10D93800EB0519D521004846FFF7C2FE05007F1BFD
:10D94800039A39004046FFF78FFE002DC7D04C469A
:10D958004D4421780398FFF75DFE0134AC42F8D1BD
:10D96800BDE7464B9946E0E74846FFF7C6FE050087
:10D97800E5E7059B1A1D05921B68802129404A424C
:10D988005141494222229143894601329446E14459
:10D99800DD322A43904608241D1E00D10DE10123E3
:10D9A80080208001424610400F229446132102AA8B
:10D9B800924651440494B7E080239B011D43002301
:10D9C80099462B060AD5010078394B4259414942FC
:10D9D80020230B4099462A4B9C46E144A846EB0578
:10D9E80002D5254B1D40A846059B1A1D05921D68AA
:10D9F80043465B074DD443461B075CD42B004AE0E3
:10DA0800802129404B42594149422F239943894655
:10DA180001339C46E144A846EB05E5D5164B1D406D
:10DA2800A846E1E7EB051CD5134B1D40A84600238B
:10DA38009946D9E78023DB012B439846059B1A1D9D
:10DA480005921B686A071DD42A071CD5FF221340BC
:10DA58002B229146AA061ED46D06ED0F6A01914647
:10DA680019E0A84600239946BEE7C046E4DD010058
:10DA7800E0DE010090380020FFFDFFFF48E10100D3
:10DA8800583000001BB2002BE2DA5B422D2291468F
:10DA980001E02B041B0C4246D2050FD5774A4146BC
:10DAA800114088465838C2B2202A00D982E0900036
:10DAB800734A12589746FF232B40ECE70124F1E7FD
:10DAC80019000122132002ADAC4660440725AC467C
:10DAD8009A46002B31D065462B40303383541500CD
:10DAE800C90801320B1EF6D1AA4626E01D00002304
:10DAF8009A46002D0BD080231B0242461A40130081
:10DB08002A005546A24604961E00140041E0002350
:10DB18009A4612E062462A405A4CA25CCA541A003D
:10DB28002D090133002D06D00028F3D062462A4083
:10DB3800554CA25CF2E79246049C5346E41AE34330
:10DB4800DB171C403F1B5346FF1A4B46FF2B37D9A8
:10DB5800023F43469B0538D54B46190AC9B203987C
:10DB6800FFF758FD4B46D9B20398FFF753FD38E04D
:10DB78000A212000FFF71BFD303102AB14229B184D
:10DB8800595501350A212000FFF7FDFC092C0DD954
:10DB98000400002EECD003232B40032BE8D102AB6A
:10DBA80014229B1818325A550135E1E75446AA4603
:10DBB800049EC2E700239A46BFE700239A46BCE7C3
:10DBC800002B55D143469B050BD4039A3900404698
:10DBD800FFF74AFD00274B46FF2BBDD84B46002BCD
:10DBE800C0D1039D2A0039004046FFF73DFD2A00B9
:10DBF80021003020FFF72CFD5346002B0CDD07AD2C
:10DC08005446013C2C1900E01C0021780398FFF7CA
:10DC180001FD631EAC42F7D14346DB060BD4741CEE
:10DC2800317800290DD0252900D18EE50398FFF71A
:10DC3800F1FC2600F3E7039A39002020FFF708FDDE
:10DC4800EDE703998B68002B06D00A6849680491B0
:10DC58008A4201D200219954039B18680BB03CBC3E
:10DC680090469946A246AB46F0BD01204042F5E7F2
:10DC7800013F43469B05B1D4A7E7C046FFFDFFFF20
:10DC8800C4E00100C4DD0100D4DD010070B504006A
:10DC98000D00FFF748FD074B1D6080231C43064B12
:10DCA8001C601A001368002BFCD1FFF73DFD014BE7
:0CDCB800186870BD9838002094380020D7
:10DCC4000000000000000000DDBE010003FF0000B2
:10DCD4000000FFFFDEC0ADDEFE011EF1DEC0ADDEE2
:10DCE400FF011EF1FFFFFFFFFFFFFFFFFFFFFFFF2D
:10DCF400FFFFFFFF000000000000000000E0D7016C
:10DD040003000000090000000A0000000C000000ED
:10DD14000B00000001000000005027002020726169
:10DD240077207265643A20307825780D0A00726194
:10DD34007720677265656E3A20307825780D0A0081
:10DD44002072617720626C75653A202030782578DE
:10DD54000D0A007261772077686974653A20203073
:10DD64007825780D0A005247423A202578202578F4
:10DD74002025780D0A0D0A000D0A554152542077CA
:10DD84006F726B730D0A0000003000400000000049
:10DD94000040004001000000545749206465766942
:10DDA40063652064657465637465642061742061CF
:10DDB40064647265737320307825782E0D0A000030
:10DDC40030313233343536373839616263646566ED
:10DDD400303132333435363738394142434445469D
:10DDE40074D70100B2D70100B2D7010092D7010065
:10DDF400B2D70100B2D70100B2D7010096D7010013
:10DE0400B2D70100B2D70100B2D70100A0D70100F8
:10DE1400B2D70100A6D70100B2D70100B2D70100E2
:10DE2400ACD70100B2D70100B2D70100B2D70100CC
:10DE3400B2D70100B2D70100B2D70100B2D70100B6
:10DE4400B2D70100B2D70100B2D70100B2D70100A6
:10DE5400B2D70100B2D70100B2D70100B2D7010096
:10DE6400B2D70100B2D70100B2D70100B2D7010086
:10DE7400B2D70100B2D70100B2D70100B2D7010076
:10DE8400B2D70100B2D70100B2D70100B2D7010066
:10DE9400B2D70100B2D70100B2D70100B2D7010056
:10DEA400B2D70100B2D70100B2D70100B2D7010046
:10DEB400B2D70100B2D70100B2D70100B2D7010036
:10DEC400B2D70100B2D70100B2D70100B2D7010026
:10DED400B2D70100B2D701009AD7010072DC010069
:10DEE40098D8010098D8010098D8010098D801006A
:10DEF40098D8010098D8010098D8010098D801005A
:10DF040098D8010098D8010098D8010098D8010049
:10DF140098D8010098D8010098D8010098D8010039
:10DF240098D8010098D8010098D8010098D8010029
:10DF340098D8010098D8010098D8010098D8010019
:10DF440098D8010098D8010098D8010098D8010009
:10DF540098D8010098D8010098D8010098D80100F9
:10DF640098D8010098D8010098D8010098D80100E9
:10DF7400BED8010098D8010098D8010098D80100B3
:10DF840098D8010098D8010098D8010098D80100C9
:10DF940098D8010098D8010098D8010098D80100B9
:10DFA40098D8010098D8010098D8010098D80100A9
:10DFB40098D8010098D8010098D8010098D8010099
:10DFC40098D8010098D8010098D8010098D8010089
:10DFD40098D8010098D8010098D8010098D8010079
:10DFE40098D8010098D8010098D8010098D8010069
:10DFF40098D8010098D8010098D8010098D8010059
:10E0040098D8010098D8010098D8010098D8010048
:10E0140098D8010098D8010098D8010098D8010038
:10E0240098D8010098D8010098D8010098D8010028
:10E0340098D8010098D8010098D80100C0D90100EF
:10E0440098D8010098D8010098D8010098D8010008
:10E0540098D8010098D8010098D8010098D80100F8
:10E0640098D8010098D80100C8D801003CDA010012
:10E0740098D8010098D8010098D8010098D80100D8
:10E084003CDA010098D8010098D8010098D8010022
:10E0940098D80100FAD8010008DA01007AD9010001
:10E0A40098D8010098D8010024D9010098D801001B
:10E0B4002CDA010098D8010098D80100C6D90100D3
:10E0C400A0D90100BCDB0100BCDB0100BCDB01000A
:10E0D400BCDB0100BCDB0100BCDB0100BCDB0100DC
:10E0E400BCDB0100BCDB0100BCDB0100BCDB0100CC
:10E0F400F4DA0100BCDB0100BCDB0100BCDB010085
:10E10400BCDB0100F4DA0100BCDB0100BCDB010074
:10E11400BCDB0100BCDB0100BCDB0100C8DA010090
:10E12400A0D90100BCDB0100BCDB0100BCDB0100A9
:10E13400BCDB0100F4DA0100BCDB0100BCDB010044
:0CE14400A0D90100286E756C6C29000049
:0CE1500000200040000000000024F4004B
:040000031000B20532
:00000001FF
